{
	"src/ClientRegistry.sol": {
		"ClientRegistry": {
			"abi": [
				{
					"inputs": [
						{
							"internalType": "address",
							"name": "admin",
							"type": "address"
						}
					],
					"stateMutability": "nonpayable",
					"type": "constructor"
				},
				{
					"inputs": [],
					"name": "AccessControlBadConfirmation",
					"type": "error"
				},
				{
					"inputs": [
						{
							"internalType": "address",
							"name": "account",
							"type": "address"
						},
						{
							"internalType": "bytes32",
							"name": "neededRole",
							"type": "bytes32"
						}
					],
					"name": "AccessControlUnauthorizedAccount",
					"type": "error"
				},
				{
					"anonymous": false,
					"inputs": [
						{
							"indexed": true,
							"internalType": "address",
							"name": "client",
							"type": "address"
						},
						{
							"indexed": true,
							"internalType": "address",
							"name": "issuer",
							"type": "address"
						},
						{
							"indexed": false,
							"internalType": "bytes32",
							"name": "dataHash",
							"type": "bytes32"
						},
						{
							"indexed": false,
							"internalType": "uint256",
							"name": "timestamp",
							"type": "uint256"
						}
					],
					"name": "ClientRegistered",
					"type": "event"
				},
				{
					"anonymous": false,
					"inputs": [
						{
							"indexed": true,
							"internalType": "address",
							"name": "client",
							"type": "address"
						},
						{
							"indexed": true,
							"internalType": "address",
							"name": "issuer",
							"type": "address"
						},
						{
							"indexed": false,
							"internalType": "bytes32",
							"name": "dataHash",
							"type": "bytes32"
						},
						{
							"indexed": false,
							"internalType": "uint256",
							"name": "timestamp",
							"type": "uint256"
						}
					],
					"name": "ClientRevoked",
					"type": "event"
				},
				{
					"anonymous": false,
					"inputs": [
						{
							"indexed": true,
							"internalType": "bytes32",
							"name": "role",
							"type": "bytes32"
						},
						{
							"indexed": true,
							"internalType": "bytes32",
							"name": "previousAdminRole",
							"type": "bytes32"
						},
						{
							"indexed": true,
							"internalType": "bytes32",
							"name": "newAdminRole",
							"type": "bytes32"
						}
					],
					"name": "RoleAdminChanged",
					"type": "event"
				},
				{
					"anonymous": false,
					"inputs": [
						{
							"indexed": true,
							"internalType": "bytes32",
							"name": "role",
							"type": "bytes32"
						},
						{
							"indexed": true,
							"internalType": "address",
							"name": "account",
							"type": "address"
						},
						{
							"indexed": true,
							"internalType": "address",
							"name": "sender",
							"type": "address"
						}
					],
					"name": "RoleGranted",
					"type": "event"
				},
				{
					"anonymous": false,
					"inputs": [
						{
							"indexed": true,
							"internalType": "bytes32",
							"name": "role",
							"type": "bytes32"
						},
						{
							"indexed": true,
							"internalType": "address",
							"name": "account",
							"type": "address"
						},
						{
							"indexed": true,
							"internalType": "address",
							"name": "sender",
							"type": "address"
						}
					],
					"name": "RoleRevoked",
					"type": "event"
				},
				{
					"inputs": [],
					"name": "DEFAULT_ADMIN_ROLE",
					"outputs": [
						{
							"internalType": "bytes32",
							"name": "",
							"type": "bytes32"
						}
					],
					"stateMutability": "view",
					"type": "function"
				},
				{
					"inputs": [],
					"name": "ISSUER_ROLE",
					"outputs": [
						{
							"internalType": "bytes32",
							"name": "",
							"type": "bytes32"
						}
					],
					"stateMutability": "view",
					"type": "function"
				},
				{
					"inputs": [],
					"name": "REVOKER_ROLE",
					"outputs": [
						{
							"internalType": "bytes32",
							"name": "",
							"type": "bytes32"
						}
					],
					"stateMutability": "view",
					"type": "function"
				},
				{
					"inputs": [
						{
							"internalType": "bytes32",
							"name": "role",
							"type": "bytes32"
						}
					],
					"name": "getRoleAdmin",
					"outputs": [
						{
							"internalType": "bytes32",
							"name": "",
							"type": "bytes32"
						}
					],
					"stateMutability": "view",
					"type": "function"
				},
				{
					"inputs": [
						{
							"internalType": "bytes32",
							"name": "role",
							"type": "bytes32"
						},
						{
							"internalType": "address",
							"name": "account",
							"type": "address"
						}
					],
					"name": "grantRole",
					"outputs": [],
					"stateMutability": "nonpayable",
					"type": "function"
				},
				{
					"inputs": [
						{
							"internalType": "bytes32",
							"name": "role",
							"type": "bytes32"
						},
						{
							"internalType": "address",
							"name": "account",
							"type": "address"
						}
					],
					"name": "hasRole",
					"outputs": [
						{
							"internalType": "bool",
							"name": "",
							"type": "bool"
						}
					],
					"stateMutability": "view",
					"type": "function"
				},
				{
					"inputs": [
						{
							"internalType": "address",
							"name": "client",
							"type": "address"
						}
					],
					"name": "latestRecord",
					"outputs": [
						{
							"internalType": "address",
							"name": "issuer",
							"type": "address"
						},
						{
							"internalType": "uint256",
							"name": "timestamp",
							"type": "uint256"
						},
						{
							"internalType": "bytes32",
							"name": "dataHash",
							"type": "bytes32"
						},
						{
							"internalType": "bool",
							"name": "revoked",
							"type": "bool"
						}
					],
					"stateMutability": "view",
					"type": "function"
				},
				{
					"inputs": [
						{
							"internalType": "address",
							"name": "client",
							"type": "address"
						},
						{
							"internalType": "uint256",
							"name": "index",
							"type": "uint256"
						}
					],
					"name": "recordAt",
					"outputs": [
						{
							"internalType": "address",
							"name": "issuer",
							"type": "address"
						},
						{
							"internalType": "uint256",
							"name": "timestamp",
							"type": "uint256"
						},
						{
							"internalType": "bytes32",
							"name": "dataHash",
							"type": "bytes32"
						},
						{
							"internalType": "bool",
							"name": "revoked",
							"type": "bool"
						}
					],
					"stateMutability": "view",
					"type": "function"
				},
				{
					"inputs": [
						{
							"internalType": "address",
							"name": "client",
							"type": "address"
						}
					],
					"name": "recordCount",
					"outputs": [
						{
							"internalType": "uint256",
							"name": "",
							"type": "uint256"
						}
					],
					"stateMutability": "view",
					"type": "function"
				},
				{
					"inputs": [
						{
							"internalType": "address",
							"name": "client",
							"type": "address"
						},
						{
							"internalType": "bytes32",
							"name": "dataHash",
							"type": "bytes32"
						}
					],
					"name": "registerClient",
					"outputs": [],
					"stateMutability": "nonpayable",
					"type": "function"
				},
				{
					"inputs": [
						{
							"internalType": "bytes32",
							"name": "role",
							"type": "bytes32"
						},
						{
							"internalType": "address",
							"name": "callerConfirmation",
							"type": "address"
						}
					],
					"name": "renounceRole",
					"outputs": [],
					"stateMutability": "nonpayable",
					"type": "function"
				},
				{
					"inputs": [
						{
							"internalType": "address",
							"name": "client",
							"type": "address"
						},
						{
							"internalType": "bytes32",
							"name": "dataHash",
							"type": "bytes32"
						}
					],
					"name": "revokeLatest",
					"outputs": [],
					"stateMutability": "nonpayable",
					"type": "function"
				},
				{
					"inputs": [
						{
							"internalType": "bytes32",
							"name": "role",
							"type": "bytes32"
						},
						{
							"internalType": "address",
							"name": "account",
							"type": "address"
						}
					],
					"name": "revokeRole",
					"outputs": [],
					"stateMutability": "nonpayable",
					"type": "function"
				},
				{
					"inputs": [
						{
							"internalType": "bytes4",
							"name": "interfaceId",
							"type": "bytes4"
						}
					],
					"name": "supportsInterface",
					"outputs": [
						{
							"internalType": "bool",
							"name": "",
							"type": "bool"
						}
					],
					"stateMutability": "view",
					"type": "function"
				}
			],
			"devdoc": {
				"errors": {
					"AccessControlBadConfirmation()": [
						{
							"details": "The caller of a function is not the expected one. NOTE: Don't confuse with {AccessControlUnauthorizedAccount}."
						}
					],
					"AccessControlUnauthorizedAccount(address,bytes32)": [
						{
							"details": "The `account` is missing a role."
						}
					]
				},
				"events": {
					"RoleAdminChanged(bytes32,bytes32,bytes32)": {
						"details": "Emitted when `newAdminRole` is set as ``role``'s admin role, replacing `previousAdminRole` `DEFAULT_ADMIN_ROLE` is the starting admin for all roles, despite {RoleAdminChanged} not being emitted to signal this."
					},
					"RoleGranted(bytes32,address,address)": {
						"details": "Emitted when `account` is granted `role`. `sender` is the account that originated the contract call. This account bears the admin role (for the granted role). Expected in cases where the role was granted using the internal {AccessControl-_grantRole}."
					},
					"RoleRevoked(bytes32,address,address)": {
						"details": "Emitted when `account` is revoked `role`. `sender` is the account that originated the contract call:   - if using `revokeRole`, it is the admin role bearer   - if using `renounceRole`, it is the role bearer (i.e. `account`)"
					}
				},
				"kind": "dev",
				"methods": {
					"getRoleAdmin(bytes32)": {
						"details": "Returns the admin role that controls `role`. See {grantRole} and {revokeRole}. To change a role's admin, use {_setRoleAdmin}."
					},
					"grantRole(bytes32,address)": {
						"details": "Grants `role` to `account`. If `account` had not been already granted `role`, emits a {RoleGranted} event. Requirements: - the caller must have ``role``'s admin role. May emit a {RoleGranted} event."
					},
					"hasRole(bytes32,address)": {
						"details": "Returns `true` if `account` has been granted `role`."
					},
					"registerClient(address,bytes32)": {
						"params": {
							"client": "The client address the record is about",
							"dataHash": "keccak256 hash of the off-chain verification payload"
						}
					},
					"renounceRole(bytes32,address)": {
						"details": "Revokes `role` from the calling account. Roles are often managed via {grantRole} and {revokeRole}: this function's purpose is to provide a mechanism for accounts to lose their privileges if they are compromised (such as when a trusted device is misplaced). If the calling account had been revoked `role`, emits a {RoleRevoked} event. Requirements: - the caller must be `callerConfirmation`. May emit a {RoleRevoked} event."
					},
					"revokeLatest(address,bytes32)": {
						"params": {
							"client": "The client address"
						}
					},
					"revokeRole(bytes32,address)": {
						"details": "Revokes `role` from `account`. If `account` had been granted `role`, emits a {RoleRevoked} event. Requirements: - the caller must have ``role``'s admin role. May emit a {RoleRevoked} event."
					},
					"supportsInterface(bytes4)": {
						"details": "Returns true if this contract implements the interface defined by `interfaceId`. See the corresponding https://eips.ethereum.org/EIPS/eip-165#how-interfaces-are-identified[ERC section] to learn more about how these ids are created. This function call must use less than 30 000 gas."
					}
				},
				"version": 1
			},
			"evm": {
				"assembly": "    /* \"src/ClientRegistry.sol\":403:4278  contract ClientRegistry is AccessControl {... */\n  mstore(0x40, 0x80)\n    /* \"src/ClientRegistry.sol\":1109:1352  constructor(address admin) {... */\n  callvalue\n  dup1\n  iszero\n  tag_1\n  jumpi\n  revert(0x00, 0x00)\ntag_1:\n  pop\n  mload(0x40)\n  sub(codesize, bytecodeSize)\n  dup1\n  bytecodeSize\n  dup4\n  codecopy\n  dup2\n  dup2\n  add\n  0x40\n  mstore\n  dup2\n  add\n  swap1\n  tag_2\n  swap2\n  swap1\n  tag_3\n  jump\t// in\ntag_2:\n    /* \"src/ClientRegistry.sol\":1227:1264  _grantRole(DEFAULT_ADMIN_ROLE, admin) */\n  tag_6\n    /* \"https://github.com/OpenZeppelin/openzeppelin-contracts/blob/master/contracts/access/AccessControl.sol\":2241:2245  0x00 */\n  0x00\n    /* \"src/ClientRegistry.sol\":1238:1256  DEFAULT_ADMIN_ROLE */\n  0x00\n  shl\n    /* \"src/ClientRegistry.sol\":1258:1263  admin */\n  dup3\n    /* \"src/ClientRegistry.sol\":1227:1237  _grantRole */\n  shl(0x20, tag_7)\n    /* \"src/ClientRegistry.sol\":1227:1264  _grantRole(DEFAULT_ADMIN_ROLE, admin) */\n  0x20\n  shr\n  jump\t// in\ntag_6:\n  pop\n    /* \"src/ClientRegistry.sol\":1274:1304  _grantRole(ISSUER_ROLE, admin) */\n  tag_8\n    /* \"src/ClientRegistry.sol\":488:512  keccak256(\"ISSUER_ROLE\") */\n  0x114e74f6ea3bd819998f78687bfcb11b140da08e9b7d222fa9c1f1ba1f2aa122\n    /* \"src/ClientRegistry.sol\":1298:1303  admin */\n  dup3\n    /* \"src/ClientRegistry.sol\":1274:1284  _grantRole */\n  shl(0x20, tag_7)\n    /* \"src/ClientRegistry.sol\":1274:1304  _grantRole(ISSUER_ROLE, admin) */\n  0x20\n  shr\n  jump\t// in\ntag_8:\n  pop\n    /* \"src/ClientRegistry.sol\":1314:1345  _grantRole(REVOKER_ROLE, admin) */\n  tag_9\n    /* \"src/ClientRegistry.sol\":557:582  keccak256(\"REVOKER_ROLE\") */\n  0xce3f34913921da558f105cefb578d87278debbbd073a8d552b5de0d168deee30\n    /* \"src/ClientRegistry.sol\":1339:1344  admin */\n  dup3\n    /* \"src/ClientRegistry.sol\":1314:1324  _grantRole */\n  shl(0x20, tag_7)\n    /* \"src/ClientRegistry.sol\":1314:1345  _grantRole(REVOKER_ROLE, admin) */\n  0x20\n  shr\n  jump\t// in\ntag_9:\n  pop\n    /* \"src/ClientRegistry.sol\":1109:1352  constructor(address admin) {... */\n  pop\n    /* \"src/ClientRegistry.sol\":403:4278  contract ClientRegistry is AccessControl {... */\n  jump(tag_10)\n    /* \"https://github.com/OpenZeppelin/openzeppelin-contracts/blob/master/contracts/access/AccessControl.sol\":6155:6471  function _grantRole(bytes32 role, address account) internal virtual returns (bool) {... */\ntag_7:\n    /* \"https://github.com/OpenZeppelin/openzeppelin-contracts/blob/master/contracts/access/AccessControl.sol\":6232:6236  bool */\n  0x00\n    /* \"https://github.com/OpenZeppelin/openzeppelin-contracts/blob/master/contracts/access/AccessControl.sol\":6253:6275  hasRole(role, account) */\n  tag_12\n    /* \"https://github.com/OpenZeppelin/openzeppelin-contracts/blob/master/contracts/access/AccessControl.sol\":6261:6265  role */\n  dup4\n    /* \"https://github.com/OpenZeppelin/openzeppelin-contracts/blob/master/contracts/access/AccessControl.sol\":6267:6274  account */\n  dup4\n    /* \"https://github.com/OpenZeppelin/openzeppelin-contracts/blob/master/contracts/access/AccessControl.sol\":6253:6260  hasRole */\n  shl(0x20, tag_13)\n    /* \"https://github.com/OpenZeppelin/openzeppelin-contracts/blob/master/contracts/access/AccessControl.sol\":6253:6275  hasRole(role, account) */\n  0x20\n  shr\n  jump\t// in\ntag_12:\n    /* \"https://github.com/OpenZeppelin/openzeppelin-contracts/blob/master/contracts/access/AccessControl.sol\":6248:6465  if (!hasRole(role, account)) {... */\n  tag_14\n  jumpi\n    /* \"https://github.com/OpenZeppelin/openzeppelin-contracts/blob/master/contracts/access/AccessControl.sol\":6323:6327  true */\n  0x01\n    /* \"https://github.com/OpenZeppelin/openzeppelin-contracts/blob/master/contracts/access/AccessControl.sol\":6291:6297  _roles */\n  0x00\n    /* \"https://github.com/OpenZeppelin/openzeppelin-contracts/blob/master/contracts/access/AccessControl.sol\":6291:6303  _roles[role] */\n  0x00\n    /* \"https://github.com/OpenZeppelin/openzeppelin-contracts/blob/master/contracts/access/AccessControl.sol\":6298:6302  role */\n  dup6\n    /* \"https://github.com/OpenZeppelin/openzeppelin-contracts/blob/master/contracts/access/AccessControl.sol\":6291:6303  _roles[role] */\n  dup2\n  mstore\n  0x20\n  add\n  swap1\n  dup2\n  mstore\n  0x20\n  add\n  0x00\n  keccak256\n    /* \"https://github.com/OpenZeppelin/openzeppelin-contracts/blob/master/contracts/access/AccessControl.sol\":6291:6311  _roles[role].hasRole */\n  0x00\n  add\n    /* \"https://github.com/OpenZeppelin/openzeppelin-contracts/blob/master/contracts/access/AccessControl.sol\":6291:6320  _roles[role].hasRole[account] */\n  0x00\n    /* \"https://github.com/OpenZeppelin/openzeppelin-contracts/blob/master/contracts/access/AccessControl.sol\":6312:6319  account */\n  dup5\n    /* \"https://github.com/OpenZeppelin/openzeppelin-contracts/blob/master/contracts/access/AccessControl.sol\":6291:6320  _roles[role].hasRole[account] */\n  0xffffffffffffffffffffffffffffffffffffffff\n  and\n  0xffffffffffffffffffffffffffffffffffffffff\n  and\n  dup2\n  mstore\n  0x20\n  add\n  swap1\n  dup2\n  mstore\n  0x20\n  add\n  0x00\n  keccak256\n  0x00\n    /* \"https://github.com/OpenZeppelin/openzeppelin-contracts/blob/master/contracts/access/AccessControl.sol\":6291:6327  _roles[role].hasRole[account] = true */\n  0x0100\n  exp\n  dup2\n  sload\n  dup2\n  0xff\n  mul\n  not\n  and\n  swap1\n  dup4\n  iszero\n  iszero\n  mul\n  or\n  swap1\n  sstore\n  pop\n    /* \"https://github.com/OpenZeppelin/openzeppelin-contracts/blob/master/contracts/access/AccessControl.sol\":6373:6385  _msgSender() */\n  tag_15\n    /* \"https://github.com/OpenZeppelin/openzeppelin-contracts/blob/master/contracts/access/AccessControl.sol\":6373:6383  _msgSender */\n  shl(0x20, tag_16)\n    /* \"https://github.com/OpenZeppelin/openzeppelin-contracts/blob/master/contracts/access/AccessControl.sol\":6373:6385  _msgSender() */\n  0x20\n  shr\n  jump\t// in\ntag_15:\n    /* \"https://github.com/OpenZeppelin/openzeppelin-contracts/blob/master/contracts/access/AccessControl.sol\":6346:6386  RoleGranted(role, account, _msgSender()) */\n  0xffffffffffffffffffffffffffffffffffffffff\n  and\n    /* \"https://github.com/OpenZeppelin/openzeppelin-contracts/blob/master/contracts/access/AccessControl.sol\":6364:6371  account */\n  dup3\n    /* \"https://github.com/OpenZeppelin/openzeppelin-contracts/blob/master/contracts/access/AccessControl.sol\":6346:6386  RoleGranted(role, account, _msgSender()) */\n  0xffffffffffffffffffffffffffffffffffffffff\n  and\n    /* \"https://github.com/OpenZeppelin/openzeppelin-contracts/blob/master/contracts/access/AccessControl.sol\":6358:6362  role */\n  dup5\n    /* \"https://github.com/OpenZeppelin/openzeppelin-contracts/blob/master/contracts/access/AccessControl.sol\":6346:6386  RoleGranted(role, account, _msgSender()) */\n  0x2f8788117e7eff1d82e926ec794901d17c78024a50270940304540a733656f0d\n  mload(0x40)\n  mload(0x40)\n  dup1\n  swap2\n  sub\n  swap1\n  log4\n    /* \"https://github.com/OpenZeppelin/openzeppelin-contracts/blob/master/contracts/access/AccessControl.sol\":6407:6411  true */\n  0x01\n    /* \"https://github.com/OpenZeppelin/openzeppelin-contracts/blob/master/contracts/access/AccessControl.sol\":6400:6411  return true */\n  swap1\n  pop\n  jump(tag_11)\n    /* \"https://github.com/OpenZeppelin/openzeppelin-contracts/blob/master/contracts/access/AccessControl.sol\":6248:6465  if (!hasRole(role, account)) {... */\ntag_14:\n    /* \"https://github.com/OpenZeppelin/openzeppelin-contracts/blob/master/contracts/access/AccessControl.sol\":6449:6454  false */\n  0x00\n    /* \"https://github.com/OpenZeppelin/openzeppelin-contracts/blob/master/contracts/access/AccessControl.sol\":6442:6454  return false */\n  swap1\n  pop\n    /* \"https://github.com/OpenZeppelin/openzeppelin-contracts/blob/master/contracts/access/AccessControl.sol\":6155:6471  function _grantRole(bytes32 role, address account) internal virtual returns (bool) {... */\ntag_11:\n  swap3\n  swap2\n  pop\n  pop\n  jump\t// out\n    /* \"https://github.com/OpenZeppelin/openzeppelin-contracts/blob/master/contracts/access/AccessControl.sol\":2830:2966  function hasRole(bytes32 role, address account) public view virtual returns (bool) {... */\ntag_13:\n    /* \"https://github.com/OpenZeppelin/openzeppelin-contracts/blob/master/contracts/access/AccessControl.sol\":2907:2911  bool */\n  0x00\n    /* \"https://github.com/OpenZeppelin/openzeppelin-contracts/blob/master/contracts/access/AccessControl.sol\":2930:2936  _roles */\n  0x00\n    /* \"https://github.com/OpenZeppelin/openzeppelin-contracts/blob/master/contracts/access/AccessControl.sol\":2930:2942  _roles[role] */\n  0x00\n    /* \"https://github.com/OpenZeppelin/openzeppelin-contracts/blob/master/contracts/access/AccessControl.sol\":2937:2941  role */\n  dup5\n    /* \"https://github.com/OpenZeppelin/openzeppelin-contracts/blob/master/contracts/access/AccessControl.sol\":2930:2942  _roles[role] */\n  dup2\n  mstore\n  0x20\n  add\n  swap1\n  dup2\n  mstore\n  0x20\n  add\n  0x00\n  keccak256\n    /* \"https://github.com/OpenZeppelin/openzeppelin-contracts/blob/master/contracts/access/AccessControl.sol\":2930:2950  _roles[role].hasRole */\n  0x00\n  add\n    /* \"https://github.com/OpenZeppelin/openzeppelin-contracts/blob/master/contracts/access/AccessControl.sol\":2930:2959  _roles[role].hasRole[account] */\n  0x00\n    /* \"https://github.com/OpenZeppelin/openzeppelin-contracts/blob/master/contracts/access/AccessControl.sol\":2951:2958  account */\n  dup4\n    /* \"https://github.com/OpenZeppelin/openzeppelin-contracts/blob/master/contracts/access/AccessControl.sol\":2930:2959  _roles[role].hasRole[account] */\n  0xffffffffffffffffffffffffffffffffffffffff\n  and\n  0xffffffffffffffffffffffffffffffffffffffff\n  and\n  dup2\n  mstore\n  0x20\n  add\n  swap1\n  dup2\n  mstore\n  0x20\n  add\n  0x00\n  keccak256\n  0x00\n  swap1\n  sload\n  swap1\n  0x0100\n  exp\n  swap1\n  div\n  0xff\n  and\n    /* \"https://github.com/OpenZeppelin/openzeppelin-contracts/blob/master/contracts/access/AccessControl.sol\":2923:2959  return _roles[role].hasRole[account] */\n  swap1\n  pop\n    /* \"https://github.com/OpenZeppelin/openzeppelin-contracts/blob/master/contracts/access/AccessControl.sol\":2830:2966  function hasRole(bytes32 role, address account) public view virtual returns (bool) {... */\n  swap3\n  swap2\n  pop\n  pop\n  jump\t// out\n    /* \"https://github.com/OpenZeppelin/openzeppelin-contracts/blob/master/contracts/utils/Context.sol\":656:752  function _msgSender() internal view virtual returns (address) {... */\ntag_16:\n    /* \"https://github.com/OpenZeppelin/openzeppelin-contracts/blob/master/contracts/utils/Context.sol\":709:716  address */\n  0x00\n    /* \"https://github.com/OpenZeppelin/openzeppelin-contracts/blob/master/contracts/utils/Context.sol\":735:745  msg.sender */\n  caller\n    /* \"https://github.com/OpenZeppelin/openzeppelin-contracts/blob/master/contracts/utils/Context.sol\":728:745  return msg.sender */\n  swap1\n  pop\n    /* \"https://github.com/OpenZeppelin/openzeppelin-contracts/blob/master/contracts/utils/Context.sol\":656:752  function _msgSender() internal view virtual returns (address) {... */\n  swap1\n  jump\t// out\n    /* \"#utility.yul\":88:205   */\ntag_21:\n    /* \"#utility.yul\":197:198   */\n  0x00\n    /* \"#utility.yul\":194:195   */\n  0x00\n    /* \"#utility.yul\":187:199   */\n  revert\n    /* \"#utility.yul\":334:460   */\ntag_23:\n    /* \"#utility.yul\":371:378   */\n  0x00\n    /* \"#utility.yul\":411:453   */\n  0xffffffffffffffffffffffffffffffffffffffff\n    /* \"#utility.yul\":404:409   */\n  dup3\n    /* \"#utility.yul\":400:454   */\n  and\n    /* \"#utility.yul\":389:454   */\n  swap1\n  pop\n    /* \"#utility.yul\":334:460   */\n  swap2\n  swap1\n  pop\n  jump\t// out\n    /* \"#utility.yul\":466:562   */\ntag_24:\n    /* \"#utility.yul\":503:510   */\n  0x00\n    /* \"#utility.yul\":532:556   */\n  tag_33\n    /* \"#utility.yul\":550:555   */\n  dup3\n    /* \"#utility.yul\":532:556   */\n  tag_23\n  jump\t// in\ntag_33:\n    /* \"#utility.yul\":521:556   */\n  swap1\n  pop\n    /* \"#utility.yul\":466:562   */\n  swap2\n  swap1\n  pop\n  jump\t// out\n    /* \"#utility.yul\":568:690   */\ntag_25:\n    /* \"#utility.yul\":641:665   */\n  tag_35\n    /* \"#utility.yul\":659:664   */\n  dup2\n    /* \"#utility.yul\":641:665   */\n  tag_24\n  jump\t// in\ntag_35:\n    /* \"#utility.yul\":634:639   */\n  dup2\n    /* \"#utility.yul\":631:666   */\n  eq\n    /* \"#utility.yul\":621:684   */\n  tag_36\n  jumpi\n    /* \"#utility.yul\":680:681   */\n  0x00\n    /* \"#utility.yul\":677:678   */\n  0x00\n    /* \"#utility.yul\":670:682   */\n  revert\n    /* \"#utility.yul\":621:684   */\ntag_36:\n    /* \"#utility.yul\":568:690   */\n  pop\n  jump\t// out\n    /* \"#utility.yul\":696:839   */\ntag_26:\n    /* \"#utility.yul\":753:758   */\n  0x00\n    /* \"#utility.yul\":784:790   */\n  dup2\n    /* \"#utility.yul\":778:791   */\n  mload\n    /* \"#utility.yul\":769:791   */\n  swap1\n  pop\n    /* \"#utility.yul\":800:833   */\n  tag_38\n    /* \"#utility.yul\":827:832   */\n  dup2\n    /* \"#utility.yul\":800:833   */\n  tag_25\n  jump\t// in\ntag_38:\n    /* \"#utility.yul\":696:839   */\n  swap3\n  swap2\n  pop\n  pop\n  jump\t// out\n    /* \"#utility.yul\":845:1196   */\ntag_3:\n    /* \"#utility.yul\":915:921   */\n  0x00\n    /* \"#utility.yul\":964:966   */\n  0x20\n    /* \"#utility.yul\":952:961   */\n  dup3\n    /* \"#utility.yul\":943:950   */\n  dup5\n    /* \"#utility.yul\":939:962   */\n  sub\n    /* \"#utility.yul\":935:967   */\n  slt\n    /* \"#utility.yul\":932:1051   */\n  iszero\n  tag_40\n  jumpi\n    /* \"#utility.yul\":970:1049   */\n  tag_41\n  tag_21\n  jump\t// in\ntag_41:\n    /* \"#utility.yul\":932:1051   */\ntag_40:\n    /* \"#utility.yul\":1090:1091   */\n  0x00\n    /* \"#utility.yul\":1115:1179   */\n  tag_42\n    /* \"#utility.yul\":1171:1178   */\n  dup5\n    /* \"#utility.yul\":1162:1168   */\n  dup3\n    /* \"#utility.yul\":1151:1160   */\n  dup6\n    /* \"#utility.yul\":1147:1169   */\n  add\n    /* \"#utility.yul\":1115:1179   */\n  tag_26\n  jump\t// in\ntag_42:\n    /* \"#utility.yul\":1105:1179   */\n  swap2\n  pop\n    /* \"#utility.yul\":1061:1189   */\n  pop\n    /* \"#utility.yul\":845:1196   */\n  swap3\n  swap2\n  pop\n  pop\n  jump\t// out\n    /* \"src/ClientRegistry.sol\":403:4278  contract ClientRegistry is AccessControl {... */\ntag_10:\n  dataSize(sub_0)\n  dup1\n  dataOffset(sub_0)\n  0x00\n  codecopy\n  0x00\n  return\nstop\n\nsub_0: assembly {\n        /* \"src/ClientRegistry.sol\":403:4278  contract ClientRegistry is AccessControl {... */\n      mstore(0x40, 0x80)\n      callvalue\n      dup1\n      iszero\n      tag_1\n      jumpi\n      revert(0x00, 0x00)\n    tag_1:\n      pop\n      jumpi(tag_2, lt(calldatasize, 0x04))\n      shr(0xe0, calldataload(0x00))\n      dup1\n      0x82aefa24\n      gt\n      tag_17\n      jumpi\n      dup1\n      0xb8cdd6b1\n      gt\n      tag_18\n      jumpi\n      dup1\n      0xb8cdd6b1\n      eq\n      tag_13\n      jumpi\n      dup1\n      0xba63245d\n      eq\n      tag_14\n      jumpi\n      dup1\n      0xd547741f\n      eq\n      tag_15\n      jumpi\n      dup1\n      0xfbe30dee\n      eq\n      tag_16\n      jumpi\n      jump(tag_2)\n    tag_18:\n      dup1\n      0x82aefa24\n      eq\n      tag_10\n      jumpi\n      dup1\n      0x91d14854\n      eq\n      tag_11\n      jumpi\n      dup1\n      0xa217fddf\n      eq\n      tag_12\n      jumpi\n      jump(tag_2)\n    tag_17:\n      dup1\n      0x2f2ff15d\n      gt\n      tag_19\n      jumpi\n      dup1\n      0x2f2ff15d\n      eq\n      tag_6\n      jumpi\n      dup1\n      0x36568abe\n      eq\n      tag_7\n      jumpi\n      dup1\n      0x5f615fbb\n      eq\n      tag_8\n      jumpi\n      dup1\n      0x7c4acabf\n      eq\n      tag_9\n      jumpi\n      jump(tag_2)\n    tag_19:\n      dup1\n      0x01ffc9a7\n      eq\n      tag_3\n      jumpi\n      dup1\n      0x22fa4888\n      eq\n      tag_4\n      jumpi\n      dup1\n      0x248a9ca3\n      eq\n      tag_5\n      jumpi\n    tag_2:\n      revert(0x00, 0x00)\n        /* \"https://github.com/OpenZeppelin/openzeppelin-contracts/blob/master/contracts/access/AccessControl.sol\":2541:2743  function supportsInterface(bytes4 interfaceId) public view virtual override returns (bool) {... */\n    tag_3:\n      tag_20\n      0x04\n      dup1\n      calldatasize\n      sub\n      dup2\n      add\n      swap1\n      tag_21\n      swap2\n      swap1\n      tag_22\n      jump\t// in\n    tag_21:\n      tag_23\n      jump\t// in\n    tag_20:\n      mload(0x40)\n      tag_24\n      swap2\n      swap1\n      tag_25\n      jump\t// in\n    tag_24:\n      mload(0x40)\n      dup1\n      swap2\n      sub\n      swap1\n      return\n        /* \"src/ClientRegistry.sol\":1938:2416  function registerClient(... */\n    tag_4:\n      tag_26\n      0x04\n      dup1\n      calldatasize\n      sub\n      dup2\n      add\n      swap1\n      tag_27\n      swap2\n      swap1\n      tag_28\n      jump\t// in\n    tag_27:\n      tag_29\n      jump\t// in\n    tag_26:\n      stop\n        /* \"https://github.com/OpenZeppelin/openzeppelin-contracts/blob/master/contracts/access/AccessControl.sol\":3786:3906  function getRoleAdmin(bytes32 role) public view virtual returns (bytes32) {... */\n    tag_5:\n      tag_30\n      0x04\n      dup1\n      calldatasize\n      sub\n      dup2\n      add\n      swap1\n      tag_31\n      swap2\n      swap1\n      tag_32\n      jump\t// in\n    tag_31:\n      tag_33\n      jump\t// in\n    tag_30:\n      mload(0x40)\n      tag_34\n      swap2\n      swap1\n      tag_35\n      jump\t// in\n    tag_34:\n      mload(0x40)\n      dup1\n      swap2\n      sub\n      swap1\n      return\n        /* \"https://github.com/OpenZeppelin/openzeppelin-contracts/blob/master/contracts/access/AccessControl.sol\":4202:4338  function grantRole(bytes32 role, address account) public virtual onlyRole(getRoleAdmin(role)) {... */\n    tag_6:\n      tag_36\n      0x04\n      dup1\n      calldatasize\n      sub\n      dup2\n      add\n      swap1\n      tag_37\n      swap2\n      swap1\n      tag_38\n      jump\t// in\n    tag_37:\n      tag_39\n      jump\t// in\n    tag_36:\n      stop\n        /* \"https://github.com/OpenZeppelin/openzeppelin-contracts/blob/master/contracts/access/AccessControl.sol\":5304:5549  function renounceRole(bytes32 role, address callerConfirmation) public virtual {... */\n    tag_7:\n      tag_40\n      0x04\n      dup1\n      calldatasize\n      sub\n      dup2\n      add\n      swap1\n      tag_41\n      swap2\n      swap1\n      tag_38\n      jump\t// in\n    tag_41:\n      tag_42\n      jump\t// in\n    tag_40:\n      stop\n        /* \"src/ClientRegistry.sol\":2572:3063  function revokeLatest(... */\n    tag_8:\n      tag_43\n      0x04\n      dup1\n      calldatasize\n      sub\n      dup2\n      add\n      swap1\n      tag_44\n      swap2\n      swap1\n      tag_28\n      jump\t// in\n    tag_44:\n      tag_45\n      jump\t// in\n    tag_43:\n      stop\n        /* \"src/ClientRegistry.sol\":518:582  bytes32 public constant REVOKER_ROLE = keccak256(\"REVOKER_ROLE\") */\n    tag_9:\n      tag_46\n      tag_47\n      jump\t// in\n    tag_46:\n      mload(0x40)\n      tag_48\n      swap2\n      swap1\n      tag_35\n      jump\t// in\n    tag_48:\n      mload(0x40)\n      dup1\n      swap2\n      sub\n      swap1\n      return\n        /* \"src/ClientRegistry.sol\":450:512  bytes32 public constant ISSUER_ROLE = keccak256(\"ISSUER_ROLE\") */\n    tag_10:\n      tag_49\n      tag_50\n      jump\t// in\n    tag_49:\n      mload(0x40)\n      tag_51\n      swap2\n      swap1\n      tag_35\n      jump\t// in\n    tag_51:\n      mload(0x40)\n      dup1\n      swap2\n      sub\n      swap1\n      return\n        /* \"https://github.com/OpenZeppelin/openzeppelin-contracts/blob/master/contracts/access/AccessControl.sol\":2830:2966  function hasRole(bytes32 role, address account) public view virtual returns (bool) {... */\n    tag_11:\n      tag_52\n      0x04\n      dup1\n      calldatasize\n      sub\n      dup2\n      add\n      swap1\n      tag_53\n      swap2\n      swap1\n      tag_38\n      jump\t// in\n    tag_53:\n      tag_54\n      jump\t// in\n    tag_52:\n      mload(0x40)\n      tag_55\n      swap2\n      swap1\n      tag_25\n      jump\t// in\n    tag_55:\n      mload(0x40)\n      dup1\n      swap2\n      sub\n      swap1\n      return\n        /* \"https://github.com/OpenZeppelin/openzeppelin-contracts/blob/master/contracts/access/AccessControl.sol\":2196:2245  bytes32 public constant DEFAULT_ADMIN_ROLE = 0x00 */\n    tag_12:\n      tag_56\n      tag_57\n      jump\t// in\n    tag_56:\n      mload(0x40)\n      tag_58\n      swap2\n      swap1\n      tag_35\n      jump\t// in\n    tag_58:\n      mload(0x40)\n      dup1\n      swap2\n      sub\n      swap1\n      return\n        /* \"src/ClientRegistry.sol\":3828:4276  function recordAt(... */\n    tag_13:\n      tag_59\n      0x04\n      dup1\n      calldatasize\n      sub\n      dup2\n      add\n      swap1\n      tag_60\n      swap2\n      swap1\n      tag_61\n      jump\t// in\n    tag_60:\n      tag_62\n      jump\t// in\n    tag_59:\n      mload(0x40)\n      tag_63\n      swap5\n      swap4\n      swap3\n      swap2\n      swap1\n      tag_64\n      jump\t// in\n    tag_63:\n      mload(0x40)\n      dup1\n      swap2\n      sub\n      swap1\n      return\n        /* \"src/ClientRegistry.sol\":3127:3243  function recordCount(address client) external view returns (uint256) {... */\n    tag_14:\n      tag_65\n      0x04\n      dup1\n      calldatasize\n      sub\n      dup2\n      add\n      swap1\n      tag_66\n      swap2\n      swap1\n      tag_67\n      jump\t// in\n    tag_66:\n      tag_68\n      jump\t// in\n    tag_65:\n      mload(0x40)\n      tag_69\n      swap2\n      swap1\n      tag_70\n      jump\t// in\n    tag_69:\n      mload(0x40)\n      dup1\n      swap2\n      sub\n      swap1\n      return\n        /* \"https://github.com/OpenZeppelin/openzeppelin-contracts/blob/master/contracts/access/AccessControl.sol\":4618:4756  function revokeRole(bytes32 role, address account) public virtual onlyRole(getRoleAdmin(role)) {... */\n    tag_15:\n      tag_71\n      0x04\n      dup1\n      calldatasize\n      sub\n      dup2\n      add\n      swap1\n      tag_72\n      swap2\n      swap1\n      tag_38\n      jump\t// in\n    tag_72:\n      tag_73\n      jump\t// in\n    tag_71:\n      stop\n        /* \"src/ClientRegistry.sol\":3303:3758  function latestRecord(... */\n    tag_16:\n      tag_74\n      0x04\n      dup1\n      calldatasize\n      sub\n      dup2\n      add\n      swap1\n      tag_75\n      swap2\n      swap1\n      tag_67\n      jump\t// in\n    tag_75:\n      tag_76\n      jump\t// in\n    tag_74:\n      mload(0x40)\n      tag_77\n      swap5\n      swap4\n      swap3\n      swap2\n      swap1\n      tag_64\n      jump\t// in\n    tag_77:\n      mload(0x40)\n      dup1\n      swap2\n      sub\n      swap1\n      return\n        /* \"https://github.com/OpenZeppelin/openzeppelin-contracts/blob/master/contracts/access/AccessControl.sol\":2541:2743  function supportsInterface(bytes4 interfaceId) public view virtual override returns (bool) {... */\n    tag_23:\n        /* \"https://github.com/OpenZeppelin/openzeppelin-contracts/blob/master/contracts/access/AccessControl.sol\":2626:2630  bool */\n      0x00\n        /* \"https://github.com/OpenZeppelin/openzeppelin-contracts/blob/master/contracts/access/AccessControl.sol\":2664:2696  type(IAccessControl).interfaceId */\n      0x7965db0b00000000000000000000000000000000000000000000000000000000\n        /* \"https://github.com/OpenZeppelin/openzeppelin-contracts/blob/master/contracts/access/AccessControl.sol\":2649:2696  interfaceId == type(IAccessControl).interfaceId */\n      not(0xffffffffffffffffffffffffffffffffffffffffffffffffffffffff)\n      and\n        /* \"https://github.com/OpenZeppelin/openzeppelin-contracts/blob/master/contracts/access/AccessControl.sol\":2649:2660  interfaceId */\n      dup3\n        /* \"https://github.com/OpenZeppelin/openzeppelin-contracts/blob/master/contracts/access/AccessControl.sol\":2649:2696  interfaceId == type(IAccessControl).interfaceId */\n      not(0xffffffffffffffffffffffffffffffffffffffffffffffffffffffff)\n      and\n      eq\n        /* \"https://github.com/OpenZeppelin/openzeppelin-contracts/blob/master/contracts/access/AccessControl.sol\":2649:2736  interfaceId == type(IAccessControl).interfaceId || super.supportsInterface(interfaceId) */\n      dup1\n      tag_79\n      jumpi\n      pop\n        /* \"https://github.com/OpenZeppelin/openzeppelin-contracts/blob/master/contracts/access/AccessControl.sol\":2700:2736  super.supportsInterface(interfaceId) */\n      tag_80\n        /* \"https://github.com/OpenZeppelin/openzeppelin-contracts/blob/master/contracts/access/AccessControl.sol\":2724:2735  interfaceId */\n      dup3\n        /* \"https://github.com/OpenZeppelin/openzeppelin-contracts/blob/master/contracts/access/AccessControl.sol\":2700:2723  super.supportsInterface */\n      tag_81\n        /* \"https://github.com/OpenZeppelin/openzeppelin-contracts/blob/master/contracts/access/AccessControl.sol\":2700:2736  super.supportsInterface(interfaceId) */\n      jump\t// in\n    tag_80:\n        /* \"https://github.com/OpenZeppelin/openzeppelin-contracts/blob/master/contracts/access/AccessControl.sol\":2649:2736  interfaceId == type(IAccessControl).interfaceId || super.supportsInterface(interfaceId) */\n    tag_79:\n        /* \"https://github.com/OpenZeppelin/openzeppelin-contracts/blob/master/contracts/access/AccessControl.sol\":2642:2736  return interfaceId == type(IAccessControl).interfaceId || super.supportsInterface(interfaceId) */\n      swap1\n      pop\n        /* \"https://github.com/OpenZeppelin/openzeppelin-contracts/blob/master/contracts/access/AccessControl.sol\":2541:2743  function supportsInterface(bytes4 interfaceId) public view virtual override returns (bool) {... */\n      swap2\n      swap1\n      pop\n      jump\t// out\n        /* \"src/ClientRegistry.sol\":1938:2416  function registerClient(... */\n    tag_29:\n        /* \"src/ClientRegistry.sol\":1411:1443  hasRole(ISSUER_ROLE, msg.sender) */\n      tag_83\n        /* \"src/ClientRegistry.sol\":488:512  keccak256(\"ISSUER_ROLE\") */\n      0x114e74f6ea3bd819998f78687bfcb11b140da08e9b7d222fa9c1f1ba1f2aa122\n        /* \"src/ClientRegistry.sol\":1432:1442  msg.sender */\n      caller\n        /* \"src/ClientRegistry.sol\":1411:1418  hasRole */\n      tag_54\n        /* \"src/ClientRegistry.sol\":1411:1443  hasRole(ISSUER_ROLE, msg.sender) */\n      jump\t// in\n    tag_83:\n        /* \"src/ClientRegistry.sol\":1390:1508  require(... */\n      tag_84\n      jumpi\n      mload(0x40)\n      0x08c379a000000000000000000000000000000000000000000000000000000000\n      dup2\n      mstore\n      0x04\n      add\n      tag_85\n      swap1\n      tag_86\n      jump\t// in\n    tag_85:\n      mload(0x40)\n      dup1\n      swap2\n      sub\n      swap1\n      revert\n    tag_84:\n        /* \"src/ClientRegistry.sol\":2074:2075  0 */\n      0x00\n        /* \"src/ClientRegistry.sol\":2056:2076  client != address(0) */\n      0xffffffffffffffffffffffffffffffffffffffff\n      and\n        /* \"src/ClientRegistry.sol\":2056:2062  client */\n      dup3\n        /* \"src/ClientRegistry.sol\":2056:2076  client != address(0) */\n      0xffffffffffffffffffffffffffffffffffffffff\n      and\n      sub\n        /* \"src/ClientRegistry.sol\":2048:2119  require(client != address(0), \"ClientRegistry: client is zero address\") */\n      tag_88\n      jumpi\n      mload(0x40)\n      0x08c379a000000000000000000000000000000000000000000000000000000000\n      dup2\n      mstore\n      0x04\n      add\n      tag_89\n      swap1\n      tag_90\n      jump\t// in\n    tag_89:\n      mload(0x40)\n      dup1\n      swap2\n      sub\n      swap1\n      revert\n    tag_88:\n        /* \"src/ClientRegistry.sol\":2129:2144  Record memory r */\n      0x00\n        /* \"src/ClientRegistry.sol\":2147:2297  Record({... */\n      mload(0x40)\n      dup1\n      0x80\n      add\n      0x40\n      mstore\n      dup1\n        /* \"src/ClientRegistry.sol\":2176:2186  msg.sender */\n      caller\n        /* \"src/ClientRegistry.sol\":2147:2297  Record({... */\n      0xffffffffffffffffffffffffffffffffffffffff\n      and\n      dup2\n      mstore\n      0x20\n      add\n        /* \"src/ClientRegistry.sol\":2211:2226  block.timestamp */\n      timestamp\n        /* \"src/ClientRegistry.sol\":2147:2297  Record({... */\n      dup2\n      mstore\n      0x20\n      add\n        /* \"src/ClientRegistry.sol\":2250:2258  dataHash */\n      dup4\n        /* \"src/ClientRegistry.sol\":2147:2297  Record({... */\n      dup2\n      mstore\n      0x20\n      add\n        /* \"src/ClientRegistry.sol\":2281:2286  false */\n      0x00\n        /* \"src/ClientRegistry.sol\":2147:2297  Record({... */\n      iszero\n      iszero\n      dup2\n      mstore\n      pop\n        /* \"src/ClientRegistry.sol\":2129:2297  Record memory r = Record({... */\n      swap1\n      pop\n        /* \"src/ClientRegistry.sol\":2307:2315  _records */\n      0x01\n        /* \"src/ClientRegistry.sol\":2307:2323  _records[client] */\n      0x00\n        /* \"src/ClientRegistry.sol\":2316:2322  client */\n      dup5\n        /* \"src/ClientRegistry.sol\":2307:2323  _records[client] */\n      0xffffffffffffffffffffffffffffffffffffffff\n      and\n      0xffffffffffffffffffffffffffffffffffffffff\n      and\n      dup2\n      mstore\n      0x20\n      add\n      swap1\n      dup2\n      mstore\n      0x20\n      add\n      0x00\n      keccak256\n        /* \"src/ClientRegistry.sol\":2329:2330  r */\n      dup2\n        /* \"src/ClientRegistry.sol\":2307:2331  _records[client].push(r) */\n      swap1\n      dup1\n      0x01\n      dup2\n      sload\n      add\n      dup1\n      dup3\n      sstore\n      dup1\n      swap2\n      pop\n      pop\n      0x01\n      swap1\n      sub\n      swap1\n      0x00\n      mstore\n      keccak256(0x00, 0x20)\n      swap1\n      0x04\n      mul\n      add\n      0x00\n      swap1\n      swap2\n      swap1\n      swap2\n      swap1\n      swap2\n      pop\n      0x00\n      dup3\n      add\n      mload\n      dup2\n      0x00\n      add\n      exp(0x0100, 0x00)\n      dup2\n      sload\n      dup2\n      0xffffffffffffffffffffffffffffffffffffffff\n      mul\n      not\n      and\n      swap1\n      dup4\n      0xffffffffffffffffffffffffffffffffffffffff\n      and\n      mul\n      or\n      swap1\n      sstore\n      pop\n      0x20\n      dup3\n      add\n      mload\n      dup2\n      0x01\n      add\n      sstore\n      0x40\n      dup3\n      add\n      mload\n      dup2\n      0x02\n      add\n      sstore\n      0x60\n      dup3\n      add\n      mload\n      dup2\n      0x03\n      add\n      exp(0x0100, 0x00)\n      dup2\n      sload\n      dup2\n      0xff\n      mul\n      not\n      and\n      swap1\n      dup4\n      iszero\n      iszero\n      mul\n      or\n      swap1\n      sstore\n      pop\n      pop\n      pop\n        /* \"src/ClientRegistry.sol\":2371:2381  msg.sender */\n      caller\n        /* \"src/ClientRegistry.sol\":2346:2409  ClientRegistered(client, msg.sender, dataHash, block.timestamp) */\n      0xffffffffffffffffffffffffffffffffffffffff\n      and\n        /* \"src/ClientRegistry.sol\":2363:2369  client */\n      dup4\n        /* \"src/ClientRegistry.sol\":2346:2409  ClientRegistered(client, msg.sender, dataHash, block.timestamp) */\n      0xffffffffffffffffffffffffffffffffffffffff\n      and\n      0x37aa684287f2c7aab9feb2a3d555c05cb051f1612973da386bfc549402095545\n        /* \"src/ClientRegistry.sol\":2383:2391  dataHash */\n      dup5\n        /* \"src/ClientRegistry.sol\":2393:2408  block.timestamp */\n      timestamp\n        /* \"src/ClientRegistry.sol\":2346:2409  ClientRegistered(client, msg.sender, dataHash, block.timestamp) */\n      mload(0x40)\n      tag_92\n      swap3\n      swap2\n      swap1\n      tag_93\n      jump\t// in\n    tag_92:\n      mload(0x40)\n      dup1\n      swap2\n      sub\n      swap1\n      log3\n        /* \"src/ClientRegistry.sol\":2038:2416  {... */\n      pop\n        /* \"src/ClientRegistry.sol\":1938:2416  function registerClient(... */\n      pop\n      pop\n      jump\t// out\n        /* \"https://github.com/OpenZeppelin/openzeppelin-contracts/blob/master/contracts/access/AccessControl.sol\":3786:3906  function getRoleAdmin(bytes32 role) public view virtual returns (bytes32) {... */\n    tag_33:\n        /* \"https://github.com/OpenZeppelin/openzeppelin-contracts/blob/master/contracts/access/AccessControl.sol\":3851:3858  bytes32 */\n      0x00\n        /* \"https://github.com/OpenZeppelin/openzeppelin-contracts/blob/master/contracts/access/AccessControl.sol\":3877:3883  _roles */\n      0x00\n        /* \"https://github.com/OpenZeppelin/openzeppelin-contracts/blob/master/contracts/access/AccessControl.sol\":3877:3889  _roles[role] */\n      0x00\n        /* \"https://github.com/OpenZeppelin/openzeppelin-contracts/blob/master/contracts/access/AccessControl.sol\":3884:3888  role */\n      dup4\n        /* \"https://github.com/OpenZeppelin/openzeppelin-contracts/blob/master/contracts/access/AccessControl.sol\":3877:3889  _roles[role] */\n      dup2\n      mstore\n      0x20\n      add\n      swap1\n      dup2\n      mstore\n      0x20\n      add\n      0x00\n      keccak256\n        /* \"https://github.com/OpenZeppelin/openzeppelin-contracts/blob/master/contracts/access/AccessControl.sol\":3877:3899  _roles[role].adminRole */\n      0x01\n      add\n      sload\n        /* \"https://github.com/OpenZeppelin/openzeppelin-contracts/blob/master/contracts/access/AccessControl.sol\":3870:3899  return _roles[role].adminRole */\n      swap1\n      pop\n        /* \"https://github.com/OpenZeppelin/openzeppelin-contracts/blob/master/contracts/access/AccessControl.sol\":3786:3906  function getRoleAdmin(bytes32 role) public view virtual returns (bytes32) {... */\n      swap2\n      swap1\n      pop\n      jump\t// out\n        /* \"https://github.com/OpenZeppelin/openzeppelin-contracts/blob/master/contracts/access/AccessControl.sol\":4202:4338  function grantRole(bytes32 role, address account) public virtual onlyRole(getRoleAdmin(role)) {... */\n    tag_39:\n        /* \"https://github.com/OpenZeppelin/openzeppelin-contracts/blob/master/contracts/access/AccessControl.sol\":4276:4294  getRoleAdmin(role) */\n      tag_95\n        /* \"https://github.com/OpenZeppelin/openzeppelin-contracts/blob/master/contracts/access/AccessControl.sol\":4289:4293  role */\n      dup3\n        /* \"https://github.com/OpenZeppelin/openzeppelin-contracts/blob/master/contracts/access/AccessControl.sol\":4276:4288  getRoleAdmin */\n      tag_33\n        /* \"https://github.com/OpenZeppelin/openzeppelin-contracts/blob/master/contracts/access/AccessControl.sol\":4276:4294  getRoleAdmin(role) */\n      jump\t// in\n    tag_95:\n        /* \"https://github.com/OpenZeppelin/openzeppelin-contracts/blob/master/contracts/access/AccessControl.sol\":2473:2489  _checkRole(role) */\n      tag_97\n        /* \"https://github.com/OpenZeppelin/openzeppelin-contracts/blob/master/contracts/access/AccessControl.sol\":2484:2488  role */\n      dup2\n        /* \"https://github.com/OpenZeppelin/openzeppelin-contracts/blob/master/contracts/access/AccessControl.sol\":2473:2483  _checkRole */\n      tag_98\n        /* \"https://github.com/OpenZeppelin/openzeppelin-contracts/blob/master/contracts/access/AccessControl.sol\":2473:2489  _checkRole(role) */\n      jump\t// in\n    tag_97:\n        /* \"https://github.com/OpenZeppelin/openzeppelin-contracts/blob/master/contracts/access/AccessControl.sol\":4306:4331  _grantRole(role, account) */\n      tag_100\n        /* \"https://github.com/OpenZeppelin/openzeppelin-contracts/blob/master/contracts/access/AccessControl.sol\":4317:4321  role */\n      dup4\n        /* \"https://github.com/OpenZeppelin/openzeppelin-contracts/blob/master/contracts/access/AccessControl.sol\":4323:4330  account */\n      dup4\n        /* \"https://github.com/OpenZeppelin/openzeppelin-contracts/blob/master/contracts/access/AccessControl.sol\":4306:4316  _grantRole */\n      tag_101\n        /* \"https://github.com/OpenZeppelin/openzeppelin-contracts/blob/master/contracts/access/AccessControl.sol\":4306:4331  _grantRole(role, account) */\n      jump\t// in\n    tag_100:\n      pop\n        /* \"https://github.com/OpenZeppelin/openzeppelin-contracts/blob/master/contracts/access/AccessControl.sol\":4202:4338  function grantRole(bytes32 role, address account) public virtual onlyRole(getRoleAdmin(role)) {... */\n      pop\n      pop\n      pop\n      jump\t// out\n        /* \"https://github.com/OpenZeppelin/openzeppelin-contracts/blob/master/contracts/access/AccessControl.sol\":5304:5549  function renounceRole(bytes32 role, address callerConfirmation) public virtual {... */\n    tag_42:\n        /* \"https://github.com/OpenZeppelin/openzeppelin-contracts/blob/master/contracts/access/AccessControl.sol\":5419:5431  _msgSender() */\n      tag_103\n        /* \"https://github.com/OpenZeppelin/openzeppelin-contracts/blob/master/contracts/access/AccessControl.sol\":5419:5429  _msgSender */\n      tag_104\n        /* \"https://github.com/OpenZeppelin/openzeppelin-contracts/blob/master/contracts/access/AccessControl.sol\":5419:5431  _msgSender() */\n      jump\t// in\n    tag_103:\n        /* \"https://github.com/OpenZeppelin/openzeppelin-contracts/blob/master/contracts/access/AccessControl.sol\":5397:5431  callerConfirmation != _msgSender() */\n      0xffffffffffffffffffffffffffffffffffffffff\n      and\n        /* \"https://github.com/OpenZeppelin/openzeppelin-contracts/blob/master/contracts/access/AccessControl.sol\":5397:5415  callerConfirmation */\n      dup2\n        /* \"https://github.com/OpenZeppelin/openzeppelin-contracts/blob/master/contracts/access/AccessControl.sol\":5397:5431  callerConfirmation != _msgSender() */\n      0xffffffffffffffffffffffffffffffffffffffff\n      and\n      eq\n        /* \"https://github.com/OpenZeppelin/openzeppelin-contracts/blob/master/contracts/access/AccessControl.sol\":5393:5495  if (callerConfirmation != _msgSender()) {... */\n      tag_105\n      jumpi\n        /* \"https://github.com/OpenZeppelin/openzeppelin-contracts/blob/master/contracts/access/AccessControl.sol\":5454:5484  AccessControlBadConfirmation() */\n      mload(0x40)\n      0x6697b23200000000000000000000000000000000000000000000000000000000\n      dup2\n      mstore\n      0x04\n      add\n      mload(0x40)\n      dup1\n      swap2\n      sub\n      swap1\n      revert\n        /* \"https://github.com/OpenZeppelin/openzeppelin-contracts/blob/master/contracts/access/AccessControl.sol\":5393:5495  if (callerConfirmation != _msgSender()) {... */\n    tag_105:\n        /* \"https://github.com/OpenZeppelin/openzeppelin-contracts/blob/master/contracts/access/AccessControl.sol\":5505:5542  _revokeRole(role, callerConfirmation) */\n      tag_106\n        /* \"https://github.com/OpenZeppelin/openzeppelin-contracts/blob/master/contracts/access/AccessControl.sol\":5517:5521  role */\n      dup3\n        /* \"https://github.com/OpenZeppelin/openzeppelin-contracts/blob/master/contracts/access/AccessControl.sol\":5523:5541  callerConfirmation */\n      dup3\n        /* \"https://github.com/OpenZeppelin/openzeppelin-contracts/blob/master/contracts/access/AccessControl.sol\":5505:5516  _revokeRole */\n      tag_107\n        /* \"https://github.com/OpenZeppelin/openzeppelin-contracts/blob/master/contracts/access/AccessControl.sol\":5505:5542  _revokeRole(role, callerConfirmation) */\n      jump\t// in\n    tag_106:\n      pop\n        /* \"https://github.com/OpenZeppelin/openzeppelin-contracts/blob/master/contracts/access/AccessControl.sol\":5304:5549  function renounceRole(bytes32 role, address callerConfirmation) public virtual {... */\n      pop\n      pop\n      jump\t// out\n        /* \"src/ClientRegistry.sol\":2572:3063  function revokeLatest(... */\n    tag_45:\n        /* \"src/ClientRegistry.sol\":1586:1619  hasRole(REVOKER_ROLE, msg.sender) */\n      tag_109\n        /* \"src/ClientRegistry.sol\":557:582  keccak256(\"REVOKER_ROLE\") */\n      0xce3f34913921da558f105cefb578d87278debbbd073a8d552b5de0d168deee30\n        /* \"src/ClientRegistry.sol\":1608:1618  msg.sender */\n      caller\n        /* \"src/ClientRegistry.sol\":1586:1593  hasRole */\n      tag_54\n        /* \"src/ClientRegistry.sol\":1586:1619  hasRole(REVOKER_ROLE, msg.sender) */\n      jump\t// in\n    tag_109:\n        /* \"src/ClientRegistry.sol\":1565:1684  require(... */\n      tag_110\n      jumpi\n      mload(0x40)\n      0x08c379a000000000000000000000000000000000000000000000000000000000\n      dup2\n      mstore\n      0x04\n      add\n      tag_111\n      swap1\n      tag_112\n      jump\t// in\n    tag_111:\n      mload(0x40)\n      dup1\n      swap2\n      sub\n      swap1\n      revert\n    tag_110:\n        /* \"src/ClientRegistry.sol\":2681:2692  uint256 len */\n      0x00\n        /* \"src/ClientRegistry.sol\":2695:2703  _records */\n      0x01\n        /* \"src/ClientRegistry.sol\":2695:2711  _records[client] */\n      0x00\n        /* \"src/ClientRegistry.sol\":2704:2710  client */\n      dup5\n        /* \"src/ClientRegistry.sol\":2695:2711  _records[client] */\n      0xffffffffffffffffffffffffffffffffffffffff\n      and\n      0xffffffffffffffffffffffffffffffffffffffff\n      and\n      dup2\n      mstore\n      0x20\n      add\n      swap1\n      dup2\n      mstore\n      0x20\n      add\n      0x00\n      keccak256\n        /* \"src/ClientRegistry.sol\":2695:2718  _records[client].length */\n      dup1\n      sload\n      swap1\n      pop\n        /* \"src/ClientRegistry.sol\":2681:2718  uint256 len = _records[client].length */\n      swap1\n      pop\n        /* \"src/ClientRegistry.sol\":2742:2743  0 */\n      0x00\n        /* \"src/ClientRegistry.sol\":2736:2739  len */\n      dup2\n        /* \"src/ClientRegistry.sol\":2736:2743  len > 0 */\n      gt\n        /* \"src/ClientRegistry.sol\":2728:2774  require(len > 0, \"ClientRegistry: no records\") */\n      tag_114\n      jumpi\n      mload(0x40)\n      0x08c379a000000000000000000000000000000000000000000000000000000000\n      dup2\n      mstore\n      0x04\n      add\n      tag_115\n      swap1\n      tag_116\n      jump\t// in\n    tag_115:\n      mload(0x40)\n      dup1\n      swap2\n      sub\n      swap1\n      revert\n    tag_114:\n        /* \"src/ClientRegistry.sol\":2784:2805  Record storage latest */\n      0x00\n        /* \"src/ClientRegistry.sol\":2808:2816  _records */\n      0x01\n        /* \"src/ClientRegistry.sol\":2808:2824  _records[client] */\n      0x00\n        /* \"src/ClientRegistry.sol\":2817:2823  client */\n      dup6\n        /* \"src/ClientRegistry.sol\":2808:2824  _records[client] */\n      0xffffffffffffffffffffffffffffffffffffffff\n      and\n      0xffffffffffffffffffffffffffffffffffffffff\n      and\n      dup2\n      mstore\n      0x20\n      add\n      swap1\n      dup2\n      mstore\n      0x20\n      add\n      0x00\n      keccak256\n        /* \"src/ClientRegistry.sol\":2831:2832  1 */\n      0x01\n        /* \"src/ClientRegistry.sol\":2825:2828  len */\n      dup4\n        /* \"src/ClientRegistry.sol\":2825:2832  len - 1 */\n      tag_117\n      swap2\n      swap1\n      tag_118\n      jump\t// in\n    tag_117:\n        /* \"src/ClientRegistry.sol\":2808:2833  _records[client][len - 1] */\n      dup2\n      sload\n      dup2\n      lt\n      tag_119\n      jumpi\n      tag_120\n      tag_121\n      jump\t// in\n    tag_120:\n    tag_119:\n      swap1\n      0x00\n      mstore\n      keccak256(0x00, 0x20)\n      swap1\n      0x04\n      mul\n      add\n        /* \"src/ClientRegistry.sol\":2784:2833  Record storage latest = _records[client][len - 1] */\n      swap1\n      pop\n        /* \"src/ClientRegistry.sol\":2883:2891  dataHash */\n      dup3\n        /* \"src/ClientRegistry.sol\":2864:2870  latest */\n      dup2\n        /* \"src/ClientRegistry.sol\":2864:2879  latest.dataHash */\n      0x02\n      add\n      sload\n        /* \"src/ClientRegistry.sol\":2864:2891  latest.dataHash == dataHash */\n      eq\n        /* \"src/ClientRegistry.sol\":2843:2950  require(... */\n      tag_123\n      jumpi\n      mload(0x40)\n      0x08c379a000000000000000000000000000000000000000000000000000000000\n      dup2\n      mstore\n      0x04\n      add\n      tag_124\n      swap1\n      tag_125\n      jump\t// in\n    tag_124:\n      mload(0x40)\n      dup1\n      swap2\n      sub\n      swap1\n      revert\n    tag_123:\n        /* \"src/ClientRegistry.sol\":2977:2981  true */\n      0x01\n        /* \"src/ClientRegistry.sol\":2960:2966  latest */\n      dup2\n        /* \"src/ClientRegistry.sol\":2960:2974  latest.revoked */\n      0x03\n      add\n      0x00\n        /* \"src/ClientRegistry.sol\":2960:2981  latest.revoked = true */\n      0x0100\n      exp\n      dup2\n      sload\n      dup2\n      0xff\n      mul\n      not\n      and\n      swap1\n      dup4\n      iszero\n      iszero\n      mul\n      or\n      swap1\n      sstore\n      pop\n        /* \"src/ClientRegistry.sol\":3018:3028  msg.sender */\n      caller\n        /* \"src/ClientRegistry.sol\":2996:3056  ClientRevoked(client, msg.sender, dataHash, block.timestamp) */\n      0xffffffffffffffffffffffffffffffffffffffff\n      and\n        /* \"src/ClientRegistry.sol\":3010:3016  client */\n      dup5\n        /* \"src/ClientRegistry.sol\":2996:3056  ClientRevoked(client, msg.sender, dataHash, block.timestamp) */\n      0xffffffffffffffffffffffffffffffffffffffff\n      and\n      0x0a55bc03c911eb5e112898a2734cb88a312466be1703595eacd2545325088540\n        /* \"src/ClientRegistry.sol\":3030:3038  dataHash */\n      dup6\n        /* \"src/ClientRegistry.sol\":3040:3055  block.timestamp */\n      timestamp\n        /* \"src/ClientRegistry.sol\":2996:3056  ClientRevoked(client, msg.sender, dataHash, block.timestamp) */\n      mload(0x40)\n      tag_126\n      swap3\n      swap2\n      swap1\n      tag_93\n      jump\t// in\n    tag_126:\n      mload(0x40)\n      dup1\n      swap2\n      sub\n      swap1\n      log3\n        /* \"src/ClientRegistry.sol\":2671:3063  {... */\n      pop\n      pop\n        /* \"src/ClientRegistry.sol\":2572:3063  function revokeLatest(... */\n      pop\n      pop\n      jump\t// out\n        /* \"src/ClientRegistry.sol\":518:582  bytes32 public constant REVOKER_ROLE = keccak256(\"REVOKER_ROLE\") */\n    tag_47:\n        /* \"src/ClientRegistry.sol\":557:582  keccak256(\"REVOKER_ROLE\") */\n      0xce3f34913921da558f105cefb578d87278debbbd073a8d552b5de0d168deee30\n        /* \"src/ClientRegistry.sol\":518:582  bytes32 public constant REVOKER_ROLE = keccak256(\"REVOKER_ROLE\") */\n      dup2\n      jump\t// out\n        /* \"src/ClientRegistry.sol\":450:512  bytes32 public constant ISSUER_ROLE = keccak256(\"ISSUER_ROLE\") */\n    tag_50:\n        /* \"src/ClientRegistry.sol\":488:512  keccak256(\"ISSUER_ROLE\") */\n      0x114e74f6ea3bd819998f78687bfcb11b140da08e9b7d222fa9c1f1ba1f2aa122\n        /* \"src/ClientRegistry.sol\":450:512  bytes32 public constant ISSUER_ROLE = keccak256(\"ISSUER_ROLE\") */\n      dup2\n      jump\t// out\n        /* \"https://github.com/OpenZeppelin/openzeppelin-contracts/blob/master/contracts/access/AccessControl.sol\":2830:2966  function hasRole(bytes32 role, address account) public view virtual returns (bool) {... */\n    tag_54:\n        /* \"https://github.com/OpenZeppelin/openzeppelin-contracts/blob/master/contracts/access/AccessControl.sol\":2907:2911  bool */\n      0x00\n        /* \"https://github.com/OpenZeppelin/openzeppelin-contracts/blob/master/contracts/access/AccessControl.sol\":2930:2936  _roles */\n      0x00\n        /* \"https://github.com/OpenZeppelin/openzeppelin-contracts/blob/master/contracts/access/AccessControl.sol\":2930:2942  _roles[role] */\n      0x00\n        /* \"https://github.com/OpenZeppelin/openzeppelin-contracts/blob/master/contracts/access/AccessControl.sol\":2937:2941  role */\n      dup5\n        /* \"https://github.com/OpenZeppelin/openzeppelin-contracts/blob/master/contracts/access/AccessControl.sol\":2930:2942  _roles[role] */\n      dup2\n      mstore\n      0x20\n      add\n      swap1\n      dup2\n      mstore\n      0x20\n      add\n      0x00\n      keccak256\n        /* \"https://github.com/OpenZeppelin/openzeppelin-contracts/blob/master/contracts/access/AccessControl.sol\":2930:2950  _roles[role].hasRole */\n      0x00\n      add\n        /* \"https://github.com/OpenZeppelin/openzeppelin-contracts/blob/master/contracts/access/AccessControl.sol\":2930:2959  _roles[role].hasRole[account] */\n      0x00\n        /* \"https://github.com/OpenZeppelin/openzeppelin-contracts/blob/master/contracts/access/AccessControl.sol\":2951:2958  account */\n      dup4\n        /* \"https://github.com/OpenZeppelin/openzeppelin-contracts/blob/master/contracts/access/AccessControl.sol\":2930:2959  _roles[role].hasRole[account] */\n      0xffffffffffffffffffffffffffffffffffffffff\n      and\n      0xffffffffffffffffffffffffffffffffffffffff\n      and\n      dup2\n      mstore\n      0x20\n      add\n      swap1\n      dup2\n      mstore\n      0x20\n      add\n      0x00\n      keccak256\n      0x00\n      swap1\n      sload\n      swap1\n      0x0100\n      exp\n      swap1\n      div\n      0xff\n      and\n        /* \"https://github.com/OpenZeppelin/openzeppelin-contracts/blob/master/contracts/access/AccessControl.sol\":2923:2959  return _roles[role].hasRole[account] */\n      swap1\n      pop\n        /* \"https://github.com/OpenZeppelin/openzeppelin-contracts/blob/master/contracts/access/AccessControl.sol\":2830:2966  function hasRole(bytes32 role, address account) public view virtual returns (bool) {... */\n      swap3\n      swap2\n      pop\n      pop\n      jump\t// out\n        /* \"https://github.com/OpenZeppelin/openzeppelin-contracts/blob/master/contracts/access/AccessControl.sol\":2196:2245  bytes32 public constant DEFAULT_ADMIN_ROLE = 0x00 */\n    tag_57:\n        /* \"https://github.com/OpenZeppelin/openzeppelin-contracts/blob/master/contracts/access/AccessControl.sol\":2241:2245  0x00 */\n      0x00\n        /* \"https://github.com/OpenZeppelin/openzeppelin-contracts/blob/master/contracts/access/AccessControl.sol\":2196:2245  bytes32 public constant DEFAULT_ADMIN_ROLE = 0x00 */\n      0x00\n      shl\n      dup2\n      jump\t// out\n        /* \"src/ClientRegistry.sol\":3828:4276  function recordAt(... */\n    tag_62:\n        /* \"src/ClientRegistry.sol\":3959:3973  address issuer */\n      0x00\n        /* \"src/ClientRegistry.sol\":3987:4004  uint256 timestamp */\n      0x00\n        /* \"src/ClientRegistry.sol\":4018:4034  bytes32 dataHash */\n      0x00\n        /* \"src/ClientRegistry.sol\":4048:4060  bool revoked */\n      0x00\n        /* \"src/ClientRegistry.sol\":4101:4109  _records */\n      0x01\n        /* \"src/ClientRegistry.sol\":4101:4117  _records[client] */\n      0x00\n        /* \"src/ClientRegistry.sol\":4110:4116  client */\n      dup8\n        /* \"src/ClientRegistry.sol\":4101:4117  _records[client] */\n      0xffffffffffffffffffffffffffffffffffffffff\n      and\n      0xffffffffffffffffffffffffffffffffffffffff\n      and\n      dup2\n      mstore\n      0x20\n      add\n      swap1\n      dup2\n      mstore\n      0x20\n      add\n      0x00\n      keccak256\n        /* \"src/ClientRegistry.sol\":4101:4124  _records[client].length */\n      dup1\n      sload\n      swap1\n      pop\n        /* \"src/ClientRegistry.sol\":4093:4098  index */\n      dup6\n        /* \"src/ClientRegistry.sol\":4093:4124  index < _records[client].length */\n      lt\n        /* \"src/ClientRegistry.sol\":4085:4154  require(index < _records[client].length, \"ClientRegistry: index OOB\") */\n      tag_129\n      jumpi\n      mload(0x40)\n      0x08c379a000000000000000000000000000000000000000000000000000000000\n      dup2\n      mstore\n      0x04\n      add\n      tag_130\n      swap1\n      tag_131\n      jump\t// in\n    tag_130:\n      mload(0x40)\n      dup1\n      swap2\n      sub\n      swap1\n      revert\n    tag_129:\n        /* \"src/ClientRegistry.sol\":4164:4180  Record storage r */\n      0x00\n        /* \"src/ClientRegistry.sol\":4183:4191  _records */\n      0x01\n        /* \"src/ClientRegistry.sol\":4183:4199  _records[client] */\n      0x00\n        /* \"src/ClientRegistry.sol\":4192:4198  client */\n      dup9\n        /* \"src/ClientRegistry.sol\":4183:4199  _records[client] */\n      0xffffffffffffffffffffffffffffffffffffffff\n      and\n      0xffffffffffffffffffffffffffffffffffffffff\n      and\n      dup2\n      mstore\n      0x20\n      add\n      swap1\n      dup2\n      mstore\n      0x20\n      add\n      0x00\n      keccak256\n        /* \"src/ClientRegistry.sol\":4200:4205  index */\n      dup7\n        /* \"src/ClientRegistry.sol\":4183:4206  _records[client][index] */\n      dup2\n      sload\n      dup2\n      lt\n      tag_132\n      jumpi\n      tag_133\n      tag_121\n      jump\t// in\n    tag_133:\n    tag_132:\n      swap1\n      0x00\n      mstore\n      keccak256(0x00, 0x20)\n      swap1\n      0x04\n      mul\n      add\n        /* \"src/ClientRegistry.sol\":4164:4206  Record storage r = _records[client][index] */\n      swap1\n      pop\n        /* \"src/ClientRegistry.sol\":4224:4225  r */\n      dup1\n        /* \"src/ClientRegistry.sol\":4224:4232  r.issuer */\n      0x00\n      add\n      0x00\n      swap1\n      sload\n      swap1\n      0x0100\n      exp\n      swap1\n      div\n      0xffffffffffffffffffffffffffffffffffffffff\n      and\n        /* \"src/ClientRegistry.sol\":4234:4235  r */\n      dup2\n        /* \"src/ClientRegistry.sol\":4234:4245  r.timestamp */\n      0x01\n      add\n      sload\n        /* \"src/ClientRegistry.sol\":4247:4248  r */\n      dup3\n        /* \"src/ClientRegistry.sol\":4247:4257  r.dataHash */\n      0x02\n      add\n      sload\n        /* \"src/ClientRegistry.sol\":4259:4260  r */\n      dup4\n        /* \"src/ClientRegistry.sol\":4259:4268  r.revoked */\n      0x03\n      add\n      0x00\n      swap1\n      sload\n      swap1\n      0x0100\n      exp\n      swap1\n      div\n      0xff\n      and\n        /* \"src/ClientRegistry.sol\":4216:4269  return (r.issuer, r.timestamp, r.dataHash, r.revoked) */\n      swap5\n      pop\n      swap5\n      pop\n      swap5\n      pop\n      swap5\n      pop\n      pop\n        /* \"src/ClientRegistry.sol\":3828:4276  function recordAt(... */\n      swap3\n      swap6\n      swap2\n      swap5\n      pop\n      swap3\n      pop\n      jump\t// out\n        /* \"src/ClientRegistry.sol\":3127:3243  function recordCount(address client) external view returns (uint256) {... */\n    tag_68:\n        /* \"src/ClientRegistry.sol\":3187:3194  uint256 */\n      0x00\n        /* \"src/ClientRegistry.sol\":3213:3221  _records */\n      0x01\n        /* \"src/ClientRegistry.sol\":3213:3229  _records[client] */\n      0x00\n        /* \"src/ClientRegistry.sol\":3222:3228  client */\n      dup4\n        /* \"src/ClientRegistry.sol\":3213:3229  _records[client] */\n      0xffffffffffffffffffffffffffffffffffffffff\n      and\n      0xffffffffffffffffffffffffffffffffffffffff\n      and\n      dup2\n      mstore\n      0x20\n      add\n      swap1\n      dup2\n      mstore\n      0x20\n      add\n      0x00\n      keccak256\n        /* \"src/ClientRegistry.sol\":3213:3236  _records[client].length */\n      dup1\n      sload\n      swap1\n      pop\n        /* \"src/ClientRegistry.sol\":3206:3236  return _records[client].length */\n      swap1\n      pop\n        /* \"src/ClientRegistry.sol\":3127:3243  function recordCount(address client) external view returns (uint256) {... */\n      swap2\n      swap1\n      pop\n      jump\t// out\n        /* \"https://github.com/OpenZeppelin/openzeppelin-contracts/blob/master/contracts/access/AccessControl.sol\":4618:4756  function revokeRole(bytes32 role, address account) public virtual onlyRole(getRoleAdmin(role)) {... */\n    tag_73:\n        /* \"https://github.com/OpenZeppelin/openzeppelin-contracts/blob/master/contracts/access/AccessControl.sol\":4693:4711  getRoleAdmin(role) */\n      tag_136\n        /* \"https://github.com/OpenZeppelin/openzeppelin-contracts/blob/master/contracts/access/AccessControl.sol\":4706:4710  role */\n      dup3\n        /* \"https://github.com/OpenZeppelin/openzeppelin-contracts/blob/master/contracts/access/AccessControl.sol\":4693:4705  getRoleAdmin */\n      tag_33\n        /* \"https://github.com/OpenZeppelin/openzeppelin-contracts/blob/master/contracts/access/AccessControl.sol\":4693:4711  getRoleAdmin(role) */\n      jump\t// in\n    tag_136:\n        /* \"https://github.com/OpenZeppelin/openzeppelin-contracts/blob/master/contracts/access/AccessControl.sol\":2473:2489  _checkRole(role) */\n      tag_138\n        /* \"https://github.com/OpenZeppelin/openzeppelin-contracts/blob/master/contracts/access/AccessControl.sol\":2484:2488  role */\n      dup2\n        /* \"https://github.com/OpenZeppelin/openzeppelin-contracts/blob/master/contracts/access/AccessControl.sol\":2473:2483  _checkRole */\n      tag_98\n        /* \"https://github.com/OpenZeppelin/openzeppelin-contracts/blob/master/contracts/access/AccessControl.sol\":2473:2489  _checkRole(role) */\n      jump\t// in\n    tag_138:\n        /* \"https://github.com/OpenZeppelin/openzeppelin-contracts/blob/master/contracts/access/AccessControl.sol\":4723:4749  _revokeRole(role, account) */\n      tag_140\n        /* \"https://github.com/OpenZeppelin/openzeppelin-contracts/blob/master/contracts/access/AccessControl.sol\":4735:4739  role */\n      dup4\n        /* \"https://github.com/OpenZeppelin/openzeppelin-contracts/blob/master/contracts/access/AccessControl.sol\":4741:4748  account */\n      dup4\n        /* \"https://github.com/OpenZeppelin/openzeppelin-contracts/blob/master/contracts/access/AccessControl.sol\":4723:4734  _revokeRole */\n      tag_107\n        /* \"https://github.com/OpenZeppelin/openzeppelin-contracts/blob/master/contracts/access/AccessControl.sol\":4723:4749  _revokeRole(role, account) */\n      jump\t// in\n    tag_140:\n      pop\n        /* \"https://github.com/OpenZeppelin/openzeppelin-contracts/blob/master/contracts/access/AccessControl.sol\":4618:4756  function revokeRole(bytes32 role, address account) public virtual onlyRole(getRoleAdmin(role)) {... */\n      pop\n      pop\n      pop\n      jump\t// out\n        /* \"src/ClientRegistry.sol\":3303:3758  function latestRecord(... */\n    tag_76:\n        /* \"src/ClientRegistry.sol\":3415:3429  address issuer */\n      0x00\n        /* \"src/ClientRegistry.sol\":3443:3460  uint256 timestamp */\n      0x00\n        /* \"src/ClientRegistry.sol\":3474:3490  bytes32 dataHash */\n      0x00\n        /* \"src/ClientRegistry.sol\":3504:3516  bool revoked */\n      0x00\n        /* \"src/ClientRegistry.sol\":3541:3552  uint256 len */\n      0x00\n        /* \"src/ClientRegistry.sol\":3555:3563  _records */\n      0x01\n        /* \"src/ClientRegistry.sol\":3555:3571  _records[client] */\n      0x00\n        /* \"src/ClientRegistry.sol\":3564:3570  client */\n      dup8\n        /* \"src/ClientRegistry.sol\":3555:3571  _records[client] */\n      0xffffffffffffffffffffffffffffffffffffffff\n      and\n      0xffffffffffffffffffffffffffffffffffffffff\n      and\n      dup2\n      mstore\n      0x20\n      add\n      swap1\n      dup2\n      mstore\n      0x20\n      add\n      0x00\n      keccak256\n        /* \"src/ClientRegistry.sol\":3555:3578  _records[client].length */\n      dup1\n      sload\n      swap1\n      pop\n        /* \"src/ClientRegistry.sol\":3541:3578  uint256 len = _records[client].length */\n      swap1\n      pop\n        /* \"src/ClientRegistry.sol\":3602:3603  0 */\n      0x00\n        /* \"src/ClientRegistry.sol\":3596:3599  len */\n      dup2\n        /* \"src/ClientRegistry.sol\":3596:3603  len > 0 */\n      gt\n        /* \"src/ClientRegistry.sol\":3588:3634  require(len > 0, \"ClientRegistry: no records\") */\n      tag_142\n      jumpi\n      mload(0x40)\n      0x08c379a000000000000000000000000000000000000000000000000000000000\n      dup2\n      mstore\n      0x04\n      add\n      tag_143\n      swap1\n      tag_116\n      jump\t// in\n    tag_143:\n      mload(0x40)\n      dup1\n      swap2\n      sub\n      swap1\n      revert\n    tag_142:\n        /* \"src/ClientRegistry.sol\":3644:3660  Record storage r */\n      0x00\n        /* \"src/ClientRegistry.sol\":3663:3671  _records */\n      0x01\n        /* \"src/ClientRegistry.sol\":3663:3679  _records[client] */\n      0x00\n        /* \"src/ClientRegistry.sol\":3672:3678  client */\n      dup9\n        /* \"src/ClientRegistry.sol\":3663:3679  _records[client] */\n      0xffffffffffffffffffffffffffffffffffffffff\n      and\n      0xffffffffffffffffffffffffffffffffffffffff\n      and\n      dup2\n      mstore\n      0x20\n      add\n      swap1\n      dup2\n      mstore\n      0x20\n      add\n      0x00\n      keccak256\n        /* \"src/ClientRegistry.sol\":3686:3687  1 */\n      0x01\n        /* \"src/ClientRegistry.sol\":3680:3683  len */\n      dup4\n        /* \"src/ClientRegistry.sol\":3680:3687  len - 1 */\n      tag_144\n      swap2\n      swap1\n      tag_118\n      jump\t// in\n    tag_144:\n        /* \"src/ClientRegistry.sol\":3663:3688  _records[client][len - 1] */\n      dup2\n      sload\n      dup2\n      lt\n      tag_145\n      jumpi\n      tag_146\n      tag_121\n      jump\t// in\n    tag_146:\n    tag_145:\n      swap1\n      0x00\n      mstore\n      keccak256(0x00, 0x20)\n      swap1\n      0x04\n      mul\n      add\n        /* \"src/ClientRegistry.sol\":3644:3688  Record storage r = _records[client][len - 1] */\n      swap1\n      pop\n        /* \"src/ClientRegistry.sol\":3706:3707  r */\n      dup1\n        /* \"src/ClientRegistry.sol\":3706:3714  r.issuer */\n      0x00\n      add\n      0x00\n      swap1\n      sload\n      swap1\n      0x0100\n      exp\n      swap1\n      div\n      0xffffffffffffffffffffffffffffffffffffffff\n      and\n        /* \"src/ClientRegistry.sol\":3716:3717  r */\n      dup2\n        /* \"src/ClientRegistry.sol\":3716:3727  r.timestamp */\n      0x01\n      add\n      sload\n        /* \"src/ClientRegistry.sol\":3729:3730  r */\n      dup3\n        /* \"src/ClientRegistry.sol\":3729:3739  r.dataHash */\n      0x02\n      add\n      sload\n        /* \"src/ClientRegistry.sol\":3741:3742  r */\n      dup4\n        /* \"src/ClientRegistry.sol\":3741:3750  r.revoked */\n      0x03\n      add\n      0x00\n      swap1\n      sload\n      swap1\n      0x0100\n      exp\n      swap1\n      div\n      0xff\n      and\n        /* \"src/ClientRegistry.sol\":3698:3751  return (r.issuer, r.timestamp, r.dataHash, r.revoked) */\n      swap6\n      pop\n      swap6\n      pop\n      swap6\n      pop\n      swap6\n      pop\n      pop\n      pop\n        /* \"src/ClientRegistry.sol\":3303:3758  function latestRecord(... */\n      swap2\n      swap4\n      pop\n      swap2\n      swap4\n      jump\t// out\n        /* \"https://github.com/OpenZeppelin/openzeppelin-contracts/blob/master/contracts/utils/introspection/ERC165.sol\":730:876  function supportsInterface(bytes4 interfaceId) public view virtual returns (bool) {... */\n    tag_81:\n        /* \"https://github.com/OpenZeppelin/openzeppelin-contracts/blob/master/contracts/utils/introspection/ERC165.sol\":806:810  bool */\n      0x00\n        /* \"https://github.com/OpenZeppelin/openzeppelin-contracts/blob/master/contracts/utils/introspection/ERC165.sol\":844:869  type(IERC165).interfaceId */\n      0x01ffc9a700000000000000000000000000000000000000000000000000000000\n        /* \"https://github.com/OpenZeppelin/openzeppelin-contracts/blob/master/contracts/utils/introspection/ERC165.sol\":829:869  interfaceId == type(IERC165).interfaceId */\n      not(0xffffffffffffffffffffffffffffffffffffffffffffffffffffffff)\n      and\n        /* \"https://github.com/OpenZeppelin/openzeppelin-contracts/blob/master/contracts/utils/introspection/ERC165.sol\":829:840  interfaceId */\n      dup3\n        /* \"https://github.com/OpenZeppelin/openzeppelin-contracts/blob/master/contracts/utils/introspection/ERC165.sol\":829:869  interfaceId == type(IERC165).interfaceId */\n      not(0xffffffffffffffffffffffffffffffffffffffffffffffffffffffff)\n      and\n      eq\n        /* \"https://github.com/OpenZeppelin/openzeppelin-contracts/blob/master/contracts/utils/introspection/ERC165.sol\":822:869  return interfaceId == type(IERC165).interfaceId */\n      swap1\n      pop\n        /* \"https://github.com/OpenZeppelin/openzeppelin-contracts/blob/master/contracts/utils/introspection/ERC165.sol\":730:876  function supportsInterface(bytes4 interfaceId) public view virtual returns (bool) {... */\n      swap2\n      swap1\n      pop\n      jump\t// out\n        /* \"https://github.com/OpenZeppelin/openzeppelin-contracts/blob/master/contracts/access/AccessControl.sol\":3175:3278  function _checkRole(bytes32 role) internal view virtual {... */\n    tag_98:\n        /* \"https://github.com/OpenZeppelin/openzeppelin-contracts/blob/master/contracts/access/AccessControl.sol\":3241:3271  _checkRole(role, _msgSender()) */\n      tag_150\n        /* \"https://github.com/OpenZeppelin/openzeppelin-contracts/blob/master/contracts/access/AccessControl.sol\":3252:3256  role */\n      dup2\n        /* \"https://github.com/OpenZeppelin/openzeppelin-contracts/blob/master/contracts/access/AccessControl.sol\":3258:3270  _msgSender() */\n      tag_151\n        /* \"https://github.com/OpenZeppelin/openzeppelin-contracts/blob/master/contracts/access/AccessControl.sol\":3258:3268  _msgSender */\n      tag_104\n        /* \"https://github.com/OpenZeppelin/openzeppelin-contracts/blob/master/contracts/access/AccessControl.sol\":3258:3270  _msgSender() */\n      jump\t// in\n    tag_151:\n        /* \"https://github.com/OpenZeppelin/openzeppelin-contracts/blob/master/contracts/access/AccessControl.sol\":3241:3251  _checkRole */\n      tag_152\n        /* \"https://github.com/OpenZeppelin/openzeppelin-contracts/blob/master/contracts/access/AccessControl.sol\":3241:3271  _checkRole(role, _msgSender()) */\n      jump\t// in\n    tag_150:\n        /* \"https://github.com/OpenZeppelin/openzeppelin-contracts/blob/master/contracts/access/AccessControl.sol\":3175:3278  function _checkRole(bytes32 role) internal view virtual {... */\n      pop\n      jump\t// out\n        /* \"https://github.com/OpenZeppelin/openzeppelin-contracts/blob/master/contracts/access/AccessControl.sol\":6155:6471  function _grantRole(bytes32 role, address account) internal virtual returns (bool) {... */\n    tag_101:\n        /* \"https://github.com/OpenZeppelin/openzeppelin-contracts/blob/master/contracts/access/AccessControl.sol\":6232:6236  bool */\n      0x00\n        /* \"https://github.com/OpenZeppelin/openzeppelin-contracts/blob/master/contracts/access/AccessControl.sol\":6253:6275  hasRole(role, account) */\n      tag_154\n        /* \"https://github.com/OpenZeppelin/openzeppelin-contracts/blob/master/contracts/access/AccessControl.sol\":6261:6265  role */\n      dup4\n        /* \"https://github.com/OpenZeppelin/openzeppelin-contracts/blob/master/contracts/access/AccessControl.sol\":6267:6274  account */\n      dup4\n        /* \"https://github.com/OpenZeppelin/openzeppelin-contracts/blob/master/contracts/access/AccessControl.sol\":6253:6260  hasRole */\n      tag_54\n        /* \"https://github.com/OpenZeppelin/openzeppelin-contracts/blob/master/contracts/access/AccessControl.sol\":6253:6275  hasRole(role, account) */\n      jump\t// in\n    tag_154:\n        /* \"https://github.com/OpenZeppelin/openzeppelin-contracts/blob/master/contracts/access/AccessControl.sol\":6248:6465  if (!hasRole(role, account)) {... */\n      tag_155\n      jumpi\n        /* \"https://github.com/OpenZeppelin/openzeppelin-contracts/blob/master/contracts/access/AccessControl.sol\":6323:6327  true */\n      0x01\n        /* \"https://github.com/OpenZeppelin/openzeppelin-contracts/blob/master/contracts/access/AccessControl.sol\":6291:6297  _roles */\n      0x00\n        /* \"https://github.com/OpenZeppelin/openzeppelin-contracts/blob/master/contracts/access/AccessControl.sol\":6291:6303  _roles[role] */\n      0x00\n        /* \"https://github.com/OpenZeppelin/openzeppelin-contracts/blob/master/contracts/access/AccessControl.sol\":6298:6302  role */\n      dup6\n        /* \"https://github.com/OpenZeppelin/openzeppelin-contracts/blob/master/contracts/access/AccessControl.sol\":6291:6303  _roles[role] */\n      dup2\n      mstore\n      0x20\n      add\n      swap1\n      dup2\n      mstore\n      0x20\n      add\n      0x00\n      keccak256\n        /* \"https://github.com/OpenZeppelin/openzeppelin-contracts/blob/master/contracts/access/AccessControl.sol\":6291:6311  _roles[role].hasRole */\n      0x00\n      add\n        /* \"https://github.com/OpenZeppelin/openzeppelin-contracts/blob/master/contracts/access/AccessControl.sol\":6291:6320  _roles[role].hasRole[account] */\n      0x00\n        /* \"https://github.com/OpenZeppelin/openzeppelin-contracts/blob/master/contracts/access/AccessControl.sol\":6312:6319  account */\n      dup5\n        /* \"https://github.com/OpenZeppelin/openzeppelin-contracts/blob/master/contracts/access/AccessControl.sol\":6291:6320  _roles[role].hasRole[account] */\n      0xffffffffffffffffffffffffffffffffffffffff\n      and\n      0xffffffffffffffffffffffffffffffffffffffff\n      and\n      dup2\n      mstore\n      0x20\n      add\n      swap1\n      dup2\n      mstore\n      0x20\n      add\n      0x00\n      keccak256\n      0x00\n        /* \"https://github.com/OpenZeppelin/openzeppelin-contracts/blob/master/contracts/access/AccessControl.sol\":6291:6327  _roles[role].hasRole[account] = true */\n      0x0100\n      exp\n      dup2\n      sload\n      dup2\n      0xff\n      mul\n      not\n      and\n      swap1\n      dup4\n      iszero\n      iszero\n      mul\n      or\n      swap1\n      sstore\n      pop\n        /* \"https://github.com/OpenZeppelin/openzeppelin-contracts/blob/master/contracts/access/AccessControl.sol\":6373:6385  _msgSender() */\n      tag_156\n        /* \"https://github.com/OpenZeppelin/openzeppelin-contracts/blob/master/contracts/access/AccessControl.sol\":6373:6383  _msgSender */\n      tag_104\n        /* \"https://github.com/OpenZeppelin/openzeppelin-contracts/blob/master/contracts/access/AccessControl.sol\":6373:6385  _msgSender() */\n      jump\t// in\n    tag_156:\n        /* \"https://github.com/OpenZeppelin/openzeppelin-contracts/blob/master/contracts/access/AccessControl.sol\":6346:6386  RoleGranted(role, account, _msgSender()) */\n      0xffffffffffffffffffffffffffffffffffffffff\n      and\n        /* \"https://github.com/OpenZeppelin/openzeppelin-contracts/blob/master/contracts/access/AccessControl.sol\":6364:6371  account */\n      dup3\n        /* \"https://github.com/OpenZeppelin/openzeppelin-contracts/blob/master/contracts/access/AccessControl.sol\":6346:6386  RoleGranted(role, account, _msgSender()) */\n      0xffffffffffffffffffffffffffffffffffffffff\n      and\n        /* \"https://github.com/OpenZeppelin/openzeppelin-contracts/blob/master/contracts/access/AccessControl.sol\":6358:6362  role */\n      dup5\n        /* \"https://github.com/OpenZeppelin/openzeppelin-contracts/blob/master/contracts/access/AccessControl.sol\":6346:6386  RoleGranted(role, account, _msgSender()) */\n      0x2f8788117e7eff1d82e926ec794901d17c78024a50270940304540a733656f0d\n      mload(0x40)\n      mload(0x40)\n      dup1\n      swap2\n      sub\n      swap1\n      log4\n        /* \"https://github.com/OpenZeppelin/openzeppelin-contracts/blob/master/contracts/access/AccessControl.sol\":6407:6411  true */\n      0x01\n        /* \"https://github.com/OpenZeppelin/openzeppelin-contracts/blob/master/contracts/access/AccessControl.sol\":6400:6411  return true */\n      swap1\n      pop\n      jump(tag_153)\n        /* \"https://github.com/OpenZeppelin/openzeppelin-contracts/blob/master/contracts/access/AccessControl.sol\":6248:6465  if (!hasRole(role, account)) {... */\n    tag_155:\n        /* \"https://github.com/OpenZeppelin/openzeppelin-contracts/blob/master/contracts/access/AccessControl.sol\":6449:6454  false */\n      0x00\n        /* \"https://github.com/OpenZeppelin/openzeppelin-contracts/blob/master/contracts/access/AccessControl.sol\":6442:6454  return false */\n      swap1\n      pop\n        /* \"https://github.com/OpenZeppelin/openzeppelin-contracts/blob/master/contracts/access/AccessControl.sol\":6155:6471  function _grantRole(bytes32 role, address account) internal virtual returns (bool) {... */\n    tag_153:\n      swap3\n      swap2\n      pop\n      pop\n      jump\t// out\n        /* \"https://github.com/OpenZeppelin/openzeppelin-contracts/blob/master/contracts/utils/Context.sol\":656:752  function _msgSender() internal view virtual returns (address) {... */\n    tag_104:\n        /* \"https://github.com/OpenZeppelin/openzeppelin-contracts/blob/master/contracts/utils/Context.sol\":709:716  address */\n      0x00\n        /* \"https://github.com/OpenZeppelin/openzeppelin-contracts/blob/master/contracts/utils/Context.sol\":735:745  msg.sender */\n      caller\n        /* \"https://github.com/OpenZeppelin/openzeppelin-contracts/blob/master/contracts/utils/Context.sol\":728:745  return msg.sender */\n      swap1\n      pop\n        /* \"https://github.com/OpenZeppelin/openzeppelin-contracts/blob/master/contracts/utils/Context.sol\":656:752  function _msgSender() internal view virtual returns (address) {... */\n      swap1\n      jump\t// out\n        /* \"https://github.com/OpenZeppelin/openzeppelin-contracts/blob/master/contracts/access/AccessControl.sol\":6708:7025  function _revokeRole(bytes32 role, address account) internal virtual returns (bool) {... */\n    tag_107:\n        /* \"https://github.com/OpenZeppelin/openzeppelin-contracts/blob/master/contracts/access/AccessControl.sol\":6786:6790  bool */\n      0x00\n        /* \"https://github.com/OpenZeppelin/openzeppelin-contracts/blob/master/contracts/access/AccessControl.sol\":6806:6828  hasRole(role, account) */\n      tag_160\n        /* \"https://github.com/OpenZeppelin/openzeppelin-contracts/blob/master/contracts/access/AccessControl.sol\":6814:6818  role */\n      dup4\n        /* \"https://github.com/OpenZeppelin/openzeppelin-contracts/blob/master/contracts/access/AccessControl.sol\":6820:6827  account */\n      dup4\n        /* \"https://github.com/OpenZeppelin/openzeppelin-contracts/blob/master/contracts/access/AccessControl.sol\":6806:6813  hasRole */\n      tag_54\n        /* \"https://github.com/OpenZeppelin/openzeppelin-contracts/blob/master/contracts/access/AccessControl.sol\":6806:6828  hasRole(role, account) */\n      jump\t// in\n    tag_160:\n        /* \"https://github.com/OpenZeppelin/openzeppelin-contracts/blob/master/contracts/access/AccessControl.sol\":6802:7019  if (hasRole(role, account)) {... */\n      iszero\n      tag_161\n      jumpi\n        /* \"https://github.com/OpenZeppelin/openzeppelin-contracts/blob/master/contracts/access/AccessControl.sol\":6876:6881  false */\n      0x00\n        /* \"https://github.com/OpenZeppelin/openzeppelin-contracts/blob/master/contracts/access/AccessControl.sol\":6844:6850  _roles */\n      0x00\n        /* \"https://github.com/OpenZeppelin/openzeppelin-contracts/blob/master/contracts/access/AccessControl.sol\":6844:6856  _roles[role] */\n      0x00\n        /* \"https://github.com/OpenZeppelin/openzeppelin-contracts/blob/master/contracts/access/AccessControl.sol\":6851:6855  role */\n      dup6\n        /* \"https://github.com/OpenZeppelin/openzeppelin-contracts/blob/master/contracts/access/AccessControl.sol\":6844:6856  _roles[role] */\n      dup2\n      mstore\n      0x20\n      add\n      swap1\n      dup2\n      mstore\n      0x20\n      add\n      0x00\n      keccak256\n        /* \"https://github.com/OpenZeppelin/openzeppelin-contracts/blob/master/contracts/access/AccessControl.sol\":6844:6864  _roles[role].hasRole */\n      0x00\n      add\n        /* \"https://github.com/OpenZeppelin/openzeppelin-contracts/blob/master/contracts/access/AccessControl.sol\":6844:6873  _roles[role].hasRole[account] */\n      0x00\n        /* \"https://github.com/OpenZeppelin/openzeppelin-contracts/blob/master/contracts/access/AccessControl.sol\":6865:6872  account */\n      dup5\n        /* \"https://github.com/OpenZeppelin/openzeppelin-contracts/blob/master/contracts/access/AccessControl.sol\":6844:6873  _roles[role].hasRole[account] */\n      0xffffffffffffffffffffffffffffffffffffffff\n      and\n      0xffffffffffffffffffffffffffffffffffffffff\n      and\n      dup2\n      mstore\n      0x20\n      add\n      swap1\n      dup2\n      mstore\n      0x20\n      add\n      0x00\n      keccak256\n      0x00\n        /* \"https://github.com/OpenZeppelin/openzeppelin-contracts/blob/master/contracts/access/AccessControl.sol\":6844:6881  _roles[role].hasRole[account] = false */\n      0x0100\n      exp\n      dup2\n      sload\n      dup2\n      0xff\n      mul\n      not\n      and\n      swap1\n      dup4\n      iszero\n      iszero\n      mul\n      or\n      swap1\n      sstore\n      pop\n        /* \"https://github.com/OpenZeppelin/openzeppelin-contracts/blob/master/contracts/access/AccessControl.sol\":6927:6939  _msgSender() */\n      tag_162\n        /* \"https://github.com/OpenZeppelin/openzeppelin-contracts/blob/master/contracts/access/AccessControl.sol\":6927:6937  _msgSender */\n      tag_104\n        /* \"https://github.com/OpenZeppelin/openzeppelin-contracts/blob/master/contracts/access/AccessControl.sol\":6927:6939  _msgSender() */\n      jump\t// in\n    tag_162:\n        /* \"https://github.com/OpenZeppelin/openzeppelin-contracts/blob/master/contracts/access/AccessControl.sol\":6900:6940  RoleRevoked(role, account, _msgSender()) */\n      0xffffffffffffffffffffffffffffffffffffffff\n      and\n        /* \"https://github.com/OpenZeppelin/openzeppelin-contracts/blob/master/contracts/access/AccessControl.sol\":6918:6925  account */\n      dup3\n        /* \"https://github.com/OpenZeppelin/openzeppelin-contracts/blob/master/contracts/access/AccessControl.sol\":6900:6940  RoleRevoked(role, account, _msgSender()) */\n      0xffffffffffffffffffffffffffffffffffffffff\n      and\n        /* \"https://github.com/OpenZeppelin/openzeppelin-contracts/blob/master/contracts/access/AccessControl.sol\":6912:6916  role */\n      dup5\n        /* \"https://github.com/OpenZeppelin/openzeppelin-contracts/blob/master/contracts/access/AccessControl.sol\":6900:6940  RoleRevoked(role, account, _msgSender()) */\n      0xf6391f5c32d9c69d2a47ea670b442974b53935d1edc7fd64eb21e047a839171b\n      mload(0x40)\n      mload(0x40)\n      dup1\n      swap2\n      sub\n      swap1\n      log4\n        /* \"https://github.com/OpenZeppelin/openzeppelin-contracts/blob/master/contracts/access/AccessControl.sol\":6961:6965  true */\n      0x01\n        /* \"https://github.com/OpenZeppelin/openzeppelin-contracts/blob/master/contracts/access/AccessControl.sol\":6954:6965  return true */\n      swap1\n      pop\n      jump(tag_159)\n        /* \"https://github.com/OpenZeppelin/openzeppelin-contracts/blob/master/contracts/access/AccessControl.sol\":6802:7019  if (hasRole(role, account)) {... */\n    tag_161:\n        /* \"https://github.com/OpenZeppelin/openzeppelin-contracts/blob/master/contracts/access/AccessControl.sol\":7003:7008  false */\n      0x00\n        /* \"https://github.com/OpenZeppelin/openzeppelin-contracts/blob/master/contracts/access/AccessControl.sol\":6996:7008  return false */\n      swap1\n      pop\n        /* \"https://github.com/OpenZeppelin/openzeppelin-contracts/blob/master/contracts/access/AccessControl.sol\":6708:7025  function _revokeRole(bytes32 role, address account) internal virtual returns (bool) {... */\n    tag_159:\n      swap3\n      swap2\n      pop\n      pop\n      jump\t// out\n        /* \"https://github.com/OpenZeppelin/openzeppelin-contracts/blob/master/contracts/access/AccessControl.sol\":3408:3605  function _checkRole(bytes32 role, address account) internal view virtual {... */\n    tag_152:\n        /* \"https://github.com/OpenZeppelin/openzeppelin-contracts/blob/master/contracts/access/AccessControl.sol\":3496:3518  hasRole(role, account) */\n      tag_165\n        /* \"https://github.com/OpenZeppelin/openzeppelin-contracts/blob/master/contracts/access/AccessControl.sol\":3504:3508  role */\n      dup3\n        /* \"https://github.com/OpenZeppelin/openzeppelin-contracts/blob/master/contracts/access/AccessControl.sol\":3510:3517  account */\n      dup3\n        /* \"https://github.com/OpenZeppelin/openzeppelin-contracts/blob/master/contracts/access/AccessControl.sol\":3496:3503  hasRole */\n      tag_54\n        /* \"https://github.com/OpenZeppelin/openzeppelin-contracts/blob/master/contracts/access/AccessControl.sol\":3496:3518  hasRole(role, account) */\n      jump\t// in\n    tag_165:\n        /* \"https://github.com/OpenZeppelin/openzeppelin-contracts/blob/master/contracts/access/AccessControl.sol\":3491:3599  if (!hasRole(role, account)) {... */\n      tag_166\n      jumpi\n        /* \"https://github.com/OpenZeppelin/openzeppelin-contracts/blob/master/contracts/access/AccessControl.sol\":3574:3581  account */\n      dup1\n        /* \"https://github.com/OpenZeppelin/openzeppelin-contracts/blob/master/contracts/access/AccessControl.sol\":3583:3587  role */\n      dup3\n        /* \"https://github.com/OpenZeppelin/openzeppelin-contracts/blob/master/contracts/access/AccessControl.sol\":3541:3588  AccessControlUnauthorizedAccount(account, role) */\n      mload(0x40)\n      0xe2517d3f00000000000000000000000000000000000000000000000000000000\n      dup2\n      mstore\n      0x04\n      add\n      tag_167\n      swap3\n      swap2\n      swap1\n      tag_168\n      jump\t// in\n    tag_167:\n      mload(0x40)\n      dup1\n      swap2\n      sub\n      swap1\n      revert\n        /* \"https://github.com/OpenZeppelin/openzeppelin-contracts/blob/master/contracts/access/AccessControl.sol\":3491:3599  if (!hasRole(role, account)) {... */\n    tag_166:\n        /* \"https://github.com/OpenZeppelin/openzeppelin-contracts/blob/master/contracts/access/AccessControl.sol\":3408:3605  function _checkRole(bytes32 role, address account) internal view virtual {... */\n      pop\n      pop\n      jump\t// out\n        /* \"#utility.yul\":88:205   */\n    tag_170:\n        /* \"#utility.yul\":197:198   */\n      0x00\n        /* \"#utility.yul\":194:195   */\n      0x00\n        /* \"#utility.yul\":187:199   */\n      revert\n        /* \"#utility.yul\":334:483   */\n    tag_172:\n        /* \"#utility.yul\":370:377   */\n      0x00\n        /* \"#utility.yul\":410:476   */\n      0xffffffff00000000000000000000000000000000000000000000000000000000\n        /* \"#utility.yul\":403:408   */\n      dup3\n        /* \"#utility.yul\":399:477   */\n      and\n        /* \"#utility.yul\":388:477   */\n      swap1\n      pop\n        /* \"#utility.yul\":334:483   */\n      swap2\n      swap1\n      pop\n      jump\t// out\n        /* \"#utility.yul\":489:609   */\n    tag_173:\n        /* \"#utility.yul\":561:584   */\n      tag_210\n        /* \"#utility.yul\":578:583   */\n      dup2\n        /* \"#utility.yul\":561:584   */\n      tag_172\n      jump\t// in\n    tag_210:\n        /* \"#utility.yul\":554:559   */\n      dup2\n        /* \"#utility.yul\":551:585   */\n      eq\n        /* \"#utility.yul\":541:603   */\n      tag_211\n      jumpi\n        /* \"#utility.yul\":599:600   */\n      0x00\n        /* \"#utility.yul\":596:597   */\n      0x00\n        /* \"#utility.yul\":589:601   */\n      revert\n        /* \"#utility.yul\":541:603   */\n    tag_211:\n        /* \"#utility.yul\":489:609   */\n      pop\n      jump\t// out\n        /* \"#utility.yul\":615:752   */\n    tag_174:\n        /* \"#utility.yul\":660:665   */\n      0x00\n        /* \"#utility.yul\":698:704   */\n      dup2\n        /* \"#utility.yul\":685:705   */\n      calldataload\n        /* \"#utility.yul\":676:705   */\n      swap1\n      pop\n        /* \"#utility.yul\":714:746   */\n      tag_213\n        /* \"#utility.yul\":740:745   */\n      dup2\n        /* \"#utility.yul\":714:746   */\n      tag_173\n      jump\t// in\n    tag_213:\n        /* \"#utility.yul\":615:752   */\n      swap3\n      swap2\n      pop\n      pop\n      jump\t// out\n        /* \"#utility.yul\":758:1085   */\n    tag_22:\n        /* \"#utility.yul\":816:822   */\n      0x00\n        /* \"#utility.yul\":865:867   */\n      0x20\n        /* \"#utility.yul\":853:862   */\n      dup3\n        /* \"#utility.yul\":844:851   */\n      dup5\n        /* \"#utility.yul\":840:863   */\n      sub\n        /* \"#utility.yul\":836:868   */\n      slt\n        /* \"#utility.yul\":833:952   */\n      iszero\n      tag_215\n      jumpi\n        /* \"#utility.yul\":871:950   */\n      tag_216\n      tag_170\n      jump\t// in\n    tag_216:\n        /* \"#utility.yul\":833:952   */\n    tag_215:\n        /* \"#utility.yul\":991:992   */\n      0x00\n        /* \"#utility.yul\":1016:1068   */\n      tag_217\n        /* \"#utility.yul\":1060:1067   */\n      dup5\n        /* \"#utility.yul\":1051:1057   */\n      dup3\n        /* \"#utility.yul\":1040:1049   */\n      dup6\n        /* \"#utility.yul\":1036:1058   */\n      add\n        /* \"#utility.yul\":1016:1068   */\n      tag_174\n      jump\t// in\n    tag_217:\n        /* \"#utility.yul\":1006:1068   */\n      swap2\n      pop\n        /* \"#utility.yul\":962:1078   */\n      pop\n        /* \"#utility.yul\":758:1085   */\n      swap3\n      swap2\n      pop\n      pop\n      jump\t// out\n        /* \"#utility.yul\":1091:1181   */\n    tag_175:\n        /* \"#utility.yul\":1125:1132   */\n      0x00\n        /* \"#utility.yul\":1168:1173   */\n      dup2\n        /* \"#utility.yul\":1161:1174   */\n      iszero\n        /* \"#utility.yul\":1154:1175   */\n      iszero\n        /* \"#utility.yul\":1143:1175   */\n      swap1\n      pop\n        /* \"#utility.yul\":1091:1181   */\n      swap2\n      swap1\n      pop\n      jump\t// out\n        /* \"#utility.yul\":1187:1296   */\n    tag_176:\n        /* \"#utility.yul\":1268:1289   */\n      tag_220\n        /* \"#utility.yul\":1283:1288   */\n      dup2\n        /* \"#utility.yul\":1268:1289   */\n      tag_175\n      jump\t// in\n    tag_220:\n        /* \"#utility.yul\":1263:1266   */\n      dup3\n        /* \"#utility.yul\":1256:1290   */\n      mstore\n        /* \"#utility.yul\":1187:1296   */\n      pop\n      pop\n      jump\t// out\n        /* \"#utility.yul\":1302:1512   */\n    tag_25:\n        /* \"#utility.yul\":1389:1393   */\n      0x00\n        /* \"#utility.yul\":1427:1429   */\n      0x20\n        /* \"#utility.yul\":1416:1425   */\n      dup3\n        /* \"#utility.yul\":1412:1430   */\n      add\n        /* \"#utility.yul\":1404:1430   */\n      swap1\n      pop\n        /* \"#utility.yul\":1440:1505   */\n      tag_222\n        /* \"#utility.yul\":1502:1503   */\n      0x00\n        /* \"#utility.yul\":1491:1500   */\n      dup4\n        /* \"#utility.yul\":1487:1504   */\n      add\n        /* \"#utility.yul\":1478:1484   */\n      dup5\n        /* \"#utility.yul\":1440:1505   */\n      tag_176\n      jump\t// in\n    tag_222:\n        /* \"#utility.yul\":1302:1512   */\n      swap3\n      swap2\n      pop\n      pop\n      jump\t// out\n        /* \"#utility.yul\":1518:1644   */\n    tag_177:\n        /* \"#utility.yul\":1555:1562   */\n      0x00\n        /* \"#utility.yul\":1595:1637   */\n      0xffffffffffffffffffffffffffffffffffffffff\n        /* \"#utility.yul\":1588:1593   */\n      dup3\n        /* \"#utility.yul\":1584:1638   */\n      and\n        /* \"#utility.yul\":1573:1638   */\n      swap1\n      pop\n        /* \"#utility.yul\":1518:1644   */\n      swap2\n      swap1\n      pop\n      jump\t// out\n        /* \"#utility.yul\":1650:1746   */\n    tag_178:\n        /* \"#utility.yul\":1687:1694   */\n      0x00\n        /* \"#utility.yul\":1716:1740   */\n      tag_225\n        /* \"#utility.yul\":1734:1739   */\n      dup3\n        /* \"#utility.yul\":1716:1740   */\n      tag_177\n      jump\t// in\n    tag_225:\n        /* \"#utility.yul\":1705:1740   */\n      swap1\n      pop\n        /* \"#utility.yul\":1650:1746   */\n      swap2\n      swap1\n      pop\n      jump\t// out\n        /* \"#utility.yul\":1752:1874   */\n    tag_179:\n        /* \"#utility.yul\":1825:1849   */\n      tag_227\n        /* \"#utility.yul\":1843:1848   */\n      dup2\n        /* \"#utility.yul\":1825:1849   */\n      tag_178\n      jump\t// in\n    tag_227:\n        /* \"#utility.yul\":1818:1823   */\n      dup2\n        /* \"#utility.yul\":1815:1850   */\n      eq\n        /* \"#utility.yul\":1805:1868   */\n      tag_228\n      jumpi\n        /* \"#utility.yul\":1864:1865   */\n      0x00\n        /* \"#utility.yul\":1861:1862   */\n      0x00\n        /* \"#utility.yul\":1854:1866   */\n      revert\n        /* \"#utility.yul\":1805:1868   */\n    tag_228:\n        /* \"#utility.yul\":1752:1874   */\n      pop\n      jump\t// out\n        /* \"#utility.yul\":1880:2019   */\n    tag_180:\n        /* \"#utility.yul\":1926:1931   */\n      0x00\n        /* \"#utility.yul\":1964:1970   */\n      dup2\n        /* \"#utility.yul\":1951:1971   */\n      calldataload\n        /* \"#utility.yul\":1942:1971   */\n      swap1\n      pop\n        /* \"#utility.yul\":1980:2013   */\n      tag_230\n        /* \"#utility.yul\":2007:2012   */\n      dup2\n        /* \"#utility.yul\":1980:2013   */\n      tag_179\n      jump\t// in\n    tag_230:\n        /* \"#utility.yul\":1880:2019   */\n      swap3\n      swap2\n      pop\n      pop\n      jump\t// out\n        /* \"#utility.yul\":2025:2102   */\n    tag_181:\n        /* \"#utility.yul\":2062:2069   */\n      0x00\n        /* \"#utility.yul\":2091:2096   */\n      dup2\n        /* \"#utility.yul\":2080:2096   */\n      swap1\n      pop\n        /* \"#utility.yul\":2025:2102   */\n      swap2\n      swap1\n      pop\n      jump\t// out\n        /* \"#utility.yul\":2108:2230   */\n    tag_182:\n        /* \"#utility.yul\":2181:2205   */\n      tag_233\n        /* \"#utility.yul\":2199:2204   */\n      dup2\n        /* \"#utility.yul\":2181:2205   */\n      tag_181\n      jump\t// in\n    tag_233:\n        /* \"#utility.yul\":2174:2179   */\n      dup2\n        /* \"#utility.yul\":2171:2206   */\n      eq\n        /* \"#utility.yul\":2161:2224   */\n      tag_234\n      jumpi\n        /* \"#utility.yul\":2220:2221   */\n      0x00\n        /* \"#utility.yul\":2217:2218   */\n      0x00\n        /* \"#utility.yul\":2210:2222   */\n      revert\n        /* \"#utility.yul\":2161:2224   */\n    tag_234:\n        /* \"#utility.yul\":2108:2230   */\n      pop\n      jump\t// out\n        /* \"#utility.yul\":2236:2375   */\n    tag_183:\n        /* \"#utility.yul\":2282:2287   */\n      0x00\n        /* \"#utility.yul\":2320:2326   */\n      dup2\n        /* \"#utility.yul\":2307:2327   */\n      calldataload\n        /* \"#utility.yul\":2298:2327   */\n      swap1\n      pop\n        /* \"#utility.yul\":2336:2369   */\n      tag_236\n        /* \"#utility.yul\":2363:2368   */\n      dup2\n        /* \"#utility.yul\":2336:2369   */\n      tag_182\n      jump\t// in\n    tag_236:\n        /* \"#utility.yul\":2236:2375   */\n      swap3\n      swap2\n      pop\n      pop\n      jump\t// out\n        /* \"#utility.yul\":2381:2855   */\n    tag_28:\n        /* \"#utility.yul\":2449:2455   */\n      0x00\n        /* \"#utility.yul\":2457:2463   */\n      0x00\n        /* \"#utility.yul\":2506:2508   */\n      0x40\n        /* \"#utility.yul\":2494:2503   */\n      dup4\n        /* \"#utility.yul\":2485:2492   */\n      dup6\n        /* \"#utility.yul\":2481:2504   */\n      sub\n        /* \"#utility.yul\":2477:2509   */\n      slt\n        /* \"#utility.yul\":2474:2593   */\n      iszero\n      tag_238\n      jumpi\n        /* \"#utility.yul\":2512:2591   */\n      tag_239\n      tag_170\n      jump\t// in\n    tag_239:\n        /* \"#utility.yul\":2474:2593   */\n    tag_238:\n        /* \"#utility.yul\":2632:2633   */\n      0x00\n        /* \"#utility.yul\":2657:2710   */\n      tag_240\n        /* \"#utility.yul\":2702:2709   */\n      dup6\n        /* \"#utility.yul\":2693:2699   */\n      dup3\n        /* \"#utility.yul\":2682:2691   */\n      dup7\n        /* \"#utility.yul\":2678:2700   */\n      add\n        /* \"#utility.yul\":2657:2710   */\n      tag_180\n      jump\t// in\n    tag_240:\n        /* \"#utility.yul\":2647:2710   */\n      swap3\n      pop\n        /* \"#utility.yul\":2603:2720   */\n      pop\n        /* \"#utility.yul\":2759:2761   */\n      0x20\n        /* \"#utility.yul\":2785:2838   */\n      tag_241\n        /* \"#utility.yul\":2830:2837   */\n      dup6\n        /* \"#utility.yul\":2821:2827   */\n      dup3\n        /* \"#utility.yul\":2810:2819   */\n      dup7\n        /* \"#utility.yul\":2806:2828   */\n      add\n        /* \"#utility.yul\":2785:2838   */\n      tag_183\n      jump\t// in\n    tag_241:\n        /* \"#utility.yul\":2775:2838   */\n      swap2\n      pop\n        /* \"#utility.yul\":2730:2848   */\n      pop\n        /* \"#utility.yul\":2381:2855   */\n      swap3\n      pop\n      swap3\n      swap1\n      pop\n      jump\t// out\n        /* \"#utility.yul\":2861:3190   */\n    tag_32:\n        /* \"#utility.yul\":2920:2926   */\n      0x00\n        /* \"#utility.yul\":2969:2971   */\n      0x20\n        /* \"#utility.yul\":2957:2966   */\n      dup3\n        /* \"#utility.yul\":2948:2955   */\n      dup5\n        /* \"#utility.yul\":2944:2967   */\n      sub\n        /* \"#utility.yul\":2940:2972   */\n      slt\n        /* \"#utility.yul\":2937:3056   */\n      iszero\n      tag_243\n      jumpi\n        /* \"#utility.yul\":2975:3054   */\n      tag_244\n      tag_170\n      jump\t// in\n    tag_244:\n        /* \"#utility.yul\":2937:3056   */\n    tag_243:\n        /* \"#utility.yul\":3095:3096   */\n      0x00\n        /* \"#utility.yul\":3120:3173   */\n      tag_245\n        /* \"#utility.yul\":3165:3172   */\n      dup5\n        /* \"#utility.yul\":3156:3162   */\n      dup3\n        /* \"#utility.yul\":3145:3154   */\n      dup6\n        /* \"#utility.yul\":3141:3163   */\n      add\n        /* \"#utility.yul\":3120:3173   */\n      tag_183\n      jump\t// in\n    tag_245:\n        /* \"#utility.yul\":3110:3173   */\n      swap2\n      pop\n        /* \"#utility.yul\":3066:3183   */\n      pop\n        /* \"#utility.yul\":2861:3190   */\n      swap3\n      swap2\n      pop\n      pop\n      jump\t// out\n        /* \"#utility.yul\":3196:3314   */\n    tag_184:\n        /* \"#utility.yul\":3283:3307   */\n      tag_247\n        /* \"#utility.yul\":3301:3306   */\n      dup2\n        /* \"#utility.yul\":3283:3307   */\n      tag_181\n      jump\t// in\n    tag_247:\n        /* \"#utility.yul\":3278:3281   */\n      dup3\n        /* \"#utility.yul\":3271:3308   */\n      mstore\n        /* \"#utility.yul\":3196:3314   */\n      pop\n      pop\n      jump\t// out\n        /* \"#utility.yul\":3320:3542   */\n    tag_35:\n        /* \"#utility.yul\":3413:3417   */\n      0x00\n        /* \"#utility.yul\":3451:3453   */\n      0x20\n        /* \"#utility.yul\":3440:3449   */\n      dup3\n        /* \"#utility.yul\":3436:3454   */\n      add\n        /* \"#utility.yul\":3428:3454   */\n      swap1\n      pop\n        /* \"#utility.yul\":3464:3535   */\n      tag_249\n        /* \"#utility.yul\":3532:3533   */\n      0x00\n        /* \"#utility.yul\":3521:3530   */\n      dup4\n        /* \"#utility.yul\":3517:3534   */\n      add\n        /* \"#utility.yul\":3508:3514   */\n      dup5\n        /* \"#utility.yul\":3464:3535   */\n      tag_184\n      jump\t// in\n    tag_249:\n        /* \"#utility.yul\":3320:3542   */\n      swap3\n      swap2\n      pop\n      pop\n      jump\t// out\n        /* \"#utility.yul\":3548:4022   */\n    tag_38:\n        /* \"#utility.yul\":3616:3622   */\n      0x00\n        /* \"#utility.yul\":3624:3630   */\n      0x00\n        /* \"#utility.yul\":3673:3675   */\n      0x40\n        /* \"#utility.yul\":3661:3670   */\n      dup4\n        /* \"#utility.yul\":3652:3659   */\n      dup6\n        /* \"#utility.yul\":3648:3671   */\n      sub\n        /* \"#utility.yul\":3644:3676   */\n      slt\n        /* \"#utility.yul\":3641:3760   */\n      iszero\n      tag_251\n      jumpi\n        /* \"#utility.yul\":3679:3758   */\n      tag_252\n      tag_170\n      jump\t// in\n    tag_252:\n        /* \"#utility.yul\":3641:3760   */\n    tag_251:\n        /* \"#utility.yul\":3799:3800   */\n      0x00\n        /* \"#utility.yul\":3824:3877   */\n      tag_253\n        /* \"#utility.yul\":3869:3876   */\n      dup6\n        /* \"#utility.yul\":3860:3866   */\n      dup3\n        /* \"#utility.yul\":3849:3858   */\n      dup7\n        /* \"#utility.yul\":3845:3867   */\n      add\n        /* \"#utility.yul\":3824:3877   */\n      tag_183\n      jump\t// in\n    tag_253:\n        /* \"#utility.yul\":3814:3877   */\n      swap3\n      pop\n        /* \"#utility.yul\":3770:3887   */\n      pop\n        /* \"#utility.yul\":3926:3928   */\n      0x20\n        /* \"#utility.yul\":3952:4005   */\n      tag_254\n        /* \"#utility.yul\":3997:4004   */\n      dup6\n        /* \"#utility.yul\":3988:3994   */\n      dup3\n        /* \"#utility.yul\":3977:3986   */\n      dup7\n        /* \"#utility.yul\":3973:3995   */\n      add\n        /* \"#utility.yul\":3952:4005   */\n      tag_180\n      jump\t// in\n    tag_254:\n        /* \"#utility.yul\":3942:4005   */\n      swap2\n      pop\n        /* \"#utility.yul\":3897:4015   */\n      pop\n        /* \"#utility.yul\":3548:4022   */\n      swap3\n      pop\n      swap3\n      swap1\n      pop\n      jump\t// out\n        /* \"#utility.yul\":4028:4105   */\n    tag_185:\n        /* \"#utility.yul\":4065:4072   */\n      0x00\n        /* \"#utility.yul\":4094:4099   */\n      dup2\n        /* \"#utility.yul\":4083:4099   */\n      swap1\n      pop\n        /* \"#utility.yul\":4028:4105   */\n      swap2\n      swap1\n      pop\n      jump\t// out\n        /* \"#utility.yul\":4111:4233   */\n    tag_186:\n        /* \"#utility.yul\":4184:4208   */\n      tag_257\n        /* \"#utility.yul\":4202:4207   */\n      dup2\n        /* \"#utility.yul\":4184:4208   */\n      tag_185\n      jump\t// in\n    tag_257:\n        /* \"#utility.yul\":4177:4182   */\n      dup2\n        /* \"#utility.yul\":4174:4209   */\n      eq\n        /* \"#utility.yul\":4164:4227   */\n      tag_258\n      jumpi\n        /* \"#utility.yul\":4223:4224   */\n      0x00\n        /* \"#utility.yul\":4220:4221   */\n      0x00\n        /* \"#utility.yul\":4213:4225   */\n      revert\n        /* \"#utility.yul\":4164:4227   */\n    tag_258:\n        /* \"#utility.yul\":4111:4233   */\n      pop\n      jump\t// out\n        /* \"#utility.yul\":4239:4378   */\n    tag_187:\n        /* \"#utility.yul\":4285:4290   */\n      0x00\n        /* \"#utility.yul\":4323:4329   */\n      dup2\n        /* \"#utility.yul\":4310:4330   */\n      calldataload\n        /* \"#utility.yul\":4301:4330   */\n      swap1\n      pop\n        /* \"#utility.yul\":4339:4372   */\n      tag_260\n        /* \"#utility.yul\":4366:4371   */\n      dup2\n        /* \"#utility.yul\":4339:4372   */\n      tag_186\n      jump\t// in\n    tag_260:\n        /* \"#utility.yul\":4239:4378   */\n      swap3\n      swap2\n      pop\n      pop\n      jump\t// out\n        /* \"#utility.yul\":4384:4858   */\n    tag_61:\n        /* \"#utility.yul\":4452:4458   */\n      0x00\n        /* \"#utility.yul\":4460:4466   */\n      0x00\n        /* \"#utility.yul\":4509:4511   */\n      0x40\n        /* \"#utility.yul\":4497:4506   */\n      dup4\n        /* \"#utility.yul\":4488:4495   */\n      dup6\n        /* \"#utility.yul\":4484:4507   */\n      sub\n        /* \"#utility.yul\":4480:4512   */\n      slt\n        /* \"#utility.yul\":4477:4596   */\n      iszero\n      tag_262\n      jumpi\n        /* \"#utility.yul\":4515:4594   */\n      tag_263\n      tag_170\n      jump\t// in\n    tag_263:\n        /* \"#utility.yul\":4477:4596   */\n    tag_262:\n        /* \"#utility.yul\":4635:4636   */\n      0x00\n        /* \"#utility.yul\":4660:4713   */\n      tag_264\n        /* \"#utility.yul\":4705:4712   */\n      dup6\n        /* \"#utility.yul\":4696:4702   */\n      dup3\n        /* \"#utility.yul\":4685:4694   */\n      dup7\n        /* \"#utility.yul\":4681:4703   */\n      add\n        /* \"#utility.yul\":4660:4713   */\n      tag_180\n      jump\t// in\n    tag_264:\n        /* \"#utility.yul\":4650:4713   */\n      swap3\n      pop\n        /* \"#utility.yul\":4606:4723   */\n      pop\n        /* \"#utility.yul\":4762:4764   */\n      0x20\n        /* \"#utility.yul\":4788:4841   */\n      tag_265\n        /* \"#utility.yul\":4833:4840   */\n      dup6\n        /* \"#utility.yul\":4824:4830   */\n      dup3\n        /* \"#utility.yul\":4813:4822   */\n      dup7\n        /* \"#utility.yul\":4809:4831   */\n      add\n        /* \"#utility.yul\":4788:4841   */\n      tag_187\n      jump\t// in\n    tag_265:\n        /* \"#utility.yul\":4778:4841   */\n      swap2\n      pop\n        /* \"#utility.yul\":4733:4851   */\n      pop\n        /* \"#utility.yul\":4384:4858   */\n      swap3\n      pop\n      swap3\n      swap1\n      pop\n      jump\t// out\n        /* \"#utility.yul\":4864:4982   */\n    tag_188:\n        /* \"#utility.yul\":4951:4975   */\n      tag_267\n        /* \"#utility.yul\":4969:4974   */\n      dup2\n        /* \"#utility.yul\":4951:4975   */\n      tag_178\n      jump\t// in\n    tag_267:\n        /* \"#utility.yul\":4946:4949   */\n      dup3\n        /* \"#utility.yul\":4939:4976   */\n      mstore\n        /* \"#utility.yul\":4864:4982   */\n      pop\n      pop\n      jump\t// out\n        /* \"#utility.yul\":4988:5106   */\n    tag_189:\n        /* \"#utility.yul\":5075:5099   */\n      tag_269\n        /* \"#utility.yul\":5093:5098   */\n      dup2\n        /* \"#utility.yul\":5075:5099   */\n      tag_185\n      jump\t// in\n    tag_269:\n        /* \"#utility.yul\":5070:5073   */\n      dup3\n        /* \"#utility.yul\":5063:5100   */\n      mstore\n        /* \"#utility.yul\":4988:5106   */\n      pop\n      pop\n      jump\t// out\n        /* \"#utility.yul\":5112:5653   */\n    tag_64:\n        /* \"#utility.yul\":5283:5287   */\n      0x00\n        /* \"#utility.yul\":5321:5324   */\n      0x80\n        /* \"#utility.yul\":5310:5319   */\n      dup3\n        /* \"#utility.yul\":5306:5325   */\n      add\n        /* \"#utility.yul\":5298:5325   */\n      swap1\n      pop\n        /* \"#utility.yul\":5335:5406   */\n      tag_271\n        /* \"#utility.yul\":5403:5404   */\n      0x00\n        /* \"#utility.yul\":5392:5401   */\n      dup4\n        /* \"#utility.yul\":5388:5405   */\n      add\n        /* \"#utility.yul\":5379:5385   */\n      dup8\n        /* \"#utility.yul\":5335:5406   */\n      tag_188\n      jump\t// in\n    tag_271:\n        /* \"#utility.yul\":5416:5488   */\n      tag_272\n        /* \"#utility.yul\":5484:5486   */\n      0x20\n        /* \"#utility.yul\":5473:5482   */\n      dup4\n        /* \"#utility.yul\":5469:5487   */\n      add\n        /* \"#utility.yul\":5460:5466   */\n      dup7\n        /* \"#utility.yul\":5416:5488   */\n      tag_189\n      jump\t// in\n    tag_272:\n        /* \"#utility.yul\":5498:5570   */\n      tag_273\n        /* \"#utility.yul\":5566:5568   */\n      0x40\n        /* \"#utility.yul\":5555:5564   */\n      dup4\n        /* \"#utility.yul\":5551:5569   */\n      add\n        /* \"#utility.yul\":5542:5548   */\n      dup6\n        /* \"#utility.yul\":5498:5570   */\n      tag_184\n      jump\t// in\n    tag_273:\n        /* \"#utility.yul\":5580:5646   */\n      tag_274\n        /* \"#utility.yul\":5642:5644   */\n      0x60\n        /* \"#utility.yul\":5631:5640   */\n      dup4\n        /* \"#utility.yul\":5627:5645   */\n      add\n        /* \"#utility.yul\":5618:5624   */\n      dup5\n        /* \"#utility.yul\":5580:5646   */\n      tag_176\n      jump\t// in\n    tag_274:\n        /* \"#utility.yul\":5112:5653   */\n      swap6\n      swap5\n      pop\n      pop\n      pop\n      pop\n      pop\n      jump\t// out\n        /* \"#utility.yul\":5659:5988   */\n    tag_67:\n        /* \"#utility.yul\":5718:5724   */\n      0x00\n        /* \"#utility.yul\":5767:5769   */\n      0x20\n        /* \"#utility.yul\":5755:5764   */\n      dup3\n        /* \"#utility.yul\":5746:5753   */\n      dup5\n        /* \"#utility.yul\":5742:5765   */\n      sub\n        /* \"#utility.yul\":5738:5770   */\n      slt\n        /* \"#utility.yul\":5735:5854   */\n      iszero\n      tag_276\n      jumpi\n        /* \"#utility.yul\":5773:5852   */\n      tag_277\n      tag_170\n      jump\t// in\n    tag_277:\n        /* \"#utility.yul\":5735:5854   */\n    tag_276:\n        /* \"#utility.yul\":5893:5894   */\n      0x00\n        /* \"#utility.yul\":5918:5971   */\n      tag_278\n        /* \"#utility.yul\":5963:5970   */\n      dup5\n        /* \"#utility.yul\":5954:5960   */\n      dup3\n        /* \"#utility.yul\":5943:5952   */\n      dup6\n        /* \"#utility.yul\":5939:5961   */\n      add\n        /* \"#utility.yul\":5918:5971   */\n      tag_180\n      jump\t// in\n    tag_278:\n        /* \"#utility.yul\":5908:5971   */\n      swap2\n      pop\n        /* \"#utility.yul\":5864:5981   */\n      pop\n        /* \"#utility.yul\":5659:5988   */\n      swap3\n      swap2\n      pop\n      pop\n      jump\t// out\n        /* \"#utility.yul\":5994:6216   */\n    tag_70:\n        /* \"#utility.yul\":6087:6091   */\n      0x00\n        /* \"#utility.yul\":6125:6127   */\n      0x20\n        /* \"#utility.yul\":6114:6123   */\n      dup3\n        /* \"#utility.yul\":6110:6128   */\n      add\n        /* \"#utility.yul\":6102:6128   */\n      swap1\n      pop\n        /* \"#utility.yul\":6138:6209   */\n      tag_280\n        /* \"#utility.yul\":6206:6207   */\n      0x00\n        /* \"#utility.yul\":6195:6204   */\n      dup4\n        /* \"#utility.yul\":6191:6208   */\n      add\n        /* \"#utility.yul\":6182:6188   */\n      dup5\n        /* \"#utility.yul\":6138:6209   */\n      tag_189\n      jump\t// in\n    tag_280:\n        /* \"#utility.yul\":5994:6216   */\n      swap3\n      swap2\n      pop\n      pop\n      jump\t// out\n        /* \"#utility.yul\":6222:6391   */\n    tag_190:\n        /* \"#utility.yul\":6306:6317   */\n      0x00\n        /* \"#utility.yul\":6340:6346   */\n      dup3\n        /* \"#utility.yul\":6335:6338   */\n      dup3\n        /* \"#utility.yul\":6328:6347   */\n      mstore\n        /* \"#utility.yul\":6380:6384   */\n      0x20\n        /* \"#utility.yul\":6375:6378   */\n      dup3\n        /* \"#utility.yul\":6371:6385   */\n      add\n        /* \"#utility.yul\":6356:6385   */\n      swap1\n      pop\n        /* \"#utility.yul\":6222:6391   */\n      swap3\n      swap2\n      pop\n      pop\n      jump\t// out\n        /* \"#utility.yul\":6397:6623   */\n    tag_191:\n        /* \"#utility.yul\":6537:6571   */\n      0x436c69656e7452656769737472793a2063616c6c6572206973206e6f7420616e\n        /* \"#utility.yul\":6533:6534   */\n      0x00\n        /* \"#utility.yul\":6525:6531   */\n      dup3\n        /* \"#utility.yul\":6521:6535   */\n      add\n        /* \"#utility.yul\":6514:6572   */\n      mstore\n        /* \"#utility.yul\":6606:6615   */\n      0x2069737375657200000000000000000000000000000000000000000000000000\n        /* \"#utility.yul\":6601:6603   */\n      0x20\n        /* \"#utility.yul\":6593:6599   */\n      dup3\n        /* \"#utility.yul\":6589:6604   */\n      add\n        /* \"#utility.yul\":6582:6616   */\n      mstore\n        /* \"#utility.yul\":6397:6623   */\n      pop\n      jump\t// out\n        /* \"#utility.yul\":6629:6995   */\n    tag_192:\n        /* \"#utility.yul\":6771:6774   */\n      0x00\n        /* \"#utility.yul\":6792:6859   */\n      tag_284\n        /* \"#utility.yul\":6856:6858   */\n      0x27\n        /* \"#utility.yul\":6851:6854   */\n      dup4\n        /* \"#utility.yul\":6792:6859   */\n      tag_190\n      jump\t// in\n    tag_284:\n        /* \"#utility.yul\":6785:6859   */\n      swap2\n      pop\n        /* \"#utility.yul\":6868:6961   */\n      tag_285\n        /* \"#utility.yul\":6957:6960   */\n      dup3\n        /* \"#utility.yul\":6868:6961   */\n      tag_191\n      jump\t// in\n    tag_285:\n        /* \"#utility.yul\":6986:6988   */\n      0x40\n        /* \"#utility.yul\":6981:6984   */\n      dup3\n        /* \"#utility.yul\":6977:6989   */\n      add\n        /* \"#utility.yul\":6970:6989   */\n      swap1\n      pop\n        /* \"#utility.yul\":6629:6995   */\n      swap2\n      swap1\n      pop\n      jump\t// out\n        /* \"#utility.yul\":7001:7420   */\n    tag_86:\n        /* \"#utility.yul\":7167:7171   */\n      0x00\n        /* \"#utility.yul\":7205:7207   */\n      0x20\n        /* \"#utility.yul\":7194:7203   */\n      dup3\n        /* \"#utility.yul\":7190:7208   */\n      add\n        /* \"#utility.yul\":7182:7208   */\n      swap1\n      pop\n        /* \"#utility.yul\":7254:7263   */\n      dup2\n        /* \"#utility.yul\":7248:7252   */\n      dup2\n        /* \"#utility.yul\":7244:7264   */\n      sub\n        /* \"#utility.yul\":7240:7241   */\n      0x00\n        /* \"#utility.yul\":7229:7238   */\n      dup4\n        /* \"#utility.yul\":7225:7242   */\n      add\n        /* \"#utility.yul\":7218:7265   */\n      mstore\n        /* \"#utility.yul\":7282:7413   */\n      tag_287\n        /* \"#utility.yul\":7408:7412   */\n      dup2\n        /* \"#utility.yul\":7282:7413   */\n      tag_192\n      jump\t// in\n    tag_287:\n        /* \"#utility.yul\":7274:7413   */\n      swap1\n      pop\n        /* \"#utility.yul\":7001:7420   */\n      swap2\n      swap1\n      pop\n      jump\t// out\n        /* \"#utility.yul\":7426:7651   */\n    tag_193:\n        /* \"#utility.yul\":7566:7600   */\n      0x436c69656e7452656769737472793a20636c69656e74206973207a65726f2061\n        /* \"#utility.yul\":7562:7563   */\n      0x00\n        /* \"#utility.yul\":7554:7560   */\n      dup3\n        /* \"#utility.yul\":7550:7564   */\n      add\n        /* \"#utility.yul\":7543:7601   */\n      mstore\n        /* \"#utility.yul\":7635:7643   */\n      0x6464726573730000000000000000000000000000000000000000000000000000\n        /* \"#utility.yul\":7630:7632   */\n      0x20\n        /* \"#utility.yul\":7622:7628   */\n      dup3\n        /* \"#utility.yul\":7618:7633   */\n      add\n        /* \"#utility.yul\":7611:7644   */\n      mstore\n        /* \"#utility.yul\":7426:7651   */\n      pop\n      jump\t// out\n        /* \"#utility.yul\":7657:8023   */\n    tag_194:\n        /* \"#utility.yul\":7799:7802   */\n      0x00\n        /* \"#utility.yul\":7820:7887   */\n      tag_290\n        /* \"#utility.yul\":7884:7886   */\n      0x26\n        /* \"#utility.yul\":7879:7882   */\n      dup4\n        /* \"#utility.yul\":7820:7887   */\n      tag_190\n      jump\t// in\n    tag_290:\n        /* \"#utility.yul\":7813:7887   */\n      swap2\n      pop\n        /* \"#utility.yul\":7896:7989   */\n      tag_291\n        /* \"#utility.yul\":7985:7988   */\n      dup3\n        /* \"#utility.yul\":7896:7989   */\n      tag_193\n      jump\t// in\n    tag_291:\n        /* \"#utility.yul\":8014:8016   */\n      0x40\n        /* \"#utility.yul\":8009:8012   */\n      dup3\n        /* \"#utility.yul\":8005:8017   */\n      add\n        /* \"#utility.yul\":7998:8017   */\n      swap1\n      pop\n        /* \"#utility.yul\":7657:8023   */\n      swap2\n      swap1\n      pop\n      jump\t// out\n        /* \"#utility.yul\":8029:8448   */\n    tag_90:\n        /* \"#utility.yul\":8195:8199   */\n      0x00\n        /* \"#utility.yul\":8233:8235   */\n      0x20\n        /* \"#utility.yul\":8222:8231   */\n      dup3\n        /* \"#utility.yul\":8218:8236   */\n      add\n        /* \"#utility.yul\":8210:8236   */\n      swap1\n      pop\n        /* \"#utility.yul\":8282:8291   */\n      dup2\n        /* \"#utility.yul\":8276:8280   */\n      dup2\n        /* \"#utility.yul\":8272:8292   */\n      sub\n        /* \"#utility.yul\":8268:8269   */\n      0x00\n        /* \"#utility.yul\":8257:8266   */\n      dup4\n        /* \"#utility.yul\":8253:8270   */\n      add\n        /* \"#utility.yul\":8246:8293   */\n      mstore\n        /* \"#utility.yul\":8310:8441   */\n      tag_293\n        /* \"#utility.yul\":8436:8440   */\n      dup2\n        /* \"#utility.yul\":8310:8441   */\n      tag_194\n      jump\t// in\n    tag_293:\n        /* \"#utility.yul\":8302:8441   */\n      swap1\n      pop\n        /* \"#utility.yul\":8029:8448   */\n      swap2\n      swap1\n      pop\n      jump\t// out\n        /* \"#utility.yul\":8454:8786   */\n    tag_93:\n        /* \"#utility.yul\":8575:8579   */\n      0x00\n        /* \"#utility.yul\":8613:8615   */\n      0x40\n        /* \"#utility.yul\":8602:8611   */\n      dup3\n        /* \"#utility.yul\":8598:8616   */\n      add\n        /* \"#utility.yul\":8590:8616   */\n      swap1\n      pop\n        /* \"#utility.yul\":8626:8697   */\n      tag_295\n        /* \"#utility.yul\":8694:8695   */\n      0x00\n        /* \"#utility.yul\":8683:8692   */\n      dup4\n        /* \"#utility.yul\":8679:8696   */\n      add\n        /* \"#utility.yul\":8670:8676   */\n      dup6\n        /* \"#utility.yul\":8626:8697   */\n      tag_184\n      jump\t// in\n    tag_295:\n        /* \"#utility.yul\":8707:8779   */\n      tag_296\n        /* \"#utility.yul\":8775:8777   */\n      0x20\n        /* \"#utility.yul\":8764:8773   */\n      dup4\n        /* \"#utility.yul\":8760:8778   */\n      add\n        /* \"#utility.yul\":8751:8757   */\n      dup5\n        /* \"#utility.yul\":8707:8779   */\n      tag_189\n      jump\t// in\n    tag_296:\n        /* \"#utility.yul\":8454:8786   */\n      swap4\n      swap3\n      pop\n      pop\n      pop\n      jump\t// out\n        /* \"#utility.yul\":8792:9018   */\n    tag_195:\n        /* \"#utility.yul\":8932:8966   */\n      0x436c69656e7452656769737472793a2063616c6c6572206973206e6f74206120\n        /* \"#utility.yul\":8928:8929   */\n      0x00\n        /* \"#utility.yul\":8920:8926   */\n      dup3\n        /* \"#utility.yul\":8916:8930   */\n      add\n        /* \"#utility.yul\":8909:8967   */\n      mstore\n        /* \"#utility.yul\":9001:9010   */\n      0x7265766f6b657200000000000000000000000000000000000000000000000000\n        /* \"#utility.yul\":8996:8998   */\n      0x20\n        /* \"#utility.yul\":8988:8994   */\n      dup3\n        /* \"#utility.yul\":8984:8999   */\n      add\n        /* \"#utility.yul\":8977:9011   */\n      mstore\n        /* \"#utility.yul\":8792:9018   */\n      pop\n      jump\t// out\n        /* \"#utility.yul\":9024:9390   */\n    tag_196:\n        /* \"#utility.yul\":9166:9169   */\n      0x00\n        /* \"#utility.yul\":9187:9254   */\n      tag_299\n        /* \"#utility.yul\":9251:9253   */\n      0x27\n        /* \"#utility.yul\":9246:9249   */\n      dup4\n        /* \"#utility.yul\":9187:9254   */\n      tag_190\n      jump\t// in\n    tag_299:\n        /* \"#utility.yul\":9180:9254   */\n      swap2\n      pop\n        /* \"#utility.yul\":9263:9356   */\n      tag_300\n        /* \"#utility.yul\":9352:9355   */\n      dup3\n        /* \"#utility.yul\":9263:9356   */\n      tag_195\n      jump\t// in\n    tag_300:\n        /* \"#utility.yul\":9381:9383   */\n      0x40\n        /* \"#utility.yul\":9376:9379   */\n      dup3\n        /* \"#utility.yul\":9372:9384   */\n      add\n        /* \"#utility.yul\":9365:9384   */\n      swap1\n      pop\n        /* \"#utility.yul\":9024:9390   */\n      swap2\n      swap1\n      pop\n      jump\t// out\n        /* \"#utility.yul\":9396:9815   */\n    tag_112:\n        /* \"#utility.yul\":9562:9566   */\n      0x00\n        /* \"#utility.yul\":9600:9602   */\n      0x20\n        /* \"#utility.yul\":9589:9598   */\n      dup3\n        /* \"#utility.yul\":9585:9603   */\n      add\n        /* \"#utility.yul\":9577:9603   */\n      swap1\n      pop\n        /* \"#utility.yul\":9649:9658   */\n      dup2\n        /* \"#utility.yul\":9643:9647   */\n      dup2\n        /* \"#utility.yul\":9639:9659   */\n      sub\n        /* \"#utility.yul\":9635:9636   */\n      0x00\n        /* \"#utility.yul\":9624:9633   */\n      dup4\n        /* \"#utility.yul\":9620:9637   */\n      add\n        /* \"#utility.yul\":9613:9660   */\n      mstore\n        /* \"#utility.yul\":9677:9808   */\n      tag_302\n        /* \"#utility.yul\":9803:9807   */\n      dup2\n        /* \"#utility.yul\":9677:9808   */\n      tag_196\n      jump\t// in\n    tag_302:\n        /* \"#utility.yul\":9669:9808   */\n      swap1\n      pop\n        /* \"#utility.yul\":9396:9815   */\n      swap2\n      swap1\n      pop\n      jump\t// out\n        /* \"#utility.yul\":9821:9997   */\n    tag_197:\n        /* \"#utility.yul\":9961:9989   */\n      0x436c69656e7452656769737472793a206e6f207265636f726473000000000000\n        /* \"#utility.yul\":9957:9958   */\n      0x00\n        /* \"#utility.yul\":9949:9955   */\n      dup3\n        /* \"#utility.yul\":9945:9959   */\n      add\n        /* \"#utility.yul\":9938:9990   */\n      mstore\n        /* \"#utility.yul\":9821:9997   */\n      pop\n      jump\t// out\n        /* \"#utility.yul\":10003:10369   */\n    tag_198:\n        /* \"#utility.yul\":10145:10148   */\n      0x00\n        /* \"#utility.yul\":10166:10233   */\n      tag_305\n        /* \"#utility.yul\":10230:10232   */\n      0x1a\n        /* \"#utility.yul\":10225:10228   */\n      dup4\n        /* \"#utility.yul\":10166:10233   */\n      tag_190\n      jump\t// in\n    tag_305:\n        /* \"#utility.yul\":10159:10233   */\n      swap2\n      pop\n        /* \"#utility.yul\":10242:10335   */\n      tag_306\n        /* \"#utility.yul\":10331:10334   */\n      dup3\n        /* \"#utility.yul\":10242:10335   */\n      tag_197\n      jump\t// in\n    tag_306:\n        /* \"#utility.yul\":10360:10362   */\n      0x20\n        /* \"#utility.yul\":10355:10358   */\n      dup3\n        /* \"#utility.yul\":10351:10363   */\n      add\n        /* \"#utility.yul\":10344:10363   */\n      swap1\n      pop\n        /* \"#utility.yul\":10003:10369   */\n      swap2\n      swap1\n      pop\n      jump\t// out\n        /* \"#utility.yul\":10375:10794   */\n    tag_116:\n        /* \"#utility.yul\":10541:10545   */\n      0x00\n        /* \"#utility.yul\":10579:10581   */\n      0x20\n        /* \"#utility.yul\":10568:10577   */\n      dup3\n        /* \"#utility.yul\":10564:10582   */\n      add\n        /* \"#utility.yul\":10556:10582   */\n      swap1\n      pop\n        /* \"#utility.yul\":10628:10637   */\n      dup2\n        /* \"#utility.yul\":10622:10626   */\n      dup2\n        /* \"#utility.yul\":10618:10638   */\n      sub\n        /* \"#utility.yul\":10614:10615   */\n      0x00\n        /* \"#utility.yul\":10603:10612   */\n      dup4\n        /* \"#utility.yul\":10599:10616   */\n      add\n        /* \"#utility.yul\":10592:10639   */\n      mstore\n        /* \"#utility.yul\":10656:10787   */\n      tag_308\n        /* \"#utility.yul\":10782:10786   */\n      dup2\n        /* \"#utility.yul\":10656:10787   */\n      tag_198\n      jump\t// in\n    tag_308:\n        /* \"#utility.yul\":10648:10787   */\n      swap1\n      pop\n        /* \"#utility.yul\":10375:10794   */\n      swap2\n      swap1\n      pop\n      jump\t// out\n        /* \"#utility.yul\":10800:10980   */\n    tag_199:\n        /* \"#utility.yul\":10848:10925   */\n      0x4e487b7100000000000000000000000000000000000000000000000000000000\n        /* \"#utility.yul\":10845:10846   */\n      0x00\n        /* \"#utility.yul\":10838:10926   */\n      mstore\n        /* \"#utility.yul\":10945:10949   */\n      0x11\n        /* \"#utility.yul\":10942:10943   */\n      0x04\n        /* \"#utility.yul\":10935:10950   */\n      mstore\n        /* \"#utility.yul\":10969:10973   */\n      0x24\n        /* \"#utility.yul\":10966:10967   */\n      0x00\n        /* \"#utility.yul\":10959:10974   */\n      revert\n        /* \"#utility.yul\":10986:11180   */\n    tag_118:\n        /* \"#utility.yul\":11026:11030   */\n      0x00\n        /* \"#utility.yul\":11046:11066   */\n      tag_311\n        /* \"#utility.yul\":11064:11065   */\n      dup3\n        /* \"#utility.yul\":11046:11066   */\n      tag_185\n      jump\t// in\n    tag_311:\n        /* \"#utility.yul\":11041:11066   */\n      swap2\n      pop\n        /* \"#utility.yul\":11080:11100   */\n      tag_312\n        /* \"#utility.yul\":11098:11099   */\n      dup4\n        /* \"#utility.yul\":11080:11100   */\n      tag_185\n      jump\t// in\n    tag_312:\n        /* \"#utility.yul\":11075:11100   */\n      swap3\n      pop\n        /* \"#utility.yul\":11124:11125   */\n      dup3\n        /* \"#utility.yul\":11121:11122   */\n      dup3\n        /* \"#utility.yul\":11117:11126   */\n      sub\n        /* \"#utility.yul\":11109:11126   */\n      swap1\n      pop\n        /* \"#utility.yul\":11148:11149   */\n      dup2\n        /* \"#utility.yul\":11142:11146   */\n      dup2\n        /* \"#utility.yul\":11139:11150   */\n      gt\n        /* \"#utility.yul\":11136:11173   */\n      iszero\n      tag_313\n      jumpi\n        /* \"#utility.yul\":11153:11171   */\n      tag_314\n      tag_199\n      jump\t// in\n    tag_314:\n        /* \"#utility.yul\":11136:11173   */\n    tag_313:\n        /* \"#utility.yul\":10986:11180   */\n      swap3\n      swap2\n      pop\n      pop\n      jump\t// out\n        /* \"#utility.yul\":11186:11366   */\n    tag_121:\n        /* \"#utility.yul\":11234:11311   */\n      0x4e487b7100000000000000000000000000000000000000000000000000000000\n        /* \"#utility.yul\":11231:11232   */\n      0x00\n        /* \"#utility.yul\":11224:11312   */\n      mstore\n        /* \"#utility.yul\":11331:11335   */\n      0x32\n        /* \"#utility.yul\":11328:11329   */\n      0x04\n        /* \"#utility.yul\":11321:11336   */\n      mstore\n        /* \"#utility.yul\":11355:11359   */\n      0x24\n        /* \"#utility.yul\":11352:11353   */\n      0x00\n        /* \"#utility.yul\":11345:11360   */\n      revert\n        /* \"#utility.yul\":11372:11592   */\n    tag_200:\n        /* \"#utility.yul\":11512:11546   */\n      0x436c69656e7452656769737472793a206461746148617368206d69736d617463\n        /* \"#utility.yul\":11508:11509   */\n      0x00\n        /* \"#utility.yul\":11500:11506   */\n      dup3\n        /* \"#utility.yul\":11496:11510   */\n      add\n        /* \"#utility.yul\":11489:11547   */\n      mstore\n        /* \"#utility.yul\":11581:11584   */\n      0x6800000000000000000000000000000000000000000000000000000000000000\n        /* \"#utility.yul\":11576:11578   */\n      0x20\n        /* \"#utility.yul\":11568:11574   */\n      dup3\n        /* \"#utility.yul\":11564:11579   */\n      add\n        /* \"#utility.yul\":11557:11585   */\n      mstore\n        /* \"#utility.yul\":11372:11592   */\n      pop\n      jump\t// out\n        /* \"#utility.yul\":11598:11964   */\n    tag_201:\n        /* \"#utility.yul\":11740:11743   */\n      0x00\n        /* \"#utility.yul\":11761:11828   */\n      tag_318\n        /* \"#utility.yul\":11825:11827   */\n      0x21\n        /* \"#utility.yul\":11820:11823   */\n      dup4\n        /* \"#utility.yul\":11761:11828   */\n      tag_190\n      jump\t// in\n    tag_318:\n        /* \"#utility.yul\":11754:11828   */\n      swap2\n      pop\n        /* \"#utility.yul\":11837:11930   */\n      tag_319\n        /* \"#utility.yul\":11926:11929   */\n      dup3\n        /* \"#utility.yul\":11837:11930   */\n      tag_200\n      jump\t// in\n    tag_319:\n        /* \"#utility.yul\":11955:11957   */\n      0x40\n        /* \"#utility.yul\":11950:11953   */\n      dup3\n        /* \"#utility.yul\":11946:11958   */\n      add\n        /* \"#utility.yul\":11939:11958   */\n      swap1\n      pop\n        /* \"#utility.yul\":11598:11964   */\n      swap2\n      swap1\n      pop\n      jump\t// out\n        /* \"#utility.yul\":11970:12389   */\n    tag_125:\n        /* \"#utility.yul\":12136:12140   */\n      0x00\n        /* \"#utility.yul\":12174:12176   */\n      0x20\n        /* \"#utility.yul\":12163:12172   */\n      dup3\n        /* \"#utility.yul\":12159:12177   */\n      add\n        /* \"#utility.yul\":12151:12177   */\n      swap1\n      pop\n        /* \"#utility.yul\":12223:12232   */\n      dup2\n        /* \"#utility.yul\":12217:12221   */\n      dup2\n        /* \"#utility.yul\":12213:12233   */\n      sub\n        /* \"#utility.yul\":12209:12210   */\n      0x00\n        /* \"#utility.yul\":12198:12207   */\n      dup4\n        /* \"#utility.yul\":12194:12211   */\n      add\n        /* \"#utility.yul\":12187:12234   */\n      mstore\n        /* \"#utility.yul\":12251:12382   */\n      tag_321\n        /* \"#utility.yul\":12377:12381   */\n      dup2\n        /* \"#utility.yul\":12251:12382   */\n      tag_201\n      jump\t// in\n    tag_321:\n        /* \"#utility.yul\":12243:12382   */\n      swap1\n      pop\n        /* \"#utility.yul\":11970:12389   */\n      swap2\n      swap1\n      pop\n      jump\t// out\n        /* \"#utility.yul\":12395:12570   */\n    tag_202:\n        /* \"#utility.yul\":12535:12562   */\n      0x436c69656e7452656769737472793a20696e646578204f4f4200000000000000\n        /* \"#utility.yul\":12531:12532   */\n      0x00\n        /* \"#utility.yul\":12523:12529   */\n      dup3\n        /* \"#utility.yul\":12519:12533   */\n      add\n        /* \"#utility.yul\":12512:12563   */\n      mstore\n        /* \"#utility.yul\":12395:12570   */\n      pop\n      jump\t// out\n        /* \"#utility.yul\":12576:12942   */\n    tag_203:\n        /* \"#utility.yul\":12718:12721   */\n      0x00\n        /* \"#utility.yul\":12739:12806   */\n      tag_324\n        /* \"#utility.yul\":12803:12805   */\n      0x19\n        /* \"#utility.yul\":12798:12801   */\n      dup4\n        /* \"#utility.yul\":12739:12806   */\n      tag_190\n      jump\t// in\n    tag_324:\n        /* \"#utility.yul\":12732:12806   */\n      swap2\n      pop\n        /* \"#utility.yul\":12815:12908   */\n      tag_325\n        /* \"#utility.yul\":12904:12907   */\n      dup3\n        /* \"#utility.yul\":12815:12908   */\n      tag_202\n      jump\t// in\n    tag_325:\n        /* \"#utility.yul\":12933:12935   */\n      0x20\n        /* \"#utility.yul\":12928:12931   */\n      dup3\n        /* \"#utility.yul\":12924:12936   */\n      add\n        /* \"#utility.yul\":12917:12936   */\n      swap1\n      pop\n        /* \"#utility.yul\":12576:12942   */\n      swap2\n      swap1\n      pop\n      jump\t// out\n        /* \"#utility.yul\":12948:13367   */\n    tag_131:\n        /* \"#utility.yul\":13114:13118   */\n      0x00\n        /* \"#utility.yul\":13152:13154   */\n      0x20\n        /* \"#utility.yul\":13141:13150   */\n      dup3\n        /* \"#utility.yul\":13137:13155   */\n      add\n        /* \"#utility.yul\":13129:13155   */\n      swap1\n      pop\n        /* \"#utility.yul\":13201:13210   */\n      dup2\n        /* \"#utility.yul\":13195:13199   */\n      dup2\n        /* \"#utility.yul\":13191:13211   */\n      sub\n        /* \"#utility.yul\":13187:13188   */\n      0x00\n        /* \"#utility.yul\":13176:13185   */\n      dup4\n        /* \"#utility.yul\":13172:13189   */\n      add\n        /* \"#utility.yul\":13165:13212   */\n      mstore\n        /* \"#utility.yul\":13229:13360   */\n      tag_327\n        /* \"#utility.yul\":13355:13359   */\n      dup2\n        /* \"#utility.yul\":13229:13360   */\n      tag_203\n      jump\t// in\n    tag_327:\n        /* \"#utility.yul\":13221:13360   */\n      swap1\n      pop\n        /* \"#utility.yul\":12948:13367   */\n      swap2\n      swap1\n      pop\n      jump\t// out\n        /* \"#utility.yul\":13373:13705   */\n    tag_168:\n        /* \"#utility.yul\":13494:13498   */\n      0x00\n        /* \"#utility.yul\":13532:13534   */\n      0x40\n        /* \"#utility.yul\":13521:13530   */\n      dup3\n        /* \"#utility.yul\":13517:13535   */\n      add\n        /* \"#utility.yul\":13509:13535   */\n      swap1\n      pop\n        /* \"#utility.yul\":13545:13616   */\n      tag_329\n        /* \"#utility.yul\":13613:13614   */\n      0x00\n        /* \"#utility.yul\":13602:13611   */\n      dup4\n        /* \"#utility.yul\":13598:13615   */\n      add\n        /* \"#utility.yul\":13589:13595   */\n      dup6\n        /* \"#utility.yul\":13545:13616   */\n      tag_188\n      jump\t// in\n    tag_329:\n        /* \"#utility.yul\":13626:13698   */\n      tag_330\n        /* \"#utility.yul\":13694:13696   */\n      0x20\n        /* \"#utility.yul\":13683:13692   */\n      dup4\n        /* \"#utility.yul\":13679:13697   */\n      add\n        /* \"#utility.yul\":13670:13676   */\n      dup5\n        /* \"#utility.yul\":13626:13698   */\n      tag_184\n      jump\t// in\n    tag_330:\n        /* \"#utility.yul\":13373:13705   */\n      swap4\n      swap3\n      pop\n      pop\n      pop\n      jump\t// out\n\n    auxdata: 0xa2646970667358221220039a6790dc79d5d4f7713995addea148b2e63908c685cfa203892fb4079d9ce664736f6c634300081e0033\n}\n",
				"bytecode": {
					"linkReferences": {},
					"object": "608060405234801561000f575f5ffd5b506040516118db3803806118db83398181016040528101906100319190610269565b6100435f5f1b826100ac60201b60201c565b506100747f114e74f6ea3bd819998f78687bfcb11b140da08e9b7d222fa9c1f1ba1f2aa122826100ac60201b60201c565b506100a57fce3f34913921da558f105cefb578d87278debbbd073a8d552b5de0d168deee30826100ac60201b60201c565b5050610294565b5f6100bd83836101a160201b60201c565b6101975760015f5f8581526020019081526020015f205f015f8473ffffffffffffffffffffffffffffffffffffffff1673ffffffffffffffffffffffffffffffffffffffff1681526020019081526020015f205f6101000a81548160ff02191690831515021790555061013461020460201b60201c565b73ffffffffffffffffffffffffffffffffffffffff168273ffffffffffffffffffffffffffffffffffffffff16847f2f8788117e7eff1d82e926ec794901d17c78024a50270940304540a733656f0d60405160405180910390a46001905061019b565b5f90505b92915050565b5f5f5f8481526020019081526020015f205f015f8373ffffffffffffffffffffffffffffffffffffffff1673ffffffffffffffffffffffffffffffffffffffff1681526020019081526020015f205f9054906101000a900460ff16905092915050565b5f33905090565b5f5ffd5b5f73ffffffffffffffffffffffffffffffffffffffff82169050919050565b5f6102388261020f565b9050919050565b6102488161022e565b8114610252575f5ffd5b50565b5f815190506102638161023f565b92915050565b5f6020828403121561027e5761027d61020b565b5b5f61028b84828501610255565b91505092915050565b61163a806102a15f395ff3fe608060405234801561000f575f5ffd5b50600436106100e8575f3560e01c806382aefa241161008a578063b8cdd6b111610064578063b8cdd6b114610246578063ba63245d14610279578063d547741f146102a9578063fbe30dee146102c5576100e8565b806382aefa24146101da57806391d14854146101f8578063a217fddf14610228576100e8565b80632f2ff15d116100c65780632f2ff15d1461016857806336568abe146101845780635f615fbb146101a05780637c4acabf146101bc576100e8565b806301ffc9a7146100ec57806322fa48881461011c578063248a9ca314610138575b5f5ffd5b61010660048036038101906101019190610f41565b6102f8565b6040516101139190610f86565b60405180910390f35b6101366004803603810190610131919061102c565b610371565b005b610152600480360381019061014d919061106a565b6105cd565b60405161015f91906110a4565b60405180910390f35b610182600480360381019061017d91906110bd565b6105e9565b005b61019e600480360381019061019991906110bd565b61060b565b005b6101ba60048036038101906101b5919061102c565b610686565b005b6101c46108ae565b6040516101d191906110a4565b60405180910390f35b6101e26108d2565b6040516101ef91906110a4565b60405180910390f35b610212600480360381019061020d91906110bd565b6108f6565b60405161021f9190610f86565b60405180910390f35b610230610959565b60405161023d91906110a4565b60405180910390f35b610260600480360381019061025b919061112e565b61095f565b604051610270949392919061118a565b60405180910390f35b610293600480360381019061028e91906111cd565b610a93565b6040516102a091906111f8565b60405180910390f35b6102c360048036038101906102be91906110bd565b610adc565b005b6102df60048036038101906102da91906111cd565b610afe565b6040516102ef949392919061118a565b60405180910390f35b5f7f7965db0b000000000000000000000000000000000000000000000000000000007bffffffffffffffffffffffffffffffffffffffffffffffffffffffff1916827bffffffffffffffffffffffffffffffffffffffffffffffffffffffff1916148061036a575061036982610c41565b5b9050919050565b61039b7f114e74f6ea3bd819998f78687bfcb11b140da08e9b7d222fa9c1f1ba1f2aa122336108f6565b6103da576040517f08c379a00000000000000000000000000000000000000000000000000000000081526004016103d190611291565b60405180910390fd5b5f73ffffffffffffffffffffffffffffffffffffffff168273ffffffffffffffffffffffffffffffffffffffff1603610448576040517f08c379a000000000000000000000000000000000000000000000000000000000815260040161043f9061131f565b60405180910390fd5b5f60405180608001604052803373ffffffffffffffffffffffffffffffffffffffff1681526020014281526020018381526020015f1515815250905060015f8473ffffffffffffffffffffffffffffffffffffffff1673ffffffffffffffffffffffffffffffffffffffff1681526020019081526020015f2081908060018154018082558091505060019003905f5260205f2090600402015f909190919091505f820151815f015f6101000a81548173ffffffffffffffffffffffffffffffffffffffff021916908373ffffffffffffffffffffffffffffffffffffffff16021790555060208201518160010155604082015181600201556060820151816003015f6101000a81548160ff02191690831515021790555050503373ffffffffffffffffffffffffffffffffffffffff168373ffffffffffffffffffffffffffffffffffffffff167f37aa684287f2c7aab9feb2a3d555c05cb051f1612973da386bfc54940209554584426040516105c092919061133d565b60405180910390a3505050565b5f5f5f8381526020019081526020015f20600101549050919050565b6105f2826105cd565b6105fb81610caa565b6106058383610cbe565b50505050565b610613610da7565b73ffffffffffffffffffffffffffffffffffffffff168173ffffffffffffffffffffffffffffffffffffffff1614610677576040517f6697b23200000000000000000000000000000000000000000000000000000000815260040160405180910390fd5b6106818282610dae565b505050565b6106b07fce3f34913921da558f105cefb578d87278debbbd073a8d552b5de0d168deee30336108f6565b6106ef576040517f08c379a00000000000000000000000000000000000000000000000000000000081526004016106e6906113d4565b60405180910390fd5b5f60015f8473ffffffffffffffffffffffffffffffffffffffff1673ffffffffffffffffffffffffffffffffffffffff1681526020019081526020015f208054905090505f8111610775576040517f08c379a000000000000000000000000000000000000000000000000000000000815260040161076c9061143c565b60405180910390fd5b5f60015f8573ffffffffffffffffffffffffffffffffffffffff1673ffffffffffffffffffffffffffffffffffffffff1681526020019081526020015f206001836107c09190611487565b815481106107d1576107d06114ba565b5b905f5260205f209060040201905082816002015414610825576040517f08c379a000000000000000000000000000000000000000000000000000000000815260040161081c90611557565b60405180910390fd5b6001816003015f6101000a81548160ff0219169083151502179055503373ffffffffffffffffffffffffffffffffffffffff168473ffffffffffffffffffffffffffffffffffffffff167f0a55bc03c911eb5e112898a2734cb88a312466be1703595eacd254532508854085426040516108a092919061133d565b60405180910390a350505050565b7fce3f34913921da558f105cefb578d87278debbbd073a8d552b5de0d168deee3081565b7f114e74f6ea3bd819998f78687bfcb11b140da08e9b7d222fa9c1f1ba1f2aa12281565b5f5f5f8481526020019081526020015f205f015f8373ffffffffffffffffffffffffffffffffffffffff1673ffffffffffffffffffffffffffffffffffffffff1681526020019081526020015f205f9054906101000a900460ff16905092915050565b5f5f1b81565b5f5f5f5f60015f8773ffffffffffffffffffffffffffffffffffffffff1673ffffffffffffffffffffffffffffffffffffffff1681526020019081526020015f208054905085106109e5576040517f08c379a00000000000000000000000000000000000000000000000000000000081526004016109dc906115bf565b60405180910390fd5b5f60015f8873ffffffffffffffffffffffffffffffffffffffff1673ffffffffffffffffffffffffffffffffffffffff1681526020019081526020015f208681548110610a3557610a346114ba565b5b905f5260205f2090600402019050805f015f9054906101000a900473ffffffffffffffffffffffffffffffffffffffff1681600101548260020154836003015f9054906101000a900460ff1694509450945094505092959194509250565b5f60015f8373ffffffffffffffffffffffffffffffffffffffff1673ffffffffffffffffffffffffffffffffffffffff1681526020019081526020015f20805490509050919050565b610ae5826105cd565b610aee81610caa565b610af88383610dae565b50505050565b5f5f5f5f5f60015f8773ffffffffffffffffffffffffffffffffffffffff1673ffffffffffffffffffffffffffffffffffffffff1681526020019081526020015f208054905090505f8111610b88576040517f08c379a0000000000000000000000000000000000000000000000000000000008152600401610b7f9061143c565b60405180910390fd5b5f60015f8873ffffffffffffffffffffffffffffffffffffffff1673ffffffffffffffffffffffffffffffffffffffff1681526020019081526020015f20600183610bd39190611487565b81548110610be457610be36114ba565b5b905f5260205f2090600402019050805f015f9054906101000a900473ffffffffffffffffffffffffffffffffffffffff1681600101548260020154836003015f9054906101000a900460ff16955095509550955050509193509193565b5f7f01ffc9a7000000000000000000000000000000000000000000000000000000007bffffffffffffffffffffffffffffffffffffffffffffffffffffffff1916827bffffffffffffffffffffffffffffffffffffffffffffffffffffffff1916149050919050565b610cbb81610cb6610da7565b610e97565b50565b5f610cc983836108f6565b610d9d5760015f5f8581526020019081526020015f205f015f8473ffffffffffffffffffffffffffffffffffffffff1673ffffffffffffffffffffffffffffffffffffffff1681526020019081526020015f205f6101000a81548160ff021916908315150217905550610d3a610da7565b73ffffffffffffffffffffffffffffffffffffffff168273ffffffffffffffffffffffffffffffffffffffff16847f2f8788117e7eff1d82e926ec794901d17c78024a50270940304540a733656f0d60405160405180910390a460019050610da1565b5f90505b92915050565b5f33905090565b5f610db983836108f6565b15610e8d575f5f5f8581526020019081526020015f205f015f8473ffffffffffffffffffffffffffffffffffffffff1673ffffffffffffffffffffffffffffffffffffffff1681526020019081526020015f205f6101000a81548160ff021916908315150217905550610e2a610da7565b73ffffffffffffffffffffffffffffffffffffffff168273ffffffffffffffffffffffffffffffffffffffff16847ff6391f5c32d9c69d2a47ea670b442974b53935d1edc7fd64eb21e047a839171b60405160405180910390a460019050610e91565b5f90505b92915050565b610ea182826108f6565b610ee45780826040517fe2517d3f000000000000000000000000000000000000000000000000000000008152600401610edb9291906115dd565b60405180910390fd5b5050565b5f5ffd5b5f7fffffffff0000000000000000000000000000000000000000000000000000000082169050919050565b610f2081610eec565b8114610f2a575f5ffd5b50565b5f81359050610f3b81610f17565b92915050565b5f60208284031215610f5657610f55610ee8565b5b5f610f6384828501610f2d565b91505092915050565b5f8115159050919050565b610f8081610f6c565b82525050565b5f602082019050610f995f830184610f77565b92915050565b5f73ffffffffffffffffffffffffffffffffffffffff82169050919050565b5f610fc882610f9f565b9050919050565b610fd881610fbe565b8114610fe2575f5ffd5b50565b5f81359050610ff381610fcf565b92915050565b5f819050919050565b61100b81610ff9565b8114611015575f5ffd5b50565b5f8135905061102681611002565b92915050565b5f5f6040838503121561104257611041610ee8565b5b5f61104f85828601610fe5565b925050602061106085828601611018565b9150509250929050565b5f6020828403121561107f5761107e610ee8565b5b5f61108c84828501611018565b91505092915050565b61109e81610ff9565b82525050565b5f6020820190506110b75f830184611095565b92915050565b5f5f604083850312156110d3576110d2610ee8565b5b5f6110e085828601611018565b92505060206110f185828601610fe5565b9150509250929050565b5f819050919050565b61110d816110fb565b8114611117575f5ffd5b50565b5f8135905061112881611104565b92915050565b5f5f6040838503121561114457611143610ee8565b5b5f61115185828601610fe5565b92505060206111628582860161111a565b9150509250929050565b61117581610fbe565b82525050565b611184816110fb565b82525050565b5f60808201905061119d5f83018761116c565b6111aa602083018661117b565b6111b76040830185611095565b6111c46060830184610f77565b95945050505050565b5f602082840312156111e2576111e1610ee8565b5b5f6111ef84828501610fe5565b91505092915050565b5f60208201905061120b5f83018461117b565b92915050565b5f82825260208201905092915050565b7f436c69656e7452656769737472793a2063616c6c6572206973206e6f7420616e5f8201527f2069737375657200000000000000000000000000000000000000000000000000602082015250565b5f61127b602783611211565b915061128682611221565b604082019050919050565b5f6020820190508181035f8301526112a88161126f565b9050919050565b7f436c69656e7452656769737472793a20636c69656e74206973207a65726f20615f8201527f6464726573730000000000000000000000000000000000000000000000000000602082015250565b5f611309602683611211565b9150611314826112af565b604082019050919050565b5f6020820190508181035f830152611336816112fd565b9050919050565b5f6040820190506113505f830185611095565b61135d602083018461117b565b9392505050565b7f436c69656e7452656769737472793a2063616c6c6572206973206e6f742061205f8201527f7265766f6b657200000000000000000000000000000000000000000000000000602082015250565b5f6113be602783611211565b91506113c982611364565b604082019050919050565b5f6020820190508181035f8301526113eb816113b2565b9050919050565b7f436c69656e7452656769737472793a206e6f207265636f7264730000000000005f82015250565b5f611426601a83611211565b9150611431826113f2565b602082019050919050565b5f6020820190508181035f8301526114538161141a565b9050919050565b7f4e487b71000000000000000000000000000000000000000000000000000000005f52601160045260245ffd5b5f611491826110fb565b915061149c836110fb565b92508282039050818111156114b4576114b361145a565b5b92915050565b7f4e487b71000000000000000000000000000000000000000000000000000000005f52603260045260245ffd5b7f436c69656e7452656769737472793a206461746148617368206d69736d6174635f8201527f6800000000000000000000000000000000000000000000000000000000000000602082015250565b5f611541602183611211565b915061154c826114e7565b604082019050919050565b5f6020820190508181035f83015261156e81611535565b9050919050565b7f436c69656e7452656769737472793a20696e646578204f4f42000000000000005f82015250565b5f6115a9601983611211565b91506115b482611575565b602082019050919050565b5f6020820190508181035f8301526115d68161159d565b9050919050565b5f6040820190506115f05f83018561116c565b6115fd6020830184611095565b939250505056fea2646970667358221220039a6790dc79d5d4f7713995addea148b2e63908c685cfa203892fb4079d9ce664736f6c634300081e0033",
					"opcodes": "PUSH1 0x80 PUSH1 0x40 MSTORE CALLVALUE DUP1 ISZERO PUSH2 0xF JUMPI PUSH0 PUSH0 REVERT JUMPDEST POP PUSH1 0x40 MLOAD PUSH2 0x18DB CODESIZE SUB DUP1 PUSH2 0x18DB DUP4 CODECOPY DUP2 DUP2 ADD PUSH1 0x40 MSTORE DUP2 ADD SWAP1 PUSH2 0x31 SWAP2 SWAP1 PUSH2 0x269 JUMP JUMPDEST PUSH2 0x43 PUSH0 PUSH0 SHL DUP3 PUSH2 0xAC PUSH1 0x20 SHL PUSH1 0x20 SHR JUMP JUMPDEST POP PUSH2 0x74 PUSH32 0x114E74F6EA3BD819998F78687BFCB11B140DA08E9B7D222FA9C1F1BA1F2AA122 DUP3 PUSH2 0xAC PUSH1 0x20 SHL PUSH1 0x20 SHR JUMP JUMPDEST POP PUSH2 0xA5 PUSH32 0xCE3F34913921DA558F105CEFB578D87278DEBBBD073A8D552B5DE0D168DEEE30 DUP3 PUSH2 0xAC PUSH1 0x20 SHL PUSH1 0x20 SHR JUMP JUMPDEST POP POP PUSH2 0x294 JUMP JUMPDEST PUSH0 PUSH2 0xBD DUP4 DUP4 PUSH2 0x1A1 PUSH1 0x20 SHL PUSH1 0x20 SHR JUMP JUMPDEST PUSH2 0x197 JUMPI PUSH1 0x1 PUSH0 PUSH0 DUP6 DUP2 MSTORE PUSH1 0x20 ADD SWAP1 DUP2 MSTORE PUSH1 0x20 ADD PUSH0 KECCAK256 PUSH0 ADD PUSH0 DUP5 PUSH20 0xFFFFFFFFFFFFFFFFFFFFFFFFFFFFFFFFFFFFFFFF AND PUSH20 0xFFFFFFFFFFFFFFFFFFFFFFFFFFFFFFFFFFFFFFFF AND DUP2 MSTORE PUSH1 0x20 ADD SWAP1 DUP2 MSTORE PUSH1 0x20 ADD PUSH0 KECCAK256 PUSH0 PUSH2 0x100 EXP DUP2 SLOAD DUP2 PUSH1 0xFF MUL NOT AND SWAP1 DUP4 ISZERO ISZERO MUL OR SWAP1 SSTORE POP PUSH2 0x134 PUSH2 0x204 PUSH1 0x20 SHL PUSH1 0x20 SHR JUMP JUMPDEST PUSH20 0xFFFFFFFFFFFFFFFFFFFFFFFFFFFFFFFFFFFFFFFF AND DUP3 PUSH20 0xFFFFFFFFFFFFFFFFFFFFFFFFFFFFFFFFFFFFFFFF AND DUP5 PUSH32 0x2F8788117E7EFF1D82E926EC794901D17C78024A50270940304540A733656F0D PUSH1 0x40 MLOAD PUSH1 0x40 MLOAD DUP1 SWAP2 SUB SWAP1 LOG4 PUSH1 0x1 SWAP1 POP PUSH2 0x19B JUMP JUMPDEST PUSH0 SWAP1 POP JUMPDEST SWAP3 SWAP2 POP POP JUMP JUMPDEST PUSH0 PUSH0 PUSH0 DUP5 DUP2 MSTORE PUSH1 0x20 ADD SWAP1 DUP2 MSTORE PUSH1 0x20 ADD PUSH0 KECCAK256 PUSH0 ADD PUSH0 DUP4 PUSH20 0xFFFFFFFFFFFFFFFFFFFFFFFFFFFFFFFFFFFFFFFF AND PUSH20 0xFFFFFFFFFFFFFFFFFFFFFFFFFFFFFFFFFFFFFFFF AND DUP2 MSTORE PUSH1 0x20 ADD SWAP1 DUP2 MSTORE PUSH1 0x20 ADD PUSH0 KECCAK256 PUSH0 SWAP1 SLOAD SWAP1 PUSH2 0x100 EXP SWAP1 DIV PUSH1 0xFF AND SWAP1 POP SWAP3 SWAP2 POP POP JUMP JUMPDEST PUSH0 CALLER SWAP1 POP SWAP1 JUMP JUMPDEST PUSH0 PUSH0 REVERT JUMPDEST PUSH0 PUSH20 0xFFFFFFFFFFFFFFFFFFFFFFFFFFFFFFFFFFFFFFFF DUP3 AND SWAP1 POP SWAP2 SWAP1 POP JUMP JUMPDEST PUSH0 PUSH2 0x238 DUP3 PUSH2 0x20F JUMP JUMPDEST SWAP1 POP SWAP2 SWAP1 POP JUMP JUMPDEST PUSH2 0x248 DUP2 PUSH2 0x22E JUMP JUMPDEST DUP2 EQ PUSH2 0x252 JUMPI PUSH0 PUSH0 REVERT JUMPDEST POP JUMP JUMPDEST PUSH0 DUP2 MLOAD SWAP1 POP PUSH2 0x263 DUP2 PUSH2 0x23F JUMP JUMPDEST SWAP3 SWAP2 POP POP JUMP JUMPDEST PUSH0 PUSH1 0x20 DUP3 DUP5 SUB SLT ISZERO PUSH2 0x27E JUMPI PUSH2 0x27D PUSH2 0x20B JUMP JUMPDEST JUMPDEST PUSH0 PUSH2 0x28B DUP5 DUP3 DUP6 ADD PUSH2 0x255 JUMP JUMPDEST SWAP2 POP POP SWAP3 SWAP2 POP POP JUMP JUMPDEST PUSH2 0x163A DUP1 PUSH2 0x2A1 PUSH0 CODECOPY PUSH0 RETURN INVALID PUSH1 0x80 PUSH1 0x40 MSTORE CALLVALUE DUP1 ISZERO PUSH2 0xF JUMPI PUSH0 PUSH0 REVERT JUMPDEST POP PUSH1 0x4 CALLDATASIZE LT PUSH2 0xE8 JUMPI PUSH0 CALLDATALOAD PUSH1 0xE0 SHR DUP1 PUSH4 0x82AEFA24 GT PUSH2 0x8A JUMPI DUP1 PUSH4 0xB8CDD6B1 GT PUSH2 0x64 JUMPI DUP1 PUSH4 0xB8CDD6B1 EQ PUSH2 0x246 JUMPI DUP1 PUSH4 0xBA63245D EQ PUSH2 0x279 JUMPI DUP1 PUSH4 0xD547741F EQ PUSH2 0x2A9 JUMPI DUP1 PUSH4 0xFBE30DEE EQ PUSH2 0x2C5 JUMPI PUSH2 0xE8 JUMP JUMPDEST DUP1 PUSH4 0x82AEFA24 EQ PUSH2 0x1DA JUMPI DUP1 PUSH4 0x91D14854 EQ PUSH2 0x1F8 JUMPI DUP1 PUSH4 0xA217FDDF EQ PUSH2 0x228 JUMPI PUSH2 0xE8 JUMP JUMPDEST DUP1 PUSH4 0x2F2FF15D GT PUSH2 0xC6 JUMPI DUP1 PUSH4 0x2F2FF15D EQ PUSH2 0x168 JUMPI DUP1 PUSH4 0x36568ABE EQ PUSH2 0x184 JUMPI DUP1 PUSH4 0x5F615FBB EQ PUSH2 0x1A0 JUMPI DUP1 PUSH4 0x7C4ACABF EQ PUSH2 0x1BC JUMPI PUSH2 0xE8 JUMP JUMPDEST DUP1 PUSH4 0x1FFC9A7 EQ PUSH2 0xEC JUMPI DUP1 PUSH4 0x22FA4888 EQ PUSH2 0x11C JUMPI DUP1 PUSH4 0x248A9CA3 EQ PUSH2 0x138 JUMPI JUMPDEST PUSH0 PUSH0 REVERT JUMPDEST PUSH2 0x106 PUSH1 0x4 DUP1 CALLDATASIZE SUB DUP2 ADD SWAP1 PUSH2 0x101 SWAP2 SWAP1 PUSH2 0xF41 JUMP JUMPDEST PUSH2 0x2F8 JUMP JUMPDEST PUSH1 0x40 MLOAD PUSH2 0x113 SWAP2 SWAP1 PUSH2 0xF86 JUMP JUMPDEST PUSH1 0x40 MLOAD DUP1 SWAP2 SUB SWAP1 RETURN JUMPDEST PUSH2 0x136 PUSH1 0x4 DUP1 CALLDATASIZE SUB DUP2 ADD SWAP1 PUSH2 0x131 SWAP2 SWAP1 PUSH2 0x102C JUMP JUMPDEST PUSH2 0x371 JUMP JUMPDEST STOP JUMPDEST PUSH2 0x152 PUSH1 0x4 DUP1 CALLDATASIZE SUB DUP2 ADD SWAP1 PUSH2 0x14D SWAP2 SWAP1 PUSH2 0x106A JUMP JUMPDEST PUSH2 0x5CD JUMP JUMPDEST PUSH1 0x40 MLOAD PUSH2 0x15F SWAP2 SWAP1 PUSH2 0x10A4 JUMP JUMPDEST PUSH1 0x40 MLOAD DUP1 SWAP2 SUB SWAP1 RETURN JUMPDEST PUSH2 0x182 PUSH1 0x4 DUP1 CALLDATASIZE SUB DUP2 ADD SWAP1 PUSH2 0x17D SWAP2 SWAP1 PUSH2 0x10BD JUMP JUMPDEST PUSH2 0x5E9 JUMP JUMPDEST STOP JUMPDEST PUSH2 0x19E PUSH1 0x4 DUP1 CALLDATASIZE SUB DUP2 ADD SWAP1 PUSH2 0x199 SWAP2 SWAP1 PUSH2 0x10BD JUMP JUMPDEST PUSH2 0x60B JUMP JUMPDEST STOP JUMPDEST PUSH2 0x1BA PUSH1 0x4 DUP1 CALLDATASIZE SUB DUP2 ADD SWAP1 PUSH2 0x1B5 SWAP2 SWAP1 PUSH2 0x102C JUMP JUMPDEST PUSH2 0x686 JUMP JUMPDEST STOP JUMPDEST PUSH2 0x1C4 PUSH2 0x8AE JUMP JUMPDEST PUSH1 0x40 MLOAD PUSH2 0x1D1 SWAP2 SWAP1 PUSH2 0x10A4 JUMP JUMPDEST PUSH1 0x40 MLOAD DUP1 SWAP2 SUB SWAP1 RETURN JUMPDEST PUSH2 0x1E2 PUSH2 0x8D2 JUMP JUMPDEST PUSH1 0x40 MLOAD PUSH2 0x1EF SWAP2 SWAP1 PUSH2 0x10A4 JUMP JUMPDEST PUSH1 0x40 MLOAD DUP1 SWAP2 SUB SWAP1 RETURN JUMPDEST PUSH2 0x212 PUSH1 0x4 DUP1 CALLDATASIZE SUB DUP2 ADD SWAP1 PUSH2 0x20D SWAP2 SWAP1 PUSH2 0x10BD JUMP JUMPDEST PUSH2 0x8F6 JUMP JUMPDEST PUSH1 0x40 MLOAD PUSH2 0x21F SWAP2 SWAP1 PUSH2 0xF86 JUMP JUMPDEST PUSH1 0x40 MLOAD DUP1 SWAP2 SUB SWAP1 RETURN JUMPDEST PUSH2 0x230 PUSH2 0x959 JUMP JUMPDEST PUSH1 0x40 MLOAD PUSH2 0x23D SWAP2 SWAP1 PUSH2 0x10A4 JUMP JUMPDEST PUSH1 0x40 MLOAD DUP1 SWAP2 SUB SWAP1 RETURN JUMPDEST PUSH2 0x260 PUSH1 0x4 DUP1 CALLDATASIZE SUB DUP2 ADD SWAP1 PUSH2 0x25B SWAP2 SWAP1 PUSH2 0x112E JUMP JUMPDEST PUSH2 0x95F JUMP JUMPDEST PUSH1 0x40 MLOAD PUSH2 0x270 SWAP5 SWAP4 SWAP3 SWAP2 SWAP1 PUSH2 0x118A JUMP JUMPDEST PUSH1 0x40 MLOAD DUP1 SWAP2 SUB SWAP1 RETURN JUMPDEST PUSH2 0x293 PUSH1 0x4 DUP1 CALLDATASIZE SUB DUP2 ADD SWAP1 PUSH2 0x28E SWAP2 SWAP1 PUSH2 0x11CD JUMP JUMPDEST PUSH2 0xA93 JUMP JUMPDEST PUSH1 0x40 MLOAD PUSH2 0x2A0 SWAP2 SWAP1 PUSH2 0x11F8 JUMP JUMPDEST PUSH1 0x40 MLOAD DUP1 SWAP2 SUB SWAP1 RETURN JUMPDEST PUSH2 0x2C3 PUSH1 0x4 DUP1 CALLDATASIZE SUB DUP2 ADD SWAP1 PUSH2 0x2BE SWAP2 SWAP1 PUSH2 0x10BD JUMP JUMPDEST PUSH2 0xADC JUMP JUMPDEST STOP JUMPDEST PUSH2 0x2DF PUSH1 0x4 DUP1 CALLDATASIZE SUB DUP2 ADD SWAP1 PUSH2 0x2DA SWAP2 SWAP1 PUSH2 0x11CD JUMP JUMPDEST PUSH2 0xAFE JUMP JUMPDEST PUSH1 0x40 MLOAD PUSH2 0x2EF SWAP5 SWAP4 SWAP3 SWAP2 SWAP1 PUSH2 0x118A JUMP JUMPDEST PUSH1 0x40 MLOAD DUP1 SWAP2 SUB SWAP1 RETURN JUMPDEST PUSH0 PUSH32 0x7965DB0B00000000000000000000000000000000000000000000000000000000 PUSH28 0xFFFFFFFFFFFFFFFFFFFFFFFFFFFFFFFFFFFFFFFFFFFFFFFFFFFFFFFF NOT AND DUP3 PUSH28 0xFFFFFFFFFFFFFFFFFFFFFFFFFFFFFFFFFFFFFFFFFFFFFFFFFFFFFFFF NOT AND EQ DUP1 PUSH2 0x36A JUMPI POP PUSH2 0x369 DUP3 PUSH2 0xC41 JUMP JUMPDEST JUMPDEST SWAP1 POP SWAP2 SWAP1 POP JUMP JUMPDEST PUSH2 0x39B PUSH32 0x114E74F6EA3BD819998F78687BFCB11B140DA08E9B7D222FA9C1F1BA1F2AA122 CALLER PUSH2 0x8F6 JUMP JUMPDEST PUSH2 0x3DA JUMPI PUSH1 0x40 MLOAD PUSH32 0x8C379A000000000000000000000000000000000000000000000000000000000 DUP2 MSTORE PUSH1 0x4 ADD PUSH2 0x3D1 SWAP1 PUSH2 0x1291 JUMP JUMPDEST PUSH1 0x40 MLOAD DUP1 SWAP2 SUB SWAP1 REVERT JUMPDEST PUSH0 PUSH20 0xFFFFFFFFFFFFFFFFFFFFFFFFFFFFFFFFFFFFFFFF AND DUP3 PUSH20 0xFFFFFFFFFFFFFFFFFFFFFFFFFFFFFFFFFFFFFFFF AND SUB PUSH2 0x448 JUMPI PUSH1 0x40 MLOAD PUSH32 0x8C379A000000000000000000000000000000000000000000000000000000000 DUP2 MSTORE PUSH1 0x4 ADD PUSH2 0x43F SWAP1 PUSH2 0x131F JUMP JUMPDEST PUSH1 0x40 MLOAD DUP1 SWAP2 SUB SWAP1 REVERT JUMPDEST PUSH0 PUSH1 0x40 MLOAD DUP1 PUSH1 0x80 ADD PUSH1 0x40 MSTORE DUP1 CALLER PUSH20 0xFFFFFFFFFFFFFFFFFFFFFFFFFFFFFFFFFFFFFFFF AND DUP2 MSTORE PUSH1 0x20 ADD TIMESTAMP DUP2 MSTORE PUSH1 0x20 ADD DUP4 DUP2 MSTORE PUSH1 0x20 ADD PUSH0 ISZERO ISZERO DUP2 MSTORE POP SWAP1 POP PUSH1 0x1 PUSH0 DUP5 PUSH20 0xFFFFFFFFFFFFFFFFFFFFFFFFFFFFFFFFFFFFFFFF AND PUSH20 0xFFFFFFFFFFFFFFFFFFFFFFFFFFFFFFFFFFFFFFFF AND DUP2 MSTORE PUSH1 0x20 ADD SWAP1 DUP2 MSTORE PUSH1 0x20 ADD PUSH0 KECCAK256 DUP2 SWAP1 DUP1 PUSH1 0x1 DUP2 SLOAD ADD DUP1 DUP3 SSTORE DUP1 SWAP2 POP POP PUSH1 0x1 SWAP1 SUB SWAP1 PUSH0 MSTORE PUSH1 0x20 PUSH0 KECCAK256 SWAP1 PUSH1 0x4 MUL ADD PUSH0 SWAP1 SWAP2 SWAP1 SWAP2 SWAP1 SWAP2 POP PUSH0 DUP3 ADD MLOAD DUP2 PUSH0 ADD PUSH0 PUSH2 0x100 EXP DUP2 SLOAD DUP2 PUSH20 0xFFFFFFFFFFFFFFFFFFFFFFFFFFFFFFFFFFFFFFFF MUL NOT AND SWAP1 DUP4 PUSH20 0xFFFFFFFFFFFFFFFFFFFFFFFFFFFFFFFFFFFFFFFF AND MUL OR SWAP1 SSTORE POP PUSH1 0x20 DUP3 ADD MLOAD DUP2 PUSH1 0x1 ADD SSTORE PUSH1 0x40 DUP3 ADD MLOAD DUP2 PUSH1 0x2 ADD SSTORE PUSH1 0x60 DUP3 ADD MLOAD DUP2 PUSH1 0x3 ADD PUSH0 PUSH2 0x100 EXP DUP2 SLOAD DUP2 PUSH1 0xFF MUL NOT AND SWAP1 DUP4 ISZERO ISZERO MUL OR SWAP1 SSTORE POP POP POP CALLER PUSH20 0xFFFFFFFFFFFFFFFFFFFFFFFFFFFFFFFFFFFFFFFF AND DUP4 PUSH20 0xFFFFFFFFFFFFFFFFFFFFFFFFFFFFFFFFFFFFFFFF AND PUSH32 0x37AA684287F2C7AAB9FEB2A3D555C05CB051F1612973DA386BFC549402095545 DUP5 TIMESTAMP PUSH1 0x40 MLOAD PUSH2 0x5C0 SWAP3 SWAP2 SWAP1 PUSH2 0x133D JUMP JUMPDEST PUSH1 0x40 MLOAD DUP1 SWAP2 SUB SWAP1 LOG3 POP POP POP JUMP JUMPDEST PUSH0 PUSH0 PUSH0 DUP4 DUP2 MSTORE PUSH1 0x20 ADD SWAP1 DUP2 MSTORE PUSH1 0x20 ADD PUSH0 KECCAK256 PUSH1 0x1 ADD SLOAD SWAP1 POP SWAP2 SWAP1 POP JUMP JUMPDEST PUSH2 0x5F2 DUP3 PUSH2 0x5CD JUMP JUMPDEST PUSH2 0x5FB DUP2 PUSH2 0xCAA JUMP JUMPDEST PUSH2 0x605 DUP4 DUP4 PUSH2 0xCBE JUMP JUMPDEST POP POP POP POP JUMP JUMPDEST PUSH2 0x613 PUSH2 0xDA7 JUMP JUMPDEST PUSH20 0xFFFFFFFFFFFFFFFFFFFFFFFFFFFFFFFFFFFFFFFF AND DUP2 PUSH20 0xFFFFFFFFFFFFFFFFFFFFFFFFFFFFFFFFFFFFFFFF AND EQ PUSH2 0x677 JUMPI PUSH1 0x40 MLOAD PUSH32 0x6697B23200000000000000000000000000000000000000000000000000000000 DUP2 MSTORE PUSH1 0x4 ADD PUSH1 0x40 MLOAD DUP1 SWAP2 SUB SWAP1 REVERT JUMPDEST PUSH2 0x681 DUP3 DUP3 PUSH2 0xDAE JUMP JUMPDEST POP POP POP JUMP JUMPDEST PUSH2 0x6B0 PUSH32 0xCE3F34913921DA558F105CEFB578D87278DEBBBD073A8D552B5DE0D168DEEE30 CALLER PUSH2 0x8F6 JUMP JUMPDEST PUSH2 0x6EF JUMPI PUSH1 0x40 MLOAD PUSH32 0x8C379A000000000000000000000000000000000000000000000000000000000 DUP2 MSTORE PUSH1 0x4 ADD PUSH2 0x6E6 SWAP1 PUSH2 0x13D4 JUMP JUMPDEST PUSH1 0x40 MLOAD DUP1 SWAP2 SUB SWAP1 REVERT JUMPDEST PUSH0 PUSH1 0x1 PUSH0 DUP5 PUSH20 0xFFFFFFFFFFFFFFFFFFFFFFFFFFFFFFFFFFFFFFFF AND PUSH20 0xFFFFFFFFFFFFFFFFFFFFFFFFFFFFFFFFFFFFFFFF AND DUP2 MSTORE PUSH1 0x20 ADD SWAP1 DUP2 MSTORE PUSH1 0x20 ADD PUSH0 KECCAK256 DUP1 SLOAD SWAP1 POP SWAP1 POP PUSH0 DUP2 GT PUSH2 0x775 JUMPI PUSH1 0x40 MLOAD PUSH32 0x8C379A000000000000000000000000000000000000000000000000000000000 DUP2 MSTORE PUSH1 0x4 ADD PUSH2 0x76C SWAP1 PUSH2 0x143C JUMP JUMPDEST PUSH1 0x40 MLOAD DUP1 SWAP2 SUB SWAP1 REVERT JUMPDEST PUSH0 PUSH1 0x1 PUSH0 DUP6 PUSH20 0xFFFFFFFFFFFFFFFFFFFFFFFFFFFFFFFFFFFFFFFF AND PUSH20 0xFFFFFFFFFFFFFFFFFFFFFFFFFFFFFFFFFFFFFFFF AND DUP2 MSTORE PUSH1 0x20 ADD SWAP1 DUP2 MSTORE PUSH1 0x20 ADD PUSH0 KECCAK256 PUSH1 0x1 DUP4 PUSH2 0x7C0 SWAP2 SWAP1 PUSH2 0x1487 JUMP JUMPDEST DUP2 SLOAD DUP2 LT PUSH2 0x7D1 JUMPI PUSH2 0x7D0 PUSH2 0x14BA JUMP JUMPDEST JUMPDEST SWAP1 PUSH0 MSTORE PUSH1 0x20 PUSH0 KECCAK256 SWAP1 PUSH1 0x4 MUL ADD SWAP1 POP DUP3 DUP2 PUSH1 0x2 ADD SLOAD EQ PUSH2 0x825 JUMPI PUSH1 0x40 MLOAD PUSH32 0x8C379A000000000000000000000000000000000000000000000000000000000 DUP2 MSTORE PUSH1 0x4 ADD PUSH2 0x81C SWAP1 PUSH2 0x1557 JUMP JUMPDEST PUSH1 0x40 MLOAD DUP1 SWAP2 SUB SWAP1 REVERT JUMPDEST PUSH1 0x1 DUP2 PUSH1 0x3 ADD PUSH0 PUSH2 0x100 EXP DUP2 SLOAD DUP2 PUSH1 0xFF MUL NOT AND SWAP1 DUP4 ISZERO ISZERO MUL OR SWAP1 SSTORE POP CALLER PUSH20 0xFFFFFFFFFFFFFFFFFFFFFFFFFFFFFFFFFFFFFFFF AND DUP5 PUSH20 0xFFFFFFFFFFFFFFFFFFFFFFFFFFFFFFFFFFFFFFFF AND PUSH32 0xA55BC03C911EB5E112898A2734CB88A312466BE1703595EACD2545325088540 DUP6 TIMESTAMP PUSH1 0x40 MLOAD PUSH2 0x8A0 SWAP3 SWAP2 SWAP1 PUSH2 0x133D JUMP JUMPDEST PUSH1 0x40 MLOAD DUP1 SWAP2 SUB SWAP1 LOG3 POP POP POP POP JUMP JUMPDEST PUSH32 0xCE3F34913921DA558F105CEFB578D87278DEBBBD073A8D552B5DE0D168DEEE30 DUP2 JUMP JUMPDEST PUSH32 0x114E74F6EA3BD819998F78687BFCB11B140DA08E9B7D222FA9C1F1BA1F2AA122 DUP2 JUMP JUMPDEST PUSH0 PUSH0 PUSH0 DUP5 DUP2 MSTORE PUSH1 0x20 ADD SWAP1 DUP2 MSTORE PUSH1 0x20 ADD PUSH0 KECCAK256 PUSH0 ADD PUSH0 DUP4 PUSH20 0xFFFFFFFFFFFFFFFFFFFFFFFFFFFFFFFFFFFFFFFF AND PUSH20 0xFFFFFFFFFFFFFFFFFFFFFFFFFFFFFFFFFFFFFFFF AND DUP2 MSTORE PUSH1 0x20 ADD SWAP1 DUP2 MSTORE PUSH1 0x20 ADD PUSH0 KECCAK256 PUSH0 SWAP1 SLOAD SWAP1 PUSH2 0x100 EXP SWAP1 DIV PUSH1 0xFF AND SWAP1 POP SWAP3 SWAP2 POP POP JUMP JUMPDEST PUSH0 PUSH0 SHL DUP2 JUMP JUMPDEST PUSH0 PUSH0 PUSH0 PUSH0 PUSH1 0x1 PUSH0 DUP8 PUSH20 0xFFFFFFFFFFFFFFFFFFFFFFFFFFFFFFFFFFFFFFFF AND PUSH20 0xFFFFFFFFFFFFFFFFFFFFFFFFFFFFFFFFFFFFFFFF AND DUP2 MSTORE PUSH1 0x20 ADD SWAP1 DUP2 MSTORE PUSH1 0x20 ADD PUSH0 KECCAK256 DUP1 SLOAD SWAP1 POP DUP6 LT PUSH2 0x9E5 JUMPI PUSH1 0x40 MLOAD PUSH32 0x8C379A000000000000000000000000000000000000000000000000000000000 DUP2 MSTORE PUSH1 0x4 ADD PUSH2 0x9DC SWAP1 PUSH2 0x15BF JUMP JUMPDEST PUSH1 0x40 MLOAD DUP1 SWAP2 SUB SWAP1 REVERT JUMPDEST PUSH0 PUSH1 0x1 PUSH0 DUP9 PUSH20 0xFFFFFFFFFFFFFFFFFFFFFFFFFFFFFFFFFFFFFFFF AND PUSH20 0xFFFFFFFFFFFFFFFFFFFFFFFFFFFFFFFFFFFFFFFF AND DUP2 MSTORE PUSH1 0x20 ADD SWAP1 DUP2 MSTORE PUSH1 0x20 ADD PUSH0 KECCAK256 DUP7 DUP2 SLOAD DUP2 LT PUSH2 0xA35 JUMPI PUSH2 0xA34 PUSH2 0x14BA JUMP JUMPDEST JUMPDEST SWAP1 PUSH0 MSTORE PUSH1 0x20 PUSH0 KECCAK256 SWAP1 PUSH1 0x4 MUL ADD SWAP1 POP DUP1 PUSH0 ADD PUSH0 SWAP1 SLOAD SWAP1 PUSH2 0x100 EXP SWAP1 DIV PUSH20 0xFFFFFFFFFFFFFFFFFFFFFFFFFFFFFFFFFFFFFFFF AND DUP2 PUSH1 0x1 ADD SLOAD DUP3 PUSH1 0x2 ADD SLOAD DUP4 PUSH1 0x3 ADD PUSH0 SWAP1 SLOAD SWAP1 PUSH2 0x100 EXP SWAP1 DIV PUSH1 0xFF AND SWAP5 POP SWAP5 POP SWAP5 POP SWAP5 POP POP SWAP3 SWAP6 SWAP2 SWAP5 POP SWAP3 POP JUMP JUMPDEST PUSH0 PUSH1 0x1 PUSH0 DUP4 PUSH20 0xFFFFFFFFFFFFFFFFFFFFFFFFFFFFFFFFFFFFFFFF AND PUSH20 0xFFFFFFFFFFFFFFFFFFFFFFFFFFFFFFFFFFFFFFFF AND DUP2 MSTORE PUSH1 0x20 ADD SWAP1 DUP2 MSTORE PUSH1 0x20 ADD PUSH0 KECCAK256 DUP1 SLOAD SWAP1 POP SWAP1 POP SWAP2 SWAP1 POP JUMP JUMPDEST PUSH2 0xAE5 DUP3 PUSH2 0x5CD JUMP JUMPDEST PUSH2 0xAEE DUP2 PUSH2 0xCAA JUMP JUMPDEST PUSH2 0xAF8 DUP4 DUP4 PUSH2 0xDAE JUMP JUMPDEST POP POP POP POP JUMP JUMPDEST PUSH0 PUSH0 PUSH0 PUSH0 PUSH0 PUSH1 0x1 PUSH0 DUP8 PUSH20 0xFFFFFFFFFFFFFFFFFFFFFFFFFFFFFFFFFFFFFFFF AND PUSH20 0xFFFFFFFFFFFFFFFFFFFFFFFFFFFFFFFFFFFFFFFF AND DUP2 MSTORE PUSH1 0x20 ADD SWAP1 DUP2 MSTORE PUSH1 0x20 ADD PUSH0 KECCAK256 DUP1 SLOAD SWAP1 POP SWAP1 POP PUSH0 DUP2 GT PUSH2 0xB88 JUMPI PUSH1 0x40 MLOAD PUSH32 0x8C379A000000000000000000000000000000000000000000000000000000000 DUP2 MSTORE PUSH1 0x4 ADD PUSH2 0xB7F SWAP1 PUSH2 0x143C JUMP JUMPDEST PUSH1 0x40 MLOAD DUP1 SWAP2 SUB SWAP1 REVERT JUMPDEST PUSH0 PUSH1 0x1 PUSH0 DUP9 PUSH20 0xFFFFFFFFFFFFFFFFFFFFFFFFFFFFFFFFFFFFFFFF AND PUSH20 0xFFFFFFFFFFFFFFFFFFFFFFFFFFFFFFFFFFFFFFFF AND DUP2 MSTORE PUSH1 0x20 ADD SWAP1 DUP2 MSTORE PUSH1 0x20 ADD PUSH0 KECCAK256 PUSH1 0x1 DUP4 PUSH2 0xBD3 SWAP2 SWAP1 PUSH2 0x1487 JUMP JUMPDEST DUP2 SLOAD DUP2 LT PUSH2 0xBE4 JUMPI PUSH2 0xBE3 PUSH2 0x14BA JUMP JUMPDEST JUMPDEST SWAP1 PUSH0 MSTORE PUSH1 0x20 PUSH0 KECCAK256 SWAP1 PUSH1 0x4 MUL ADD SWAP1 POP DUP1 PUSH0 ADD PUSH0 SWAP1 SLOAD SWAP1 PUSH2 0x100 EXP SWAP1 DIV PUSH20 0xFFFFFFFFFFFFFFFFFFFFFFFFFFFFFFFFFFFFFFFF AND DUP2 PUSH1 0x1 ADD SLOAD DUP3 PUSH1 0x2 ADD SLOAD DUP4 PUSH1 0x3 ADD PUSH0 SWAP1 SLOAD SWAP1 PUSH2 0x100 EXP SWAP1 DIV PUSH1 0xFF AND SWAP6 POP SWAP6 POP SWAP6 POP SWAP6 POP POP POP SWAP2 SWAP4 POP SWAP2 SWAP4 JUMP JUMPDEST PUSH0 PUSH32 0x1FFC9A700000000000000000000000000000000000000000000000000000000 PUSH28 0xFFFFFFFFFFFFFFFFFFFFFFFFFFFFFFFFFFFFFFFFFFFFFFFFFFFFFFFF NOT AND DUP3 PUSH28 0xFFFFFFFFFFFFFFFFFFFFFFFFFFFFFFFFFFFFFFFFFFFFFFFFFFFFFFFF NOT AND EQ SWAP1 POP SWAP2 SWAP1 POP JUMP JUMPDEST PUSH2 0xCBB DUP2 PUSH2 0xCB6 PUSH2 0xDA7 JUMP JUMPDEST PUSH2 0xE97 JUMP JUMPDEST POP JUMP JUMPDEST PUSH0 PUSH2 0xCC9 DUP4 DUP4 PUSH2 0x8F6 JUMP JUMPDEST PUSH2 0xD9D JUMPI PUSH1 0x1 PUSH0 PUSH0 DUP6 DUP2 MSTORE PUSH1 0x20 ADD SWAP1 DUP2 MSTORE PUSH1 0x20 ADD PUSH0 KECCAK256 PUSH0 ADD PUSH0 DUP5 PUSH20 0xFFFFFFFFFFFFFFFFFFFFFFFFFFFFFFFFFFFFFFFF AND PUSH20 0xFFFFFFFFFFFFFFFFFFFFFFFFFFFFFFFFFFFFFFFF AND DUP2 MSTORE PUSH1 0x20 ADD SWAP1 DUP2 MSTORE PUSH1 0x20 ADD PUSH0 KECCAK256 PUSH0 PUSH2 0x100 EXP DUP2 SLOAD DUP2 PUSH1 0xFF MUL NOT AND SWAP1 DUP4 ISZERO ISZERO MUL OR SWAP1 SSTORE POP PUSH2 0xD3A PUSH2 0xDA7 JUMP JUMPDEST PUSH20 0xFFFFFFFFFFFFFFFFFFFFFFFFFFFFFFFFFFFFFFFF AND DUP3 PUSH20 0xFFFFFFFFFFFFFFFFFFFFFFFFFFFFFFFFFFFFFFFF AND DUP5 PUSH32 0x2F8788117E7EFF1D82E926EC794901D17C78024A50270940304540A733656F0D PUSH1 0x40 MLOAD PUSH1 0x40 MLOAD DUP1 SWAP2 SUB SWAP1 LOG4 PUSH1 0x1 SWAP1 POP PUSH2 0xDA1 JUMP JUMPDEST PUSH0 SWAP1 POP JUMPDEST SWAP3 SWAP2 POP POP JUMP JUMPDEST PUSH0 CALLER SWAP1 POP SWAP1 JUMP JUMPDEST PUSH0 PUSH2 0xDB9 DUP4 DUP4 PUSH2 0x8F6 JUMP JUMPDEST ISZERO PUSH2 0xE8D JUMPI PUSH0 PUSH0 PUSH0 DUP6 DUP2 MSTORE PUSH1 0x20 ADD SWAP1 DUP2 MSTORE PUSH1 0x20 ADD PUSH0 KECCAK256 PUSH0 ADD PUSH0 DUP5 PUSH20 0xFFFFFFFFFFFFFFFFFFFFFFFFFFFFFFFFFFFFFFFF AND PUSH20 0xFFFFFFFFFFFFFFFFFFFFFFFFFFFFFFFFFFFFFFFF AND DUP2 MSTORE PUSH1 0x20 ADD SWAP1 DUP2 MSTORE PUSH1 0x20 ADD PUSH0 KECCAK256 PUSH0 PUSH2 0x100 EXP DUP2 SLOAD DUP2 PUSH1 0xFF MUL NOT AND SWAP1 DUP4 ISZERO ISZERO MUL OR SWAP1 SSTORE POP PUSH2 0xE2A PUSH2 0xDA7 JUMP JUMPDEST PUSH20 0xFFFFFFFFFFFFFFFFFFFFFFFFFFFFFFFFFFFFFFFF AND DUP3 PUSH20 0xFFFFFFFFFFFFFFFFFFFFFFFFFFFFFFFFFFFFFFFF AND DUP5 PUSH32 0xF6391F5C32D9C69D2A47EA670B442974B53935D1EDC7FD64EB21E047A839171B PUSH1 0x40 MLOAD PUSH1 0x40 MLOAD DUP1 SWAP2 SUB SWAP1 LOG4 PUSH1 0x1 SWAP1 POP PUSH2 0xE91 JUMP JUMPDEST PUSH0 SWAP1 POP JUMPDEST SWAP3 SWAP2 POP POP JUMP JUMPDEST PUSH2 0xEA1 DUP3 DUP3 PUSH2 0x8F6 JUMP JUMPDEST PUSH2 0xEE4 JUMPI DUP1 DUP3 PUSH1 0x40 MLOAD PUSH32 0xE2517D3F00000000000000000000000000000000000000000000000000000000 DUP2 MSTORE PUSH1 0x4 ADD PUSH2 0xEDB SWAP3 SWAP2 SWAP1 PUSH2 0x15DD JUMP JUMPDEST PUSH1 0x40 MLOAD DUP1 SWAP2 SUB SWAP1 REVERT JUMPDEST POP POP JUMP JUMPDEST PUSH0 PUSH0 REVERT JUMPDEST PUSH0 PUSH32 0xFFFFFFFF00000000000000000000000000000000000000000000000000000000 DUP3 AND SWAP1 POP SWAP2 SWAP1 POP JUMP JUMPDEST PUSH2 0xF20 DUP2 PUSH2 0xEEC JUMP JUMPDEST DUP2 EQ PUSH2 0xF2A JUMPI PUSH0 PUSH0 REVERT JUMPDEST POP JUMP JUMPDEST PUSH0 DUP2 CALLDATALOAD SWAP1 POP PUSH2 0xF3B DUP2 PUSH2 0xF17 JUMP JUMPDEST SWAP3 SWAP2 POP POP JUMP JUMPDEST PUSH0 PUSH1 0x20 DUP3 DUP5 SUB SLT ISZERO PUSH2 0xF56 JUMPI PUSH2 0xF55 PUSH2 0xEE8 JUMP JUMPDEST JUMPDEST PUSH0 PUSH2 0xF63 DUP5 DUP3 DUP6 ADD PUSH2 0xF2D JUMP JUMPDEST SWAP2 POP POP SWAP3 SWAP2 POP POP JUMP JUMPDEST PUSH0 DUP2 ISZERO ISZERO SWAP1 POP SWAP2 SWAP1 POP JUMP JUMPDEST PUSH2 0xF80 DUP2 PUSH2 0xF6C JUMP JUMPDEST DUP3 MSTORE POP POP JUMP JUMPDEST PUSH0 PUSH1 0x20 DUP3 ADD SWAP1 POP PUSH2 0xF99 PUSH0 DUP4 ADD DUP5 PUSH2 0xF77 JUMP JUMPDEST SWAP3 SWAP2 POP POP JUMP JUMPDEST PUSH0 PUSH20 0xFFFFFFFFFFFFFFFFFFFFFFFFFFFFFFFFFFFFFFFF DUP3 AND SWAP1 POP SWAP2 SWAP1 POP JUMP JUMPDEST PUSH0 PUSH2 0xFC8 DUP3 PUSH2 0xF9F JUMP JUMPDEST SWAP1 POP SWAP2 SWAP1 POP JUMP JUMPDEST PUSH2 0xFD8 DUP2 PUSH2 0xFBE JUMP JUMPDEST DUP2 EQ PUSH2 0xFE2 JUMPI PUSH0 PUSH0 REVERT JUMPDEST POP JUMP JUMPDEST PUSH0 DUP2 CALLDATALOAD SWAP1 POP PUSH2 0xFF3 DUP2 PUSH2 0xFCF JUMP JUMPDEST SWAP3 SWAP2 POP POP JUMP JUMPDEST PUSH0 DUP2 SWAP1 POP SWAP2 SWAP1 POP JUMP JUMPDEST PUSH2 0x100B DUP2 PUSH2 0xFF9 JUMP JUMPDEST DUP2 EQ PUSH2 0x1015 JUMPI PUSH0 PUSH0 REVERT JUMPDEST POP JUMP JUMPDEST PUSH0 DUP2 CALLDATALOAD SWAP1 POP PUSH2 0x1026 DUP2 PUSH2 0x1002 JUMP JUMPDEST SWAP3 SWAP2 POP POP JUMP JUMPDEST PUSH0 PUSH0 PUSH1 0x40 DUP4 DUP6 SUB SLT ISZERO PUSH2 0x1042 JUMPI PUSH2 0x1041 PUSH2 0xEE8 JUMP JUMPDEST JUMPDEST PUSH0 PUSH2 0x104F DUP6 DUP3 DUP7 ADD PUSH2 0xFE5 JUMP JUMPDEST SWAP3 POP POP PUSH1 0x20 PUSH2 0x1060 DUP6 DUP3 DUP7 ADD PUSH2 0x1018 JUMP JUMPDEST SWAP2 POP POP SWAP3 POP SWAP3 SWAP1 POP JUMP JUMPDEST PUSH0 PUSH1 0x20 DUP3 DUP5 SUB SLT ISZERO PUSH2 0x107F JUMPI PUSH2 0x107E PUSH2 0xEE8 JUMP JUMPDEST JUMPDEST PUSH0 PUSH2 0x108C DUP5 DUP3 DUP6 ADD PUSH2 0x1018 JUMP JUMPDEST SWAP2 POP POP SWAP3 SWAP2 POP POP JUMP JUMPDEST PUSH2 0x109E DUP2 PUSH2 0xFF9 JUMP JUMPDEST DUP3 MSTORE POP POP JUMP JUMPDEST PUSH0 PUSH1 0x20 DUP3 ADD SWAP1 POP PUSH2 0x10B7 PUSH0 DUP4 ADD DUP5 PUSH2 0x1095 JUMP JUMPDEST SWAP3 SWAP2 POP POP JUMP JUMPDEST PUSH0 PUSH0 PUSH1 0x40 DUP4 DUP6 SUB SLT ISZERO PUSH2 0x10D3 JUMPI PUSH2 0x10D2 PUSH2 0xEE8 JUMP JUMPDEST JUMPDEST PUSH0 PUSH2 0x10E0 DUP6 DUP3 DUP7 ADD PUSH2 0x1018 JUMP JUMPDEST SWAP3 POP POP PUSH1 0x20 PUSH2 0x10F1 DUP6 DUP3 DUP7 ADD PUSH2 0xFE5 JUMP JUMPDEST SWAP2 POP POP SWAP3 POP SWAP3 SWAP1 POP JUMP JUMPDEST PUSH0 DUP2 SWAP1 POP SWAP2 SWAP1 POP JUMP JUMPDEST PUSH2 0x110D DUP2 PUSH2 0x10FB JUMP JUMPDEST DUP2 EQ PUSH2 0x1117 JUMPI PUSH0 PUSH0 REVERT JUMPDEST POP JUMP JUMPDEST PUSH0 DUP2 CALLDATALOAD SWAP1 POP PUSH2 0x1128 DUP2 PUSH2 0x1104 JUMP JUMPDEST SWAP3 SWAP2 POP POP JUMP JUMPDEST PUSH0 PUSH0 PUSH1 0x40 DUP4 DUP6 SUB SLT ISZERO PUSH2 0x1144 JUMPI PUSH2 0x1143 PUSH2 0xEE8 JUMP JUMPDEST JUMPDEST PUSH0 PUSH2 0x1151 DUP6 DUP3 DUP7 ADD PUSH2 0xFE5 JUMP JUMPDEST SWAP3 POP POP PUSH1 0x20 PUSH2 0x1162 DUP6 DUP3 DUP7 ADD PUSH2 0x111A JUMP JUMPDEST SWAP2 POP POP SWAP3 POP SWAP3 SWAP1 POP JUMP JUMPDEST PUSH2 0x1175 DUP2 PUSH2 0xFBE JUMP JUMPDEST DUP3 MSTORE POP POP JUMP JUMPDEST PUSH2 0x1184 DUP2 PUSH2 0x10FB JUMP JUMPDEST DUP3 MSTORE POP POP JUMP JUMPDEST PUSH0 PUSH1 0x80 DUP3 ADD SWAP1 POP PUSH2 0x119D PUSH0 DUP4 ADD DUP8 PUSH2 0x116C JUMP JUMPDEST PUSH2 0x11AA PUSH1 0x20 DUP4 ADD DUP7 PUSH2 0x117B JUMP JUMPDEST PUSH2 0x11B7 PUSH1 0x40 DUP4 ADD DUP6 PUSH2 0x1095 JUMP JUMPDEST PUSH2 0x11C4 PUSH1 0x60 DUP4 ADD DUP5 PUSH2 0xF77 JUMP JUMPDEST SWAP6 SWAP5 POP POP POP POP POP JUMP JUMPDEST PUSH0 PUSH1 0x20 DUP3 DUP5 SUB SLT ISZERO PUSH2 0x11E2 JUMPI PUSH2 0x11E1 PUSH2 0xEE8 JUMP JUMPDEST JUMPDEST PUSH0 PUSH2 0x11EF DUP5 DUP3 DUP6 ADD PUSH2 0xFE5 JUMP JUMPDEST SWAP2 POP POP SWAP3 SWAP2 POP POP JUMP JUMPDEST PUSH0 PUSH1 0x20 DUP3 ADD SWAP1 POP PUSH2 0x120B PUSH0 DUP4 ADD DUP5 PUSH2 0x117B JUMP JUMPDEST SWAP3 SWAP2 POP POP JUMP JUMPDEST PUSH0 DUP3 DUP3 MSTORE PUSH1 0x20 DUP3 ADD SWAP1 POP SWAP3 SWAP2 POP POP JUMP JUMPDEST PUSH32 0x436C69656E7452656769737472793A2063616C6C6572206973206E6F7420616E PUSH0 DUP3 ADD MSTORE PUSH32 0x2069737375657200000000000000000000000000000000000000000000000000 PUSH1 0x20 DUP3 ADD MSTORE POP JUMP JUMPDEST PUSH0 PUSH2 0x127B PUSH1 0x27 DUP4 PUSH2 0x1211 JUMP JUMPDEST SWAP2 POP PUSH2 0x1286 DUP3 PUSH2 0x1221 JUMP JUMPDEST PUSH1 0x40 DUP3 ADD SWAP1 POP SWAP2 SWAP1 POP JUMP JUMPDEST PUSH0 PUSH1 0x20 DUP3 ADD SWAP1 POP DUP2 DUP2 SUB PUSH0 DUP4 ADD MSTORE PUSH2 0x12A8 DUP2 PUSH2 0x126F JUMP JUMPDEST SWAP1 POP SWAP2 SWAP1 POP JUMP JUMPDEST PUSH32 0x436C69656E7452656769737472793A20636C69656E74206973207A65726F2061 PUSH0 DUP3 ADD MSTORE PUSH32 0x6464726573730000000000000000000000000000000000000000000000000000 PUSH1 0x20 DUP3 ADD MSTORE POP JUMP JUMPDEST PUSH0 PUSH2 0x1309 PUSH1 0x26 DUP4 PUSH2 0x1211 JUMP JUMPDEST SWAP2 POP PUSH2 0x1314 DUP3 PUSH2 0x12AF JUMP JUMPDEST PUSH1 0x40 DUP3 ADD SWAP1 POP SWAP2 SWAP1 POP JUMP JUMPDEST PUSH0 PUSH1 0x20 DUP3 ADD SWAP1 POP DUP2 DUP2 SUB PUSH0 DUP4 ADD MSTORE PUSH2 0x1336 DUP2 PUSH2 0x12FD JUMP JUMPDEST SWAP1 POP SWAP2 SWAP1 POP JUMP JUMPDEST PUSH0 PUSH1 0x40 DUP3 ADD SWAP1 POP PUSH2 0x1350 PUSH0 DUP4 ADD DUP6 PUSH2 0x1095 JUMP JUMPDEST PUSH2 0x135D PUSH1 0x20 DUP4 ADD DUP5 PUSH2 0x117B JUMP JUMPDEST SWAP4 SWAP3 POP POP POP JUMP JUMPDEST PUSH32 0x436C69656E7452656769737472793A2063616C6C6572206973206E6F74206120 PUSH0 DUP3 ADD MSTORE PUSH32 0x7265766F6B657200000000000000000000000000000000000000000000000000 PUSH1 0x20 DUP3 ADD MSTORE POP JUMP JUMPDEST PUSH0 PUSH2 0x13BE PUSH1 0x27 DUP4 PUSH2 0x1211 JUMP JUMPDEST SWAP2 POP PUSH2 0x13C9 DUP3 PUSH2 0x1364 JUMP JUMPDEST PUSH1 0x40 DUP3 ADD SWAP1 POP SWAP2 SWAP1 POP JUMP JUMPDEST PUSH0 PUSH1 0x20 DUP3 ADD SWAP1 POP DUP2 DUP2 SUB PUSH0 DUP4 ADD MSTORE PUSH2 0x13EB DUP2 PUSH2 0x13B2 JUMP JUMPDEST SWAP1 POP SWAP2 SWAP1 POP JUMP JUMPDEST PUSH32 0x436C69656E7452656769737472793A206E6F207265636F726473000000000000 PUSH0 DUP3 ADD MSTORE POP JUMP JUMPDEST PUSH0 PUSH2 0x1426 PUSH1 0x1A DUP4 PUSH2 0x1211 JUMP JUMPDEST SWAP2 POP PUSH2 0x1431 DUP3 PUSH2 0x13F2 JUMP JUMPDEST PUSH1 0x20 DUP3 ADD SWAP1 POP SWAP2 SWAP1 POP JUMP JUMPDEST PUSH0 PUSH1 0x20 DUP3 ADD SWAP1 POP DUP2 DUP2 SUB PUSH0 DUP4 ADD MSTORE PUSH2 0x1453 DUP2 PUSH2 0x141A JUMP JUMPDEST SWAP1 POP SWAP2 SWAP1 POP JUMP JUMPDEST PUSH32 0x4E487B7100000000000000000000000000000000000000000000000000000000 PUSH0 MSTORE PUSH1 0x11 PUSH1 0x4 MSTORE PUSH1 0x24 PUSH0 REVERT JUMPDEST PUSH0 PUSH2 0x1491 DUP3 PUSH2 0x10FB JUMP JUMPDEST SWAP2 POP PUSH2 0x149C DUP4 PUSH2 0x10FB JUMP JUMPDEST SWAP3 POP DUP3 DUP3 SUB SWAP1 POP DUP2 DUP2 GT ISZERO PUSH2 0x14B4 JUMPI PUSH2 0x14B3 PUSH2 0x145A JUMP JUMPDEST JUMPDEST SWAP3 SWAP2 POP POP JUMP JUMPDEST PUSH32 0x4E487B7100000000000000000000000000000000000000000000000000000000 PUSH0 MSTORE PUSH1 0x32 PUSH1 0x4 MSTORE PUSH1 0x24 PUSH0 REVERT JUMPDEST PUSH32 0x436C69656E7452656769737472793A206461746148617368206D69736D617463 PUSH0 DUP3 ADD MSTORE PUSH32 0x6800000000000000000000000000000000000000000000000000000000000000 PUSH1 0x20 DUP3 ADD MSTORE POP JUMP JUMPDEST PUSH0 PUSH2 0x1541 PUSH1 0x21 DUP4 PUSH2 0x1211 JUMP JUMPDEST SWAP2 POP PUSH2 0x154C DUP3 PUSH2 0x14E7 JUMP JUMPDEST PUSH1 0x40 DUP3 ADD SWAP1 POP SWAP2 SWAP1 POP JUMP JUMPDEST PUSH0 PUSH1 0x20 DUP3 ADD SWAP1 POP DUP2 DUP2 SUB PUSH0 DUP4 ADD MSTORE PUSH2 0x156E DUP2 PUSH2 0x1535 JUMP JUMPDEST SWAP1 POP SWAP2 SWAP1 POP JUMP JUMPDEST PUSH32 0x436C69656E7452656769737472793A20696E646578204F4F4200000000000000 PUSH0 DUP3 ADD MSTORE POP JUMP JUMPDEST PUSH0 PUSH2 0x15A9 PUSH1 0x19 DUP4 PUSH2 0x1211 JUMP JUMPDEST SWAP2 POP PUSH2 0x15B4 DUP3 PUSH2 0x1575 JUMP JUMPDEST PUSH1 0x20 DUP3 ADD SWAP1 POP SWAP2 SWAP1 POP JUMP JUMPDEST PUSH0 PUSH1 0x20 DUP3 ADD SWAP1 POP DUP2 DUP2 SUB PUSH0 DUP4 ADD MSTORE PUSH2 0x15D6 DUP2 PUSH2 0x159D JUMP JUMPDEST SWAP1 POP SWAP2 SWAP1 POP JUMP JUMPDEST PUSH0 PUSH1 0x40 DUP3 ADD SWAP1 POP PUSH2 0x15F0 PUSH0 DUP4 ADD DUP6 PUSH2 0x116C JUMP JUMPDEST PUSH2 0x15FD PUSH1 0x20 DUP4 ADD DUP5 PUSH2 0x1095 JUMP JUMPDEST SWAP4 SWAP3 POP POP POP JUMP INVALID LOG2 PUSH5 0x6970667358 0x22 SLT KECCAK256 SUB SWAP11 PUSH8 0x90DC79D5D4F77139 SWAP6 0xAD 0xDE LOG1 BASEFEE 0xB2 DUPN 0x39 ADDMOD 0xC6 DUP6 0xCF LOG2 SUB DUP10 0x2F 0xB4 SMOD SWAP14 SWAP13 DUPN 0x64 PUSH20 0x6F6C634300081E00330000000000000000000000 "
				},
				"gasEstimates": {
					"creation": {
						"codeDepositCost": "1138000",
						"executionCost": "infinite",
						"totalCost": "infinite"
					},
					"external": {
						"DEFAULT_ADMIN_ROLE()": "396",
						"ISSUER_ROLE()": "348",
						"REVOKER_ROLE()": "414",
						"getRoleAdmin(bytes32)": "infinite",
						"grantRole(bytes32,address)": "infinite",
						"hasRole(bytes32,address)": "3165",
						"latestRecord(address)": "infinite",
						"recordAt(address,uint256)": "infinite",
						"recordCount(address)": "2881",
						"registerClient(address,bytes32)": "infinite",
						"renounceRole(bytes32,address)": "infinite",
						"revokeLatest(address,bytes32)": "infinite",
						"revokeRole(bytes32,address)": "infinite",
						"supportsInterface(bytes4)": "741"
					}
				},
				"methodIdentifiers": {
					"DEFAULT_ADMIN_ROLE()": "a217fddf",
					"ISSUER_ROLE()": "82aefa24",
					"REVOKER_ROLE()": "7c4acabf",
					"getRoleAdmin(bytes32)": "248a9ca3",
					"grantRole(bytes32,address)": "2f2ff15d",
					"hasRole(bytes32,address)": "91d14854",
					"latestRecord(address)": "fbe30dee",
					"recordAt(address,uint256)": "b8cdd6b1",
					"recordCount(address)": "ba63245d",
					"registerClient(address,bytes32)": "22fa4888",
					"renounceRole(bytes32,address)": "36568abe",
					"revokeLatest(address,bytes32)": "5f615fbb",
					"revokeRole(bytes32,address)": "d547741f",
					"supportsInterface(bytes4)": "01ffc9a7"
				}
			},
			"storageLayout": {
				"storage": [
					{
						"astId": 27,
						"contract": "src/ClientRegistry.sol:ClientRegistry",
						"label": "_roles",
						"offset": 0,
						"slot": "0",
						"type": "t_mapping(t_bytes32,t_struct(RoleData)22_storage)"
					},
					{
						"astId": 475,
						"contract": "src/ClientRegistry.sol:ClientRegistry",
						"label": "_records",
						"offset": 0,
						"slot": "1",
						"type": "t_mapping(t_address,t_array(t_struct(Record)469_storage)dyn_storage)"
					}
				],
				"types": {
					"t_address": {
						"encoding": "inplace",
						"label": "address",
						"numberOfBytes": "20"
					},
					"t_array(t_struct(Record)469_storage)dyn_storage": {
						"base": "t_struct(Record)469_storage",
						"encoding": "dynamic_array",
						"label": "struct ClientRegistry.Record[]",
						"numberOfBytes": "32"
					},
					"t_bool": {
						"encoding": "inplace",
						"label": "bool",
						"numberOfBytes": "1"
					},
					"t_bytes32": {
						"encoding": "inplace",
						"label": "bytes32",
						"numberOfBytes": "32"
					},
					"t_mapping(t_address,t_array(t_struct(Record)469_storage)dyn_storage)": {
						"encoding": "mapping",
						"key": "t_address",
						"label": "mapping(address => struct ClientRegistry.Record[])",
						"numberOfBytes": "32",
						"value": "t_array(t_struct(Record)469_storage)dyn_storage"
					},
					"t_mapping(t_address,t_bool)": {
						"encoding": "mapping",
						"key": "t_address",
						"label": "mapping(address => bool)",
						"numberOfBytes": "32",
						"value": "t_bool"
					},
					"t_mapping(t_bytes32,t_struct(RoleData)22_storage)": {
						"encoding": "mapping",
						"key": "t_bytes32",
						"label": "mapping(bytes32 => struct AccessControl.RoleData)",
						"numberOfBytes": "32",
						"value": "t_struct(RoleData)22_storage"
					},
					"t_struct(Record)469_storage": {
						"encoding": "inplace",
						"label": "struct ClientRegistry.Record",
						"members": [
							{
								"astId": 462,
								"contract": "src/ClientRegistry.sol:ClientRegistry",
								"label": "issuer",
								"offset": 0,
								"slot": "0",
								"type": "t_address"
							},
							{
								"astId": 464,
								"contract": "src/ClientRegistry.sol:ClientRegistry",
								"label": "timestamp",
								"offset": 0,
								"slot": "1",
								"type": "t_uint256"
							},
							{
								"astId": 466,
								"contract": "src/ClientRegistry.sol:ClientRegistry",
								"label": "dataHash",
								"offset": 0,
								"slot": "2",
								"type": "t_bytes32"
							},
							{
								"astId": 468,
								"contract": "src/ClientRegistry.sol:ClientRegistry",
								"label": "revoked",
								"offset": 0,
								"slot": "3",
								"type": "t_bool"
							}
						],
						"numberOfBytes": "128"
					},
					"t_struct(RoleData)22_storage": {
						"encoding": "inplace",
						"label": "struct AccessControl.RoleData",
						"members": [
							{
								"astId": 19,
								"contract": "src/ClientRegistry.sol:ClientRegistry",
								"label": "hasRole",
								"offset": 0,
								"slot": "0",
								"type": "t_mapping(t_address,t_bool)"
							},
							{
								"astId": 21,
								"contract": "src/ClientRegistry.sol:ClientRegistry",
								"label": "adminRole",
								"offset": 0,
								"slot": "1",
								"type": "t_bytes32"
							}
						],
						"numberOfBytes": "64"
					},
					"t_uint256": {
						"encoding": "inplace",
						"label": "uint256",
						"numberOfBytes": "32"
					}
				}
			},
			"userdoc": {
				"kind": "user",
				"methods": {
					"latestRecord(address)": {
						"notice": "Return the latest record for a client"
					},
					"recordAt(address,uint256)": {
						"notice": "Return a record by index (0-based, 0 is oldest)"
					},
					"recordCount(address)": {
						"notice": "Return the number of records for a client"
					},
					"registerClient(address,bytes32)": {
						"notice": "Register (add) a verification record for a client. Stores only a data hash."
					},
					"revokeLatest(address,bytes32)": {
						"notice": "Revoke the latest record for a client. Keeps historical records but marks latest as revoked."
					}
				},
				"version": 1
			}
		}
	}
}